{
  "address": "0x0C19aa1B51EDC69BA78BC9988cbCe9a63F6B038a",
  "abi": [
    {
      "inputs": [
        {
          "internalType": "uint256",
          "name": "startTimeSale_",
          "type": "uint256"
        },
        {
          "internalType": "uint256",
          "name": "mintPrice_",
          "type": "uint256"
        },
        {
          "internalType": "uint256",
          "name": "maxSupply_",
          "type": "uint256"
        },
        {
          "internalType": "uint256",
          "name": "lockDuration_",
          "type": "uint256"
        },
        {
          "internalType": "address[]",
          "name": "wallets_",
          "type": "address[]"
        },
        {
          "internalType": "address",
          "name": "_paymentToken",
          "type": "address"
        },
        {
          "internalType": "address",
          "name": "token_",
          "type": "address"
        },
        {
          "internalType": "address",
          "name": "owner_",
          "type": "address"
        }
      ],
      "stateMutability": "nonpayable",
      "type": "constructor"
    },
    {
      "anonymous": false,
      "inputs": [
        {
          "indexed": false,
          "internalType": "address",
          "name": "beneficiary",
          "type": "address"
        },
        {
          "indexed": false,
          "internalType": "uint256",
          "name": "amount",
          "type": "uint256"
        },
        {
          "indexed": false,
          "internalType": "uint256",
          "name": "price",
          "type": "uint256"
        }
      ],
      "name": "AirDropRequested",
      "type": "event"
    },
    {
      "anonymous": false,
      "inputs": [
        {
          "indexed": false,
          "internalType": "uint256",
          "name": "duration",
          "type": "uint256"
        }
      ],
      "name": "ChangeLockDuration",
      "type": "event"
    },
    {
      "anonymous": false,
      "inputs": [
        {
          "indexed": true,
          "internalType": "address",
          "name": "diposter",
          "type": "address"
        },
        {
          "indexed": false,
          "internalType": "uint256",
          "name": "amount",
          "type": "uint256"
        }
      ],
      "name": "DepositFunds",
      "type": "event"
    },
    {
      "anonymous": false,
      "inputs": [
        {
          "indexed": true,
          "internalType": "address",
          "name": "previousOwner",
          "type": "address"
        },
        {
          "indexed": true,
          "internalType": "address",
          "name": "newOwner",
          "type": "address"
        }
      ],
      "name": "OwnershipTransferred",
      "type": "event"
    },
    {
      "anonymous": false,
      "inputs": [
        {
          "indexed": false,
          "internalType": "address",
          "name": "account",
          "type": "address"
        }
      ],
      "name": "Paused",
      "type": "event"
    },
    {
      "anonymous": false,
      "inputs": [
        {
          "indexed": false,
          "internalType": "address",
          "name": "account",
          "type": "address"
        }
      ],
      "name": "Unpaused",
      "type": "event"
    },
    {
      "anonymous": false,
      "inputs": [
        {
          "indexed": false,
          "internalType": "uint256",
          "name": "newParice",
          "type": "uint256"
        }
      ],
      "name": "UpdateMintPrice",
      "type": "event"
    },
    {
      "anonymous": false,
      "inputs": [
        {
          "indexed": false,
          "internalType": "uint256",
          "name": "newPrice",
          "type": "uint256"
        },
        {
          "indexed": false,
          "internalType": "uint256",
          "name": "oldPrice",
          "type": "uint256"
        }
      ],
      "name": "WhiteListPriceUpdated",
      "type": "event"
    },
    {
      "anonymous": false,
      "inputs": [
        {
          "indexed": false,
          "internalType": "address",
          "name": "beneficiary",
          "type": "address"
        }
      ],
      "name": "WhiteListUpdated",
      "type": "event"
    },
    {
      "anonymous": false,
      "inputs": [
        {
          "indexed": true,
          "internalType": "address",
          "name": "diposter",
          "type": "address"
        },
        {
          "indexed": false,
          "internalType": "uint256",
          "name": "amount",
          "type": "uint256"
        }
      ],
      "name": "WithdrawFunds",
      "type": "event"
    },
    {
      "anonymous": false,
      "inputs": [
        {
          "indexed": false,
          "internalType": "address",
          "name": "payee",
          "type": "address"
        },
        {
          "indexed": false,
          "internalType": "uint256",
          "name": "amount",
          "type": "uint256"
        }
      ],
      "name": "Withdrawn",
      "type": "event"
    },
    {
      "inputs": [],
      "name": "availableTokenCount",
      "outputs": [
        {
          "internalType": "uint256",
          "name": "",
          "type": "uint256"
        }
      ],
      "stateMutability": "view",
      "type": "function"
    },
    {
      "inputs": [],
      "name": "baseAllocation",
      "outputs": [
        {
          "internalType": "uint256",
          "name": "",
          "type": "uint256"
        }
      ],
      "stateMutability": "view",
      "type": "function"
    },
    {
      "inputs": [
        {
          "internalType": "uint256",
          "name": "amount",
          "type": "uint256"
        }
      ],
      "name": "deposit",
      "outputs": [],
      "stateMutability": "nonpayable",
      "type": "function"
    },
    {
      "inputs": [
        {
          "internalType": "address",
          "name": "user",
          "type": "address"
        },
        {
          "internalType": "uint256",
          "name": "amount",
          "type": "uint256"
        }
      ],
      "name": "emergencyUnstake",
      "outputs": [],
      "stateMutability": "nonpayable",
      "type": "function"
    },
    {
      "inputs": [
        {
          "internalType": "address",
          "name": "_owner",
          "type": "address"
        }
      ],
      "name": "getReserves",
      "outputs": [
        {
          "internalType": "uint256",
          "name": "",
          "type": "uint256"
        }
      ],
      "stateMutability": "view",
      "type": "function"
    },
    {
      "inputs": [],
      "name": "getWallets",
      "outputs": [
        {
          "internalType": "address[]",
          "name": "",
          "type": "address[]"
        }
      ],
      "stateMutability": "view",
      "type": "function"
    },
    {
      "inputs": [
        {
          "internalType": "address",
          "name": "user",
          "type": "address"
        }
      ],
      "name": "isUnLockedFund",
      "outputs": [
        {
          "internalType": "bool",
          "name": "",
          "type": "bool"
        }
      ],
      "stateMutability": "view",
      "type": "function"
    },
    {
      "inputs": [
        {
          "internalType": "address",
          "name": "_beneficiary",
          "type": "address"
        }
      ],
      "name": "isWhiteListed",
      "outputs": [
        {
          "internalType": "bool",
          "name": "",
          "type": "bool"
        }
      ],
      "stateMutability": "view",
      "type": "function"
    },
    {
      "inputs": [],
      "name": "level1",
      "outputs": [
        {
          "internalType": "uint256",
          "name": "",
          "type": "uint256"
        },
        {
          "internalType": "uint256",
          "name": "",
          "type": "uint256"
        }
      ],
      "stateMutability": "view",
      "type": "function"
    },
    {
      "inputs": [],
      "name": "level2",
      "outputs": [
        {
          "internalType": "uint256",
          "name": "",
          "type": "uint256"
        },
        {
          "internalType": "uint256",
          "name": "",
          "type": "uint256"
        }
      ],
      "stateMutability": "view",
      "type": "function"
    },
    {
      "inputs": [],
      "name": "level3",
      "outputs": [
        {
          "internalType": "uint256",
          "name": "",
          "type": "uint256"
        },
        {
          "internalType": "uint256",
          "name": "",
          "type": "uint256"
        }
      ],
      "stateMutability": "view",
      "type": "function"
    },
    {
      "inputs": [],
      "name": "lockDuration",
      "outputs": [
        {
          "internalType": "uint256",
          "name": "",
          "type": "uint256"
        }
      ],
      "stateMutability": "view",
      "type": "function"
    },
    {
      "inputs": [],
      "name": "maxSupply",
      "outputs": [
        {
          "internalType": "uint256",
          "name": "",
          "type": "uint256"
        }
      ],
      "stateMutability": "view",
      "type": "function"
    },
    {
      "inputs": [],
      "name": "mint",
      "outputs": [],
      "stateMutability": "nonpayable",
      "type": "function"
    },
    {
      "inputs": [],
      "name": "mintPrice",
      "outputs": [
        {
          "internalType": "uint256",
          "name": "",
          "type": "uint256"
        }
      ],
      "stateMutability": "view",
      "type": "function"
    },
    {
      "inputs": [],
      "name": "owner",
      "outputs": [
        {
          "internalType": "address",
          "name": "",
          "type": "address"
        }
      ],
      "stateMutability": "view",
      "type": "function"
    },
    {
      "inputs": [],
      "name": "pause",
      "outputs": [],
      "stateMutability": "nonpayable",
      "type": "function"
    },
    {
      "inputs": [],
      "name": "paused",
      "outputs": [
        {
          "internalType": "bool",
          "name": "",
          "type": "bool"
        }
      ],
      "stateMutability": "view",
      "type": "function"
    },
    {
      "inputs": [],
      "name": "renounceOwnership",
      "outputs": [],
      "stateMutability": "nonpayable",
      "type": "function"
    },
    {
      "inputs": [
        {
          "internalType": "uint256",
          "name": "price_",
          "type": "uint256"
        }
      ],
      "name": "setMintPrice",
      "outputs": [],
      "stateMutability": "nonpayable",
      "type": "function"
    },
    {
      "inputs": [
        {
          "internalType": "address[]",
          "name": "_list",
          "type": "address[]"
        }
      ],
      "name": "setWhiteList",
      "outputs": [],
      "stateMutability": "nonpayable",
      "type": "function"
    },
    {
      "inputs": [],
      "name": "stakingToken",
      "outputs": [
        {
          "internalType": "address",
          "name": "",
          "type": "address"
        }
      ],
      "stateMutability": "view",
      "type": "function"
    },
    {
      "inputs": [],
      "name": "startTimeSale",
      "outputs": [
        {
          "internalType": "uint256",
          "name": "",
          "type": "uint256"
        }
      ],
      "stateMutability": "view",
      "type": "function"
    },
    {
      "inputs": [],
      "name": "toggleWhiteListStatus",
      "outputs": [],
      "stateMutability": "nonpayable",
      "type": "function"
    },
    {
      "inputs": [],
      "name": "tokenCount",
      "outputs": [
        {
          "internalType": "uint256",
          "name": "",
          "type": "uint256"
        }
      ],
      "stateMutability": "view",
      "type": "function"
    },
    {
      "inputs": [
        {
          "internalType": "address",
          "name": "newOwner",
          "type": "address"
        }
      ],
      "name": "transferOwnership",
      "outputs": [],
      "stateMutability": "nonpayable",
      "type": "function"
    },
    {
      "inputs": [],
      "name": "unpause",
      "outputs": [],
      "stateMutability": "nonpayable",
      "type": "function"
    },
    {
      "inputs": [
        {
          "internalType": "uint256",
          "name": "amount",
          "type": "uint256"
        }
      ],
      "name": "unstake",
      "outputs": [],
      "stateMutability": "nonpayable",
      "type": "function"
    },
    {
      "inputs": [
        {
          "internalType": "address[]",
          "name": "users",
          "type": "address[]"
        }
      ],
      "name": "unstakeBatch",
      "outputs": [],
      "stateMutability": "nonpayable",
      "type": "function"
    },
    {
      "inputs": [
        {
          "internalType": "uint256",
          "name": "_duration",
          "type": "uint256"
        }
      ],
      "name": "updateLockDuration",
      "outputs": [],
      "stateMutability": "nonpayable",
      "type": "function"
    },
    {
      "inputs": [
        {
          "internalType": "uint256",
          "name": "_startTime",
          "type": "uint256"
        }
      ],
      "name": "updateSaleStartTime",
      "outputs": [],
      "stateMutability": "nonpayable",
      "type": "function"
    },
    {
      "inputs": [
        {
          "internalType": "uint256",
          "name": "baseAllocation_",
          "type": "uint256"
        }
      ],
      "name": "updatelevelsAllocation",
      "outputs": [],
      "stateMutability": "nonpayable",
      "type": "function"
    },
    {
      "inputs": [
        {
          "internalType": "address",
          "name": "user",
          "type": "address"
        }
      ],
      "name": "userAllocation",
      "outputs": [
        {
          "internalType": "uint256",
          "name": "",
          "type": "uint256"
        }
      ],
      "stateMutability": "view",
      "type": "function"
    },
    {
      "inputs": [],
      "name": "whilteListStatus",
      "outputs": [
        {
          "internalType": "bool",
          "name": "",
          "type": "bool"
        }
      ],
      "stateMutability": "view",
      "type": "function"
    },
    {
      "inputs": [],
      "name": "withdraw",
      "outputs": [],
      "stateMutability": "nonpayable",
      "type": "function"
    }
  ],
  "transactionHash": "0x046efa821c79ca510304755638f05763e83d0f305aed9d3c1f012fd32a6359ad",
  "args": [
    1642542154,
    "5670000000000000",
    "50000000000000000000000",
    604800,
    [
      "0x3Df593fBF718917582fF35E40C874f3B0d1E86c6"
    ],
    "0xe9e7CEA3DedcA5984780Bafc599bD69ADd087D56",
    "0x04ae5cb48B8f968ED821972c5480b5B850f55554",
    "0x3Df593fBF718917582fF35E40C874f3B0d1E86c6"
  ],
  "solcInputHash": "8fee552eeb3645a625586124a61bc15f",
  "bytecode": "0x60c06040526000805460ff1916905568022b1c8c1227a00000600381815568925e06eec972b0000060045569017b7883c069166000006005556902f6f10780d22cc000006006556007829055620000579190620004a7565b6008556003546200006a906006620004a7565b6009553480156200007a57600080fd5b506040516200270a3803806200270a8339810160408190526200009d9162000369565b6080869052600c889055600d805460ff19169055838388848885620000c2336200019a565b620000cd81620001f4565b506001600e556001600160a01b03821615801590620000eb57508015155b6200013d5760405162461bcd60e51b815260206004820152601b60248201527f5a65726f2076616c75657320617265206e6f7420616c6c6f776573000000000060448201526064015b60405180910390fd5b601080546001600160a01b0319166001600160a01b039390931692909217909155600f55825162000176906014906020860190620002cb565b5060135560601b6001600160601b03191660a05250620004e9975050505050505050565b600d80546001600160a01b03838116610100818102610100600160a81b031985161790945560405193909204169182907f8be0079c531659141344cd1fd0a4f28419497f9722a3daafe3b4186f6b6457e090600090a35050565b600d546001600160a01b03610100909104163314620002565760405162461bcd60e51b815260206004820181905260248201527f4f776e61626c653a2063616c6c6572206973206e6f7420746865206f776e6572604482015260640162000134565b6001600160a01b038116620002bd5760405162461bcd60e51b815260206004820152602660248201527f4f776e61626c653a206e6577206f776e657220697320746865207a65726f206160448201526564647265737360d01b606482015260840162000134565b620002c8816200019a565b50565b82805482825590600052602060002090810192821562000323579160200282015b828111156200032357825182546001600160a01b0319166001600160a01b03909116178255602090920191600190910190620002ec565b506200033192915062000335565b5090565b5b8082111562000331576000815560010162000336565b80516001600160a01b03811681146200036457600080fd5b919050565b600080600080600080600080610100898b03121562000386578384fd5b885160208a015160408b015160608c015160808d0151939b50919950975095506001600160401b0380821115620003bb578586fd5b818b0191508b601f830112620003cf578586fd5b815181811115620003e457620003e4620004d3565b8060051b604051601f19603f830116810181811085821117156200040c576200040c620004d3565b8060405250809350828152602081019350602085018f60208488010111156200043357898afd5b8995505b8386101562000461576200044b816200034c565b8552600195909501946020948501940162000437565b5080985050505050506200047860a08a016200034c565b92506200048860c08a016200034c565b91506200049860e08a016200034c565b90509295985092959890939650565b6000816000190483118215151615620004ce57634e487b7160e01b81526011600452602481fd5b500290565b634e487b7160e01b600052604160045260246000fd5b60805160a05160601c6121dc6200052e6000396000818161108b0152818161118d0152818161149f01526115fb0152600081816104150152610f1a01526121dc6000f3fe608060405234801561001057600080fd5b50600436106102115760003560e01c80638456cb5911610125578063c380d980116100ad578063db7a46051161007c578063db7a460514610439578063e14ca3531461044e578063f2fde38b14610456578063f4a0a52814610469578063fa4d2c671461047c57600080fd5b8063c380d980146103ed578063c4bfce18146103f8578063d477edf414610400578063d5abeb011461041357600080fd5b80639f181b5e116100f45780639f181b5e146103a1578063a0378aec146103a9578063b6b55f25146103bc578063bc3377d9146103cf578063beafca65146103da57600080fd5b80638456cb59146103685780638da5cb5b146103705780638da7878c146103865780639d1c0e4a1461038e57600080fd5b80634268121e116101a85780636817c76c116101775780636817c76c1461030d5780636f9170f614610315578063715018a61461032857806372f702f314610330578063775b9c131461035557600080fd5b80634268121e146102bf57806349bb330f146102d25780635c975abb146102ee57806364954df81461030557600080fd5b80632e17de78116101e45780632e17de78146102735780633ccfd60b146102865780633e99c1e41461028e5780633f4ba83a146102b757600080fd5b806304554443146102165780631249c58b1461022d5780631a0cb3a714610237578063295e4edf14610260575b600080fd5b600f545b6040519081526020015b60405180910390f35b610235610487565b005b61021a610245366004611f15565b6001600160a01b03166000908152600a602052604090205490565b61023561026e36600461203f565b61088e565b61023561028136600461203f565b610919565b6102356109b3565b61021a61029c366004611f15565b6001600160a01b031660009081526011602052604090205490565b6102356109ed565b6102356102cd366004611f2f565b610a25565b6004546007545b60408051928352602083019190915201610224565b600d5460ff165b6040519015158152602001610224565b610235610a7c565b60135461021a565b6102f5610323366004611f15565b610ac3565b610235610ad6565b6010546001600160a01b03165b6040516001600160a01b039091168152602001610224565b610235610363366004611f58565b610b10565b610235610b49565b600d5461010090046001600160a01b031661033d565b600c5461021a565b6102f561039c366004611f15565b610b81565b600b5461021a565b6102356103b7366004611f58565b610bb3565b6102356103ca36600461203f565b610d01565b6005546008546102d9565b6102356103e836600461203f565b610da3565b6006546009546102d9565b60035461021a565b61023561040e36600461203f565b610e25565b7f000000000000000000000000000000000000000000000000000000000000000061021a565b610441610ea7565b604051610224919061206f565b61021a610f09565b610235610464366004611f15565b610f43565b61023561047736600461203f565b610fe1565b60005460ff166102f5565b600d5460ff16156104d25760405162461bcd60e51b815260206004820152601060248201526f14185d5cd8589b194e881c185d5cd95960821b60448201526064015b60405180910390fd5b42600c54111580156104e55750600c5415155b6105315760405162461bcd60e51b815260206004820152601660248201527f53616c6520646964206e6f74207374617274207965740000000000000000000060448201526064016104c9565b60005460ff16156105915761054533610ac3565b6105915760405162461bcd60e51b815260206004820152601460248201527f4d757374206265207768697465206c697374656400000000000000000000000060448201526064016104c9565b600061059c3361029c565b9050600081116105f85760405162461bcd60e51b815260206004820152602160248201527f4e6f2050617274696369706174696f6e2077697468207a65726f207374616b656044820152607360f81b60648201526084016104c9565b600061060333611063565b905061060e60135490565b81101561065d5760405162461bcd60e51b815260206004820152601860248201527f496e73756666696369656e742070726963652076616c7565000000000000000060448201526064016104c9565b336000908152600a60205260408120546106789083906120f1565b9050600061068560135490565b61069784670de0b6b3a7640000612129565b6106a19190612109565b905060045484116106f8576007548211156106f35760405162461bcd60e51b8152602060048201526012602482015271185b1b1bd8d85d1a5bdb88195e18d959195960721b60448201526064016104c9565b61078f565b6005548411610748576008548211156106f35760405162461bcd60e51b8152602060048201526012602482015271185b1b1bd8d85d1a5bdb88195e18d959195960721b60448201526064016104c9565b60095482111561078f5760405162461bcd60e51b8152602060048201526012602482015271185b1b1bd8d85d1a5bdb88195e18d959195960721b60448201526064016104c9565b610797610f09565b8111156107e65760405162461bcd60e51b815260206004820152601d60248201527f496e73756666696369656e7420636f6e74726163742062616c616e636500000060448201526064016104c9565b6107f03384611107565b61082d5760405162461bcd60e51b815260206004820152600e60248201526d14185e5b595b9d0819985a5b195960921b60448201526064016104c9565b61083681611215565b50336000818152600a602090815260409182902085905581519283528201839052818101859052517f430da7b4ea1a68abe9b6f9b621aa90a53090bb079c516d1bf6402c51a48b800b9181900360600190a150505050565b600d546001600160a01b036101009091041633146108be5760405162461bcd60e51b81526004016104c9906120bc565b42600c5411806108ce5750600c54155b61090d5760405162461bcd60e51b815260206004820152601060248201526f14d85b19481a185cc81cdd185c9d195960821b60448201526064016104c9565b610916816112a1565b50565b600d5460ff161561095f5760405162461bcd60e51b815260206004820152601060248201526f14185d5cd8589b194e881c185d5cd95960821b60448201526064016104c9565b61096833610b81565b6109a95760405162461bcd60e51b815260206004820152601260248201527146756e64206973206c6f636b6564206e6f7760701b60448201526064016104c9565b61091633826112f5565b600d546001600160a01b036101009091041633146109e35760405162461bcd60e51b81526004016104c9906120bc565b6109eb61142b565b565b600d546001600160a01b03610100909104163314610a1d5760405162461bcd60e51b81526004016104c9906120bc565b6109eb61173c565b600d5460ff16610a6e5760405162461bcd60e51b815260206004820152601460248201527314185d5cd8589b194e881b9bdd081c185d5cd95960621b60448201526064016104c9565b610a7882826112f5565b5050565b600d546001600160a01b03610100909104163314610aac5760405162461bcd60e51b81526004016104c9906120bc565b6109eb6000805460ff19811660ff90911615179055565b6000610ad06001836117cf565b92915050565b600d546001600160a01b03610100909104163314610b065760405162461bcd60e51b81526004016104c9906120bc565b6109eb60006117f4565b600d546001600160a01b03610100909104163314610b405760405162461bcd60e51b81526004016104c9906120bc565b6109168161185b565b600d546001600160a01b03610100909104163314610b795760405162461bcd60e51b81526004016104c9906120bc565b6109eb611a46565b600f546001600160a01b03821660009081526012602052604081205490914291610bab91906120f1565b111592915050565b600d546001600160a01b03610100909104163314610be35760405162461bcd60e51b81526004016104c9906120bc565b60005b8151811015610a785760006001600160a01b0316828281518110610c1a57634e487b7160e01b600052603260045260246000fd5b60200260200101516001600160a01b03161415610c795760405162461bcd60e51b815260206004820152601b60248201527f5a65726f2041646472657373206973206e6f7420616c6c6f776564000000000060448201526064016104c9565b610cef828281518110610c9c57634e487b7160e01b600052603260045260246000fd5b6020026020010151610cea848481518110610cc757634e487b7160e01b600052603260045260246000fd5b60200260200101516001600160a01b031660009081526011602052604090205490565b6112f5565b80610cf98161215f565b915050610be6565b600d5460ff1615610d475760405162461bcd60e51b815260206004820152601060248201526f14185d5cd8589b194e881c185d5cd95960821b60448201526064016104c9565b600454811015610d995760405162461bcd60e51b815260206004820152601a60248201527f416d6f756e74206973206c65737320746865206d696e756d756d00000000000060448201526064016104c9565b6109163382611ac1565b600d546001600160a01b03610100909104163314610dd35760405162461bcd60e51b81526004016104c9906120bc565b600d5460ff16610e1c5760405162461bcd60e51b815260206004820152601460248201527314185d5cd8589b194e881b9bdd081c185d5cd95960621b60448201526064016104c9565b61091681611c96565b600d546001600160a01b03610100909104163314610e555760405162461bcd60e51b81526004016104c9906120bc565b600d5460ff16610e9e5760405162461bcd60e51b815260206004820152601460248201527314185d5cd8589b194e881b9bdd081c185d5cd95960621b60448201526064016104c9565b61091681611ce8565b60606014805480602002602001604051908101604052809291908181526020018280548015610eff57602002820191906000526020600020905b81546001600160a01b03168152600190910190602001808311610ee1575b5050505050905090565b6000610f14600b5490565b610f3e907f0000000000000000000000000000000000000000000000000000000000000000612148565b905090565b600d546001600160a01b03610100909104163314610f735760405162461bcd60e51b81526004016104c9906120bc565b6001600160a01b038116610fd85760405162461bcd60e51b815260206004820152602660248201527f4f776e61626c653a206e6577206f776e657220697320746865207a65726f206160448201526564647265737360d01b60648201526084016104c9565b610916816117f4565b600d546001600160a01b036101009091041633146110115760405162461bcd60e51b81526004016104c9906120bc565b600d5460ff1661105a5760405162461bcd60e51b815260206004820152601460248201527314185d5cd8589b194e881b9bdd081c185d5cd95960621b60448201526064016104c9565b61091681611d80565b604051636eb1769f60e11b81526001600160a01b0382811660048301523060248301526000917f00000000000000000000000000000000000000000000000000000000000000009091169063dd62ed3e9060440160206040518083038186803b1580156110cf57600080fd5b505afa1580156110e3573d6000803e3d6000fd5b505050506040513d601f19601f82011682018060405250810190610ad09190612057565b60006002600e54141561115c5760405162461bcd60e51b815260206004820152601f60248201527f5265656e7472616e637947756172643a207265656e7472616e742063616c6c0060448201526064016104c9565b6002600e556040516323b872dd60e01b81526001600160a01b038481166004830152306024830152604482018490527f000000000000000000000000000000000000000000000000000000000000000016906323b872dd90606401602060405180830381600087803b1580156111d157600080fd5b505af11580156111e5573d6000803e3d6000fd5b505050506040513d601f19601f82011682018060405250810190611209919061201f565b6001600e559392505050565b60008180611221610f09565b10156112805760405162461bcd60e51b815260206004820152602860248201527f526571756573746564206e756d626572206f6620746f6b656e73206e6f7420616044820152677661696c61626c6560c01b60648201526084016104c9565b82600b600082825461129291906120f1565b9091555050600b549392505050565b4281116112f05760405162461bcd60e51b815260206004820152601560248201527f43616e206e6f74207365742074696d65206261636b000000000000000000000060448201526064016104c9565b600c55565b6002600e5414156113485760405162461bcd60e51b815260206004820152601f60248201527f5265656e7472616e637947756172643a207265656e7472616e742063616c6c0060448201526064016104c9565b6002600e556001600160a01b0382166000908152601160205260409020548111156113a65760405162461bcd60e51b815260206004820152600e60248201526d125b9d985b1a5908185b5bdd5b9d60921b60448201526064016104c9565b6001600160a01b038216600090815260116020526040812080548392906113ce908490612148565b909155506113de90508282611e05565b50816001600160a01b03167f21901fa892c430ea8bd38b9390225ac8e67eac75ee10ffba16feefc539a288f98260405161141a91815260200190565b60405180910390a250506001600e55565b6002600e54141561147e5760405162461bcd60e51b815260206004820152601f60248201527f5265656e7472616e637947756172643a207265656e7472616e742063616c6c0060448201526064016104c9565b6002600e556014546040516370a0823160e01b8152306004820152600091907f00000000000000000000000000000000000000000000000000000000000000006001600160a01b0316906370a082319060240160206040518083038186803b1580156114e957600080fd5b505afa1580156114fd573d6000803e3d6000fd5b505050506040513d601f19601f820116820180604052508101906115219190612057565b61152b9190612109565b90506000811161157d5760405162461bcd60e51b815260206004820152601760248201527f43616e27742073706c6974207a65726f2073686172657300000000000000000060448201526064016104c9565b60005b601454811015611733577f7084f5476618d8e60b11ef0d7d3f06914655adb8793e28ff7f018d4c76d505d5601482815481106115cc57634e487b7160e01b600052603260045260246000fd5b60009182526020918290200154604080516001600160a01b0390921682529181018590520160405180910390a17f00000000000000000000000000000000000000000000000000000000000000006001600160a01b031663a9059cbb6014838154811061164957634e487b7160e01b600052603260045260246000fd5b60009182526020909120015460405160e083901b6001600160e01b03191681526001600160a01b03909116600482015260248101859052604401602060405180830381600087803b15801561169d57600080fd5b505af11580156116b1573d6000803e3d6000fd5b505050506040513d601f19601f820116820180604052508101906116d5919061201f565b6117215760405162461bcd60e51b815260206004820152601760248201527f436f756c646e2774207472616e7366657220746f6b656e00000000000000000060448201526064016104c9565b8061172b8161215f565b915050611580565b50506001600e55565b600d5460ff166117855760405162461bcd60e51b815260206004820152601460248201527314185d5cd8589b194e881b9bdd081c185d5cd95960621b60448201526064016104c9565b600d805460ff191690557f5db9ee0a495bf2e6ff9c91a7834c1ba4fdd244a5e8aa4e537bd38aeae4b073aa335b6040516001600160a01b03909116815260200160405180910390a1565b6001600160a01b038116600090815260018301602052604081205415155b9392505050565b600d80546001600160a01b0383811661010081810274ffffffffffffffffffffffffffffffffffffffff001985161790945560405193909204169182907f8be0079c531659141344cd1fd0a4f28419497f9722a3daafe3b4186f6b6457e090600090a35050565b60005b8151811015610a785760006001600160a01b031682828151811061189257634e487b7160e01b600052603260045260246000fd5b60200260200101516001600160a01b031614156118f15760405162461bcd60e51b815260206004820152601c60248201527f656d7074792061646472657373206973206e6f7420616c6c6f7765640000000060448201526064016104c9565b61192c82828151811061191457634e487b7160e01b600052603260045260246000fd5b602002602001015160016117cf90919063ffffffff16565b156119835760405162461bcd60e51b815260206004820152602160248201527f6475706c6963617465642061646472657373206973206e6f7420616c6c6f77656044820152601960fa1b60648201526084016104c9565b6119be8282815181106119a657634e487b7160e01b600052603260045260246000fd5b60200260200101516001611e8c90919063ffffffff16565b6119c757600080fd5b7f37bdaf50464e57bc2ca69f36ace378196f59c54486a220a7051208cb4e249da0828281518110611a0857634e487b7160e01b600052603260045260246000fd5b6020026020010151604051611a2c91906001600160a01b0391909116815260200190565b60405180910390a180611a3e8161215f565b91505061185e565b600d5460ff1615611a8c5760405162461bcd60e51b815260206004820152601060248201526f14185d5cd8589b194e881c185d5cd95960821b60448201526064016104c9565b600d805460ff191660011790557f62e78cea01bee320cd4e420270b5ea74000d11b0c9f74754ebdbfc544b05a2586117b23390565b601054604051636eb1769f60e11b81526001600160a01b0384811660048301523060248301528392169063dd62ed3e9060440160206040518083038186803b158015611b0c57600080fd5b505afa158015611b20573d6000803e3d6000fd5b505050506040513d601f19601f82011682018060405250810190611b449190612057565b1015611b835760405162461bcd60e51b815260206004820152600e60248201526d125b9d985b1a5908185b5bdd5b9d60921b60448201526064016104c9565b6010546040516323b872dd60e01b81526001600160a01b03848116600483015230602483015260448201849052909116906323b872dd90606401602060405180830381600087803b158015611bd757600080fd5b505af1158015611beb573d6000803e3d6000fd5b505050506040513d601f19601f82011682018060405250810190611c0f919061201f565b506001600160a01b03821660009081526011602052604081208054839290611c389084906120f1565b90915550506001600160a01b03821660008181526012602052604090819020429055517fd241e73300212f6df233a8e6d3146b88a9d4964e06621d54b5ff6afeba7b1b8890611c8a9084815260200190565b60405180910390a25050565b80611ce35760405162461bcd60e51b815260206004820152601a60248201527f5a65726f2076616c7565206973206e6f7420616363657074656400000000000060448201526064016104c9565b600355565b60008111611d445760405162461bcd60e51b8152602060048201526024808201527f4c6f636b2074696d65206d757374206e6f74206265206c657373207468616e206044820152637a65726f60e01b60648201526084016104c9565b600f8190556040518181527f2416e279d018f03f6e6e190f55a4363348eca1c39db39c5e2019249d76142323906020015b60405180910390a150565b60008111611dd05760405162461bcd60e51b815260206004820152601960248201527f5a65726f2076616c7565206973206e6f7420616c6c6f7765640000000000000060448201526064016104c9565b60138190556040518181527f0f6e30cbea7cb67e47bd9d9c28efec570b560826aef4cf586a3b52a2e45396d190602001611d75565b60105460405163a9059cbb60e01b81526001600160a01b03848116600483015260248201849052600092169063a9059cbb90604401602060405180830381600087803b158015611e5457600080fd5b505af1158015611e68573d6000803e3d6000fd5b505050506040513d601f19601f820116820180604052508101906117ed919061201f565b60006117ed836001600160a01b0384166000611ebb838360009081526001919091016020526040902054151590565b611ef157508154600181810184556000848152602080822090930184905584548482528286019093526040902091909155610ad0565b506000610ad0565b80356001600160a01b0381168114611f1057600080fd5b919050565b600060208284031215611f26578081fd5b6117ed82611ef9565b60008060408385031215611f41578081fd5b611f4a83611ef9565b946020939093013593505050565b60006020808385031215611f6a578182fd5b823567ffffffffffffffff80821115611f81578384fd5b818501915085601f830112611f94578384fd5b813581811115611fa657611fa6612190565b8060051b604051601f19603f83011681018181108582111715611fcb57611fcb612190565b604052828152858101935084860182860187018a1015611fe9578788fd5b8795505b8386101561201257611ffe81611ef9565b855260019590950194938601938601611fed565b5098975050505050505050565b600060208284031215612030578081fd5b815180151581146117ed578182fd5b600060208284031215612050578081fd5b5035919050565b600060208284031215612068578081fd5b5051919050565b6020808252825182820181905260009190848201906040850190845b818110156120b05783516001600160a01b03168352928401929184019160010161208b565b50909695505050505050565b6020808252818101527f4f776e61626c653a2063616c6c6572206973206e6f7420746865206f776e6572604082015260600190565b600082198211156121045761210461217a565b500190565b60008261212457634e487b7160e01b81526012600452602481fd5b500490565b60008160001904831182151516156121435761214361217a565b500290565b60008282101561215a5761215a61217a565b500390565b60006000198214156121735761217361217a565b5060010190565b634e487b7160e01b600052601160045260246000fd5b634e487b7160e01b600052604160045260246000fdfea2646970667358221220fcb1d3cdb320e379000593fa6465459601f90cefa040cc57ca68ed7fc43ab0bc64736f6c63430008040033",
  "devdoc": {
    "kind": "dev",
    "methods": {
      "availableTokenCount()": {
        "details": "Check whether tokens are still available",
        "returns": {
          "_0": "the available token count"
        }
      },
      "maxSupply()": {
        "details": "Get the max Supply",
        "returns": {
          "_0": "the maximum token count"
        }
      },
      "mint()": {
        "details": "called only when sale is startedcalled only when not paused`allowance` can't zeromust not xceed the cap emit Transfer"
      },
      "owner()": {
        "details": "Returns the address of the current owner."
      },
      "pause()": {
        "details": "Pauses all token transfers. See {ERC721Pausable} and {Pausable-_pause}. Requirements: - the caller must have the `PAUSER_ROLE`."
      },
      "paused()": {
        "details": "Returns true if the contract is paused, and false otherwise."
      },
      "renounceOwnership()": {
        "details": "Leaves the contract without owner. It will not be possible to call `onlyOwner` functions anymore. Can only be called by the current owner. NOTE: Renouncing ownership will leave the contract without an owner, thereby removing any functionality that is only available to the owner."
      },
      "tokenCount()": {
        "details": "Get the current token count",
        "returns": {
          "_0": "the created token count"
        }
      },
      "transferOwnership(address)": {
        "details": "Transfers ownership of the contract to a new account (`newOwner`). Can only be called by the current owner."
      },
      "unpause()": {
        "details": "Unpauses all token transfers. See {ERC721Pausable} and {Pausable-_unpause}. Requirements: - the caller must have the `PAUSER_ROLE`."
      },
      "updateSaleStartTime(uint256)": {
        "details": "`__startTimeURI` must be more than the current time",
        "params": {
          "_startTime": "new _startTime"
        }
      },
      "withdraw()": {
        "details": "Withdraw accumulated balance for `wallets`"
      }
    },
    "version": 1
  },
  "userdoc": {
    "kind": "user",
    "methods": {
      "mint()": {
        "notice": "caller should pay the required price"
      },
      "updateSaleStartTime(uint256)": {
        "notice": "Only owner can call it"
      }
    },
    "version": 1
  },
  "storageLayout": {
    "storage": [
      {
        "astId": 6662,
        "contract": "contracts/AirdropedStartfiIDOWithStaking.sol:AirdropedStartfiIDOWithStaking",
        "label": "_whiteListEnabled",
        "offset": 0,
        "slot": "0",
        "type": "t_bool"
      },
      {
        "astId": 6665,
        "contract": "contracts/AirdropedStartfiIDOWithStaking.sol:AirdropedStartfiIDOWithStaking",
        "label": "_whiteList",
        "offset": 0,
        "slot": "1",
        "type": "t_struct(AddressSet)2986_storage"
      },
      {
        "astId": 5722,
        "contract": "contracts/AirdropedStartfiIDOWithStaking.sol:AirdropedStartfiIDOWithStaking",
        "label": "_baseAllocation",
        "offset": 0,
        "slot": "3",
        "type": "t_uint256"
      },
      {
        "astId": 5727,
        "contract": "contracts/AirdropedStartfiIDOWithStaking.sol:AirdropedStartfiIDOWithStaking",
        "label": "_level1",
        "offset": 0,
        "slot": "4",
        "type": "t_uint256"
      },
      {
        "astId": 5732,
        "contract": "contracts/AirdropedStartfiIDOWithStaking.sol:AirdropedStartfiIDOWithStaking",
        "label": "_level2",
        "offset": 0,
        "slot": "5",
        "type": "t_uint256"
      },
      {
        "astId": 5737,
        "contract": "contracts/AirdropedStartfiIDOWithStaking.sol:AirdropedStartfiIDOWithStaking",
        "label": "_level3",
        "offset": 0,
        "slot": "6",
        "type": "t_uint256"
      },
      {
        "astId": 5740,
        "contract": "contracts/AirdropedStartfiIDOWithStaking.sol:AirdropedStartfiIDOWithStaking",
        "label": "_level1Max",
        "offset": 0,
        "slot": "7",
        "type": "t_uint256"
      },
      {
        "astId": 5745,
        "contract": "contracts/AirdropedStartfiIDOWithStaking.sol:AirdropedStartfiIDOWithStaking",
        "label": "_level2Max",
        "offset": 0,
        "slot": "8",
        "type": "t_uint256"
      },
      {
        "astId": 5750,
        "contract": "contracts/AirdropedStartfiIDOWithStaking.sol:AirdropedStartfiIDOWithStaking",
        "label": "_level3Max",
        "offset": 0,
        "slot": "9",
        "type": "t_uint256"
      },
      {
        "astId": 5754,
        "contract": "contracts/AirdropedStartfiIDOWithStaking.sol:AirdropedStartfiIDOWithStaking",
        "label": "_userAllocation",
        "offset": 0,
        "slot": "10",
        "type": "t_mapping(t_address,t_uint256)"
      },
      {
        "astId": 5974,
        "contract": "contracts/AirdropedStartfiIDOWithStaking.sol:AirdropedStartfiIDOWithStaking",
        "label": "_tokenCount",
        "offset": 0,
        "slot": "11",
        "type": "t_uint256"
      },
      {
        "astId": 6383,
        "contract": "contracts/AirdropedStartfiIDOWithStaking.sol:AirdropedStartfiIDOWithStaking",
        "label": "_startTimeSale",
        "offset": 0,
        "slot": "12",
        "type": "t_uint256"
      },
      {
        "astId": 708,
        "contract": "contracts/AirdropedStartfiIDOWithStaking.sol:AirdropedStartfiIDOWithStaking",
        "label": "_paused",
        "offset": 0,
        "slot": "13",
        "type": "t_bool"
      },
      {
        "astId": 591,
        "contract": "contracts/AirdropedStartfiIDOWithStaking.sol:AirdropedStartfiIDOWithStaking",
        "label": "_owner",
        "offset": 1,
        "slot": "13",
        "type": "t_address"
      },
      {
        "astId": 793,
        "contract": "contracts/AirdropedStartfiIDOWithStaking.sol:AirdropedStartfiIDOWithStaking",
        "label": "_status",
        "offset": 0,
        "slot": "14",
        "type": "t_uint256"
      },
      {
        "astId": 6148,
        "contract": "contracts/AirdropedStartfiIDOWithStaking.sol:AirdropedStartfiIDOWithStaking",
        "label": "_lockDuration",
        "offset": 0,
        "slot": "15",
        "type": "t_uint256"
      },
      {
        "astId": 6150,
        "contract": "contracts/AirdropedStartfiIDOWithStaking.sol:AirdropedStartfiIDOWithStaking",
        "label": "_stakingToken",
        "offset": 0,
        "slot": "16",
        "type": "t_address"
      },
      {
        "astId": 6154,
        "contract": "contracts/AirdropedStartfiIDOWithStaking.sol:AirdropedStartfiIDOWithStaking",
        "label": "stakerTotalStakes",
        "offset": 0,
        "slot": "17",
        "type": "t_mapping(t_address,t_uint256)"
      },
      {
        "astId": 6158,
        "contract": "contracts/AirdropedStartfiIDOWithStaking.sol:AirdropedStartfiIDOWithStaking",
        "label": "stakerTimestamp",
        "offset": 0,
        "slot": "18",
        "type": "t_mapping(t_address,t_uint256)"
      },
      {
        "astId": 6462,
        "contract": "contracts/AirdropedStartfiIDOWithStaking.sol:AirdropedStartfiIDOWithStaking",
        "label": "_mintPrice",
        "offset": 0,
        "slot": "19",
        "type": "t_uint256"
      },
      {
        "astId": 6468,
        "contract": "contracts/AirdropedStartfiIDOWithStaking.sol:AirdropedStartfiIDOWithStaking",
        "label": "_wallets",
        "offset": 0,
        "slot": "20",
        "type": "t_array(t_address)dyn_storage"
      }
    ],
    "types": {
      "t_address": {
        "encoding": "inplace",
        "label": "address",
        "numberOfBytes": "20"
      },
      "t_array(t_address)dyn_storage": {
        "base": "t_address",
        "encoding": "dynamic_array",
        "label": "address[]",
        "numberOfBytes": "32"
      },
      "t_array(t_bytes32)dyn_storage": {
        "base": "t_bytes32",
        "encoding": "dynamic_array",
        "label": "bytes32[]",
        "numberOfBytes": "32"
      },
      "t_bool": {
        "encoding": "inplace",
        "label": "bool",
        "numberOfBytes": "1"
      },
      "t_bytes32": {
        "encoding": "inplace",
        "label": "bytes32",
        "numberOfBytes": "32"
      },
      "t_mapping(t_address,t_uint256)": {
        "encoding": "mapping",
        "key": "t_address",
        "label": "mapping(address => uint256)",
        "numberOfBytes": "32",
        "value": "t_uint256"
      },
      "t_mapping(t_bytes32,t_uint256)": {
        "encoding": "mapping",
        "key": "t_bytes32",
        "label": "mapping(bytes32 => uint256)",
        "numberOfBytes": "32",
        "value": "t_uint256"
      },
      "t_struct(AddressSet)2986_storage": {
        "encoding": "inplace",
        "label": "struct EnumerableSet.AddressSet",
        "members": [
          {
            "astId": 2985,
            "contract": "contracts/AirdropedStartfiIDOWithStaking.sol:AirdropedStartfiIDOWithStaking",
            "label": "_inner",
            "offset": 0,
            "slot": "0",
            "type": "t_struct(Set)2685_storage"
          }
        ],
        "numberOfBytes": "64"
      },
      "t_struct(Set)2685_storage": {
        "encoding": "inplace",
        "label": "struct EnumerableSet.Set",
        "members": [
          {
            "astId": 2680,
            "contract": "contracts/AirdropedStartfiIDOWithStaking.sol:AirdropedStartfiIDOWithStaking",
            "label": "_values",
            "offset": 0,
            "slot": "0",
            "type": "t_array(t_bytes32)dyn_storage"
          },
          {
            "astId": 2684,
            "contract": "contracts/AirdropedStartfiIDOWithStaking.sol:AirdropedStartfiIDOWithStaking",
            "label": "_indexes",
            "offset": 0,
            "slot": "1",
            "type": "t_mapping(t_bytes32,t_uint256)"
          }
        ],
        "numberOfBytes": "64"
      },
      "t_uint256": {
        "encoding": "inplace",
        "label": "uint256",
        "numberOfBytes": "32"
      }
    }
  }
}