{
  "address": "0xeB42C92B10dCa6c8bB08b578A7d7427A8A6E25A0",
  "abi": [
    {
      "inputs": [
        {
          "internalType": "uint256",
          "name": "startTimeSale_",
          "type": "uint256"
        },
        {
          "internalType": "uint256",
          "name": "mintPrice_",
          "type": "uint256"
        },
        {
          "internalType": "uint256",
          "name": "maxSupply_",
          "type": "uint256"
        },
        {
          "internalType": "uint256",
          "name": "lockDuration_",
          "type": "uint256"
        },
        {
          "internalType": "address[]",
          "name": "wallets_",
          "type": "address[]"
        },
        {
          "internalType": "address",
          "name": "_paymentToken",
          "type": "address"
        },
        {
          "internalType": "address",
          "name": "token_",
          "type": "address"
        },
        {
          "internalType": "address",
          "name": "owner_",
          "type": "address"
        }
      ],
      "stateMutability": "nonpayable",
      "type": "constructor"
    },
    {
      "anonymous": false,
      "inputs": [
        {
          "indexed": false,
          "internalType": "address",
          "name": "beneficiary",
          "type": "address"
        },
        {
          "indexed": false,
          "internalType": "uint256",
          "name": "amount",
          "type": "uint256"
        },
        {
          "indexed": false,
          "internalType": "uint256",
          "name": "price",
          "type": "uint256"
        }
      ],
      "name": "AirDropRequested",
      "type": "event"
    },
    {
      "anonymous": false,
      "inputs": [
        {
          "indexed": false,
          "internalType": "uint256",
          "name": "duration",
          "type": "uint256"
        }
      ],
      "name": "ChangeLockDuration",
      "type": "event"
    },
    {
      "anonymous": false,
      "inputs": [
        {
          "indexed": true,
          "internalType": "address",
          "name": "diposter",
          "type": "address"
        },
        {
          "indexed": false,
          "internalType": "uint256",
          "name": "amount",
          "type": "uint256"
        }
      ],
      "name": "DepositFunds",
      "type": "event"
    },
    {
      "anonymous": false,
      "inputs": [
        {
          "indexed": true,
          "internalType": "address",
          "name": "previousOwner",
          "type": "address"
        },
        {
          "indexed": true,
          "internalType": "address",
          "name": "newOwner",
          "type": "address"
        }
      ],
      "name": "OwnershipTransferred",
      "type": "event"
    },
    {
      "anonymous": false,
      "inputs": [
        {
          "indexed": false,
          "internalType": "address",
          "name": "account",
          "type": "address"
        }
      ],
      "name": "Paused",
      "type": "event"
    },
    {
      "anonymous": false,
      "inputs": [
        {
          "indexed": false,
          "internalType": "address",
          "name": "account",
          "type": "address"
        }
      ],
      "name": "Unpaused",
      "type": "event"
    },
    {
      "anonymous": false,
      "inputs": [
        {
          "indexed": false,
          "internalType": "uint256",
          "name": "newParice",
          "type": "uint256"
        }
      ],
      "name": "UpdateMintPrice",
      "type": "event"
    },
    {
      "anonymous": false,
      "inputs": [
        {
          "indexed": false,
          "internalType": "uint256",
          "name": "newPrice",
          "type": "uint256"
        },
        {
          "indexed": false,
          "internalType": "uint256",
          "name": "oldPrice",
          "type": "uint256"
        }
      ],
      "name": "WhiteListPriceUpdated",
      "type": "event"
    },
    {
      "anonymous": false,
      "inputs": [
        {
          "indexed": false,
          "internalType": "address",
          "name": "beneficiary",
          "type": "address"
        }
      ],
      "name": "WhiteListUpdated",
      "type": "event"
    },
    {
      "anonymous": false,
      "inputs": [
        {
          "indexed": true,
          "internalType": "address",
          "name": "diposter",
          "type": "address"
        },
        {
          "indexed": false,
          "internalType": "uint256",
          "name": "amount",
          "type": "uint256"
        }
      ],
      "name": "WithdrawFunds",
      "type": "event"
    },
    {
      "anonymous": false,
      "inputs": [
        {
          "indexed": false,
          "internalType": "address",
          "name": "payee",
          "type": "address"
        },
        {
          "indexed": false,
          "internalType": "uint256",
          "name": "amount",
          "type": "uint256"
        }
      ],
      "name": "Withdrawn",
      "type": "event"
    },
    {
      "anonymous": false,
      "inputs": [
        {
          "indexed": false,
          "internalType": "address",
          "name": "beneficiary",
          "type": "address"
        },
        {
          "indexed": false,
          "internalType": "uint256",
          "name": "amount",
          "type": "uint256"
        }
      ],
      "name": "stakerMigrated",
      "type": "event"
    },
    {
      "inputs": [],
      "name": "availableTokenCount",
      "outputs": [
        {
          "internalType": "uint256",
          "name": "",
          "type": "uint256"
        }
      ],
      "stateMutability": "view",
      "type": "function"
    },
    {
      "inputs": [],
      "name": "baseAllocation",
      "outputs": [
        {
          "internalType": "uint256",
          "name": "",
          "type": "uint256"
        }
      ],
      "stateMutability": "view",
      "type": "function"
    },
    {
      "inputs": [
        {
          "internalType": "uint256",
          "name": "amount",
          "type": "uint256"
        }
      ],
      "name": "deposit",
      "outputs": [],
      "stateMutability": "nonpayable",
      "type": "function"
    },
    {
      "inputs": [
        {
          "internalType": "uint256",
          "name": "amount",
          "type": "uint256"
        }
      ],
      "name": "emergencyUnstake",
      "outputs": [],
      "stateMutability": "nonpayable",
      "type": "function"
    },
    {
      "inputs": [
        {
          "internalType": "address",
          "name": "_owner",
          "type": "address"
        }
      ],
      "name": "getReserves",
      "outputs": [
        {
          "internalType": "uint256",
          "name": "",
          "type": "uint256"
        }
      ],
      "stateMutability": "view",
      "type": "function"
    },
    {
      "inputs": [],
      "name": "getWallets",
      "outputs": [
        {
          "internalType": "address[]",
          "name": "",
          "type": "address[]"
        }
      ],
      "stateMutability": "view",
      "type": "function"
    },
    {
      "inputs": [
        {
          "internalType": "address",
          "name": "",
          "type": "address"
        }
      ],
      "name": "isMigratedStaker",
      "outputs": [
        {
          "internalType": "bool",
          "name": "",
          "type": "bool"
        }
      ],
      "stateMutability": "view",
      "type": "function"
    },
    {
      "inputs": [
        {
          "internalType": "address",
          "name": "user",
          "type": "address"
        }
      ],
      "name": "isUnLockedFund",
      "outputs": [
        {
          "internalType": "bool",
          "name": "",
          "type": "bool"
        }
      ],
      "stateMutability": "view",
      "type": "function"
    },
    {
      "inputs": [
        {
          "internalType": "address",
          "name": "_beneficiary",
          "type": "address"
        }
      ],
      "name": "isWhiteListed",
      "outputs": [
        {
          "internalType": "bool",
          "name": "",
          "type": "bool"
        }
      ],
      "stateMutability": "view",
      "type": "function"
    },
    {
      "inputs": [],
      "name": "level1",
      "outputs": [
        {
          "internalType": "uint256",
          "name": "",
          "type": "uint256"
        },
        {
          "internalType": "uint256",
          "name": "",
          "type": "uint256"
        }
      ],
      "stateMutability": "view",
      "type": "function"
    },
    {
      "inputs": [],
      "name": "level2",
      "outputs": [
        {
          "internalType": "uint256",
          "name": "",
          "type": "uint256"
        },
        {
          "internalType": "uint256",
          "name": "",
          "type": "uint256"
        }
      ],
      "stateMutability": "view",
      "type": "function"
    },
    {
      "inputs": [],
      "name": "level3",
      "outputs": [
        {
          "internalType": "uint256",
          "name": "",
          "type": "uint256"
        },
        {
          "internalType": "uint256",
          "name": "",
          "type": "uint256"
        }
      ],
      "stateMutability": "view",
      "type": "function"
    },
    {
      "inputs": [],
      "name": "lockDuration",
      "outputs": [
        {
          "internalType": "uint256",
          "name": "",
          "type": "uint256"
        }
      ],
      "stateMutability": "view",
      "type": "function"
    },
    {
      "inputs": [],
      "name": "maxSupply",
      "outputs": [
        {
          "internalType": "uint256",
          "name": "",
          "type": "uint256"
        }
      ],
      "stateMutability": "view",
      "type": "function"
    },
    {
      "inputs": [
        {
          "internalType": "address",
          "name": "",
          "type": "address"
        }
      ],
      "name": "migrateStaker",
      "outputs": [
        {
          "internalType": "uint256",
          "name": "",
          "type": "uint256"
        }
      ],
      "stateMutability": "view",
      "type": "function"
    },
    {
      "inputs": [
        {
          "internalType": "address[]",
          "name": "users",
          "type": "address[]"
        },
        {
          "internalType": "uint256[]",
          "name": "amounts",
          "type": "uint256[]"
        }
      ],
      "name": "migrateStakers",
      "outputs": [],
      "stateMutability": "nonpayable",
      "type": "function"
    },
    {
      "inputs": [
        {
          "internalType": "uint256",
          "name": "_amount",
          "type": "uint256"
        }
      ],
      "name": "mint",
      "outputs": [],
      "stateMutability": "nonpayable",
      "type": "function"
    },
    {
      "inputs": [],
      "name": "mintPrice",
      "outputs": [
        {
          "internalType": "uint256",
          "name": "",
          "type": "uint256"
        }
      ],
      "stateMutability": "view",
      "type": "function"
    },
    {
      "inputs": [],
      "name": "owner",
      "outputs": [
        {
          "internalType": "address",
          "name": "",
          "type": "address"
        }
      ],
      "stateMutability": "view",
      "type": "function"
    },
    {
      "inputs": [],
      "name": "pause",
      "outputs": [],
      "stateMutability": "nonpayable",
      "type": "function"
    },
    {
      "inputs": [],
      "name": "paused",
      "outputs": [
        {
          "internalType": "bool",
          "name": "",
          "type": "bool"
        }
      ],
      "stateMutability": "view",
      "type": "function"
    },
    {
      "inputs": [],
      "name": "renounceOwnership",
      "outputs": [],
      "stateMutability": "nonpayable",
      "type": "function"
    },
    {
      "inputs": [
        {
          "internalType": "uint256",
          "name": "price_",
          "type": "uint256"
        }
      ],
      "name": "setMintPrice",
      "outputs": [],
      "stateMutability": "nonpayable",
      "type": "function"
    },
    {
      "inputs": [
        {
          "internalType": "address[]",
          "name": "_list",
          "type": "address[]"
        }
      ],
      "name": "setWhiteList",
      "outputs": [],
      "stateMutability": "nonpayable",
      "type": "function"
    },
    {
      "inputs": [],
      "name": "stakingToken",
      "outputs": [
        {
          "internalType": "address",
          "name": "",
          "type": "address"
        }
      ],
      "stateMutability": "view",
      "type": "function"
    },
    {
      "inputs": [],
      "name": "startTimeSale",
      "outputs": [
        {
          "internalType": "uint256",
          "name": "",
          "type": "uint256"
        }
      ],
      "stateMutability": "view",
      "type": "function"
    },
    {
      "inputs": [],
      "name": "toggleWhiteListStatus",
      "outputs": [],
      "stateMutability": "nonpayable",
      "type": "function"
    },
    {
      "inputs": [],
      "name": "tokenCount",
      "outputs": [
        {
          "internalType": "uint256",
          "name": "",
          "type": "uint256"
        }
      ],
      "stateMutability": "view",
      "type": "function"
    },
    {
      "inputs": [
        {
          "internalType": "address",
          "name": "newOwner",
          "type": "address"
        }
      ],
      "name": "transferOwnership",
      "outputs": [],
      "stateMutability": "nonpayable",
      "type": "function"
    },
    {
      "inputs": [],
      "name": "unpause",
      "outputs": [],
      "stateMutability": "nonpayable",
      "type": "function"
    },
    {
      "inputs": [
        {
          "internalType": "uint256",
          "name": "amount",
          "type": "uint256"
        }
      ],
      "name": "unstake",
      "outputs": [],
      "stateMutability": "nonpayable",
      "type": "function"
    },
    {
      "inputs": [
        {
          "internalType": "address[]",
          "name": "users",
          "type": "address[]"
        }
      ],
      "name": "unstakeBatch",
      "outputs": [],
      "stateMutability": "nonpayable",
      "type": "function"
    },
    {
      "inputs": [
        {
          "internalType": "uint256",
          "name": "_duration",
          "type": "uint256"
        }
      ],
      "name": "updateLockDuration",
      "outputs": [],
      "stateMutability": "nonpayable",
      "type": "function"
    },
    {
      "inputs": [
        {
          "internalType": "uint256",
          "name": "_startTime",
          "type": "uint256"
        }
      ],
      "name": "updateSaleStartTime",
      "outputs": [],
      "stateMutability": "nonpayable",
      "type": "function"
    },
    {
      "inputs": [
        {
          "internalType": "uint256",
          "name": "baseAllocation_",
          "type": "uint256"
        }
      ],
      "name": "updatelevelsAllocation",
      "outputs": [],
      "stateMutability": "nonpayable",
      "type": "function"
    },
    {
      "inputs": [
        {
          "internalType": "address",
          "name": "user",
          "type": "address"
        }
      ],
      "name": "userAllocation",
      "outputs": [
        {
          "internalType": "uint256",
          "name": "",
          "type": "uint256"
        }
      ],
      "stateMutability": "view",
      "type": "function"
    },
    {
      "inputs": [],
      "name": "whilteListStatus",
      "outputs": [
        {
          "internalType": "bool",
          "name": "",
          "type": "bool"
        }
      ],
      "stateMutability": "view",
      "type": "function"
    },
    {
      "inputs": [],
      "name": "withdraw",
      "outputs": [],
      "stateMutability": "nonpayable",
      "type": "function"
    }
  ],
  "transactionHash": "0x528d2502ae057b0d8d5bc5d699595733d96c59614041f1f93cd0bc90925e0191",
  "args": [
    1642542154,
    "5670000000000000",
    "50000000000000000000000",
    604800,
    [
      "0x3Df593fBF718917582fF35E40C874f3B0d1E86c6"
    ],
    "0xe9e7CEA3DedcA5984780Bafc599bD69ADd087D56",
    "0x04ae5cb48B8f968ED821972c5480b5B850f55554",
    "0x3Df593fBF718917582fF35E40C874f3B0d1E86c6"
  ],
  "solcInputHash": "20a6c5bf7030c9a28cb33ab008ee9d78",
  "bytecode": "0x60c06040526000805460ff191660011790556901786f5bc91c78800000600381815568925e06eec972b0000060045569017b7883c069166000006005556902f6f10780d22cc0000060065560078290556200005b9190620004ab565b6008556003546200006e906006620004ab565b6009553480156200007e57600080fd5b5060405162002d0e38038062002d0e833981016040819052620000a1916200036d565b6080869052600c889055600d805460ff19169055838388848885620000c6336200019e565b620000d181620001f8565b506001600e556001600160a01b03821615801590620000ef57508015155b620001415760405162461bcd60e51b815260206004820152601b60248201527f5a65726f2076616c75657320617265206e6f7420616c6c6f776573000000000060448201526064015b60405180910390fd5b601080546001600160a01b0319166001600160a01b039390931692909217909155600f5582516200017a906014906020860190620002cf565b5060135560601b6001600160601b03191660a05250620004ed975050505050505050565b600d80546001600160a01b03838116610100818102610100600160a81b031985161790945560405193909204169182907f8be0079c531659141344cd1fd0a4f28419497f9722a3daafe3b4186f6b6457e090600090a35050565b600d546001600160a01b036101009091041633146200025a5760405162461bcd60e51b815260206004820181905260248201527f4f776e61626c653a2063616c6c6572206973206e6f7420746865206f776e6572604482015260640162000138565b6001600160a01b038116620002c15760405162461bcd60e51b815260206004820152602660248201527f4f776e61626c653a206e6577206f776e657220697320746865207a65726f206160448201526564647265737360d01b606482015260840162000138565b620002cc816200019e565b50565b82805482825590600052602060002090810192821562000327579160200282015b828111156200032757825182546001600160a01b0319166001600160a01b03909116178255602090920191600190910190620002f0565b506200033592915062000339565b5090565b5b808211156200033557600081556001016200033a565b80516001600160a01b03811681146200036857600080fd5b919050565b600080600080600080600080610100898b0312156200038a578384fd5b885160208a015160408b015160608c015160808d0151939b50919950975095506001600160401b0380821115620003bf578586fd5b818b0191508b601f830112620003d3578586fd5b815181811115620003e857620003e8620004d7565b8060051b604051601f19603f83011681018181108582111715620004105762000410620004d7565b8060405250809350828152602081019350602085018f60208488010111156200043757898afd5b8995505b8386101562000465576200044f8162000350565b855260019590950194602094850194016200043b565b5080985050505050506200047c60a08a0162000350565b92506200048c60c08a0162000350565b91506200049c60e08a0162000350565b90509295985092959890939650565b6000816000190483118215151615620004d257634e487b7160e01b81526011600452602481fd5b500290565b634e487b7160e01b600052604160045260246000fd5b60805160a05160601c6127d56200053960003960008181611788015281816118e401528181611dd20152611ed401526000818161046101528181610b50015261114101526127d56000f3fe608060405234801561001057600080fd5b50600436106102325760003560e01c80638da7878c11610130578063c4bfce18116100b8578063ee19f29a1161007c578063ee19f29a146104a2578063f2fde38b146104c5578063f4a0a528146104d8578063fa4d2c67146104eb578063fe7dbca6146104f657600080fd5b8063c4bfce1814610444578063d477edf41461044c578063d5abeb011461045f578063db7a460514610485578063e14ca3531461049a57600080fd5b8063a0712d68116100ff578063a0712d68146103f5578063b6b55f2514610408578063bc3377d91461041b578063beafca6514610426578063c380d9801461043957600080fd5b80638da7878c146103bf5780639d1c0e4a146103c75780639f181b5e146103da578063a0378aec146103e257600080fd5b80635c975abb116101be578063715018a611610182578063715018a61461036157806372f702f314610369578063775b9c131461038e5780638456cb59146103a15780638da5cb5b146103a957600080fd5b80635c975abb1461030757806360f609e41461031e57806364954df81461033e5780636817c76c146103465780636f9170f61461034e57600080fd5b80632e17de78116102055780632e17de781461029f5780633ccfd60b146102b25780633e99c1e4146102ba5780633f4ba83a146102e357806349bb330f146102eb57600080fd5b8063012ce50114610237578063045544431461024c5780631a0cb3a714610263578063295e4edf1461028c575b600080fd5b61024a6102453660046125e3565b610509565b005b600f545b6040519081526020015b60405180910390f35b6102506102713660046124b2565b6001600160a01b03166000908152600a602052604090205490565b61024a61029a3660046125e3565b610564565b61024a6102ad3660046125e3565b6105ec565b61024a6107ad565b6102506102c83660046124b2565b6001600160a01b031660009081526011602052604090205490565b61024a6107e7565b6004546007545b6040805192835260208301919091520161025a565b600d5460ff165b604051901515815260200161025a565b61025061032c3660046124b2565b60156020526000908152604090205481565b61024a61081f565b601354610250565b61030e61035c3660046124b2565b610866565b61024a610879565b6010546001600160a01b03165b6040516001600160a01b03909116815260200161025a565b61024a61039c3660046124cc565b6108b3565b61024a6108ec565b600d5461010090046001600160a01b0316610376565b600c54610250565b61030e6103d53660046124b2565b610924565b600b54610250565b61024a6103f03660046124cc565b610956565b61024a6104033660046125e3565b610aa8565b61024a6104163660046125e3565b610f28565b6005546008546102f2565b61024a6104343660046125e3565b610fca565b6006546009546102f2565b600354610250565b61024a61045a3660046125e3565b61104c565b7f0000000000000000000000000000000000000000000000000000000000000000610250565b61048d6110ce565b60405161025a9190612613565b610250611130565b61030e6104b03660046124b2565b60166020526000908152604090205460ff1681565b61024a6104d33660046124b2565b61116a565b61024a6104e63660046125e3565b611208565b60005460ff1661030e565b61024a610504366004612507565b61128a565b600d5460ff166105575760405162461bcd60e51b815260206004820152601460248201527314185d5cd8589b194e881b9bdd081c185d5cd95960621b60448201526064015b60405180910390fd5b610561338261158a565b50565b600d546001600160a01b036101009091041633146105945760405162461bcd60e51b815260040161054e90612660565b42600c5411806105a45750600c54155b6105e35760405162461bcd60e51b815260206004820152601060248201526f14d85b19481a185cc81cdd185c9d195960821b604482015260640161054e565b610561816116c0565b600d5460ff16156106325760405162461bcd60e51b815260206004820152601060248201526f14185d5cd8589b194e881c185d5cd95960821b604482015260640161054e565b336000908152601560205260409020541580159061066057503360009081526016602052604090205460ff16155b15610763576040805160018082528183019092526000916020808301908036833701905050905033816000815181106106a957634e487b7160e01b600052603260045260246000fd5b6001600160a01b039092166020928302919091019091015260405163280de2bb60e21b81527365280fcb62f1b2bee93b08ce7f66ae899b2e48959063a0378aec906106f8908490600401612613565b600060405180830381600087803b15801561071257600080fd5b505af1158015610726573d6000803e3d6000fd5b505050506001601660006107373390565b6001600160a01b031681526020810191909152604001600020805460ff19169115159190911790555050565b61076c33610924565b6105575760405162461bcd60e51b815260206004820152601260248201527146756e64206973206c6f636b6564206e6f7760701b604482015260640161054e565b600d546001600160a01b036101009091041633146107dd5760405162461bcd60e51b815260040161054e90612660565b6107e5611714565b565b600d546001600160a01b036101009091041633146108175760405162461bcd60e51b815260040161054e90612660565b6107e5611a25565b600d546001600160a01b0361010090910416331461084f5760405162461bcd60e51b815260040161054e90612660565b6107e56000805460ff19811660ff90911615179055565b6000610873600183611ab8565b92915050565b600d546001600160a01b036101009091041633146108a95760405162461bcd60e51b815260040161054e90612660565b6107e56000611add565b600d546001600160a01b036101009091041633146108e35760405162461bcd60e51b815260040161054e90612660565b61056181611b44565b600d546001600160a01b0361010090910416331461091c5760405162461bcd60e51b815260040161054e90612660565b6107e5611d2f565b600f546001600160a01b0382166000908152601260205260408120549091429161094e91906126ea565b111592915050565b600d546001600160a01b036101009091041633146109865760405162461bcd60e51b815260040161054e90612660565b60005b8151811015610aa45760006001600160a01b03168282815181106109bd57634e487b7160e01b600052603260045260246000fd5b60200260200101516001600160a01b03161415610a1c5760405162461bcd60e51b815260206004820152601b60248201527f5a65726f2041646472657373206973206e6f7420616c6c6f7765640000000000604482015260640161054e565b610a92828281518110610a3f57634e487b7160e01b600052603260045260246000fd5b6020026020010151610a8d848481518110610a6a57634e487b7160e01b600052603260045260246000fd5b60200260200101516001600160a01b031660009081526011602052604090205490565b61158a565b80610a9c81612758565b915050610989565b5050565b600d5460ff1615610aee5760405162461bcd60e51b815260206004820152601060248201526f14185d5cd8589b194e881c185d5cd95960821b604482015260640161054e565b42600c5411158015610b015750600c5415155b610b4d5760405162461bcd60e51b815260206004820152601660248201527f53616c6520646964206e6f742073746172742079657400000000000000000000604482015260640161054e565b807f000000000000000000000000000000000000000000000000000000000000000081600b54610b7d91906126ea565b1115610bcb5760405162461bcd60e51b815260206004820152601b60248201527f50757263686173652065786365656473206d617820737570706c790000000000604482015260640161054e565b60005460ff1615610c2b57610bdf33610866565b610c2b5760405162461bcd60e51b815260206004820152601460248201527f4d757374206265207768697465206c6973746564000000000000000000000000604482015260640161054e565b60008211610c6c5760405162461bcd60e51b815260206004820152600e60248201526d1a5b9d985b1a5917d85b5bdd5b9d60921b604482015260640161054e565b336000908152600a60205260408120548190610c899085906126ea565b90506000610c96336102c8565b905060008111610cf25760405162461bcd60e51b815260206004820152602160248201527f4e6f2050617274696369706174696f6e2077697468207a65726f207374616b656044820152607360f81b606482015260840161054e565b6004548111610d2e576007548211610d0a5784610d27565b336000908152600a6020526040902054600754610d279190612741565b9250610d92565b6005548111610d63576008548211610d465784610d27565b336000908152600a6020526040902054600854610d279190612741565b6009548211610d725784610d8f565b336000908152600a6020526040902054600954610d8f9190612741565b92505b6000670de0b6b3a7640000610da660135490565b610db09086612722565b610dba9190612702565b9050610dc4611130565b841115610e135760405162461bcd60e51b815260206004820152601d60248201527f496e73756666696369656e7420636f6e74726163742062616c616e6365000000604482015260640161054e565b610e1c33611daa565b811115610e6b5760405162461bcd60e51b815260206004820152601860248201527f496e73756666696369656e742070726963652076616c75650000000000000000604482015260640161054e565b610e753382611e4e565b610eb25760405162461bcd60e51b815260206004820152600e60248201526d14185e5b595b9d0819985a5b195960921b604482015260640161054e565b610ebb84611f5c565b50336000908152600a602052604081208054869290610edb9084906126ea565b9091555050604080513381526020810186905280820183905290517f430da7b4ea1a68abe9b6f9b621aa90a53090bb079c516d1bf6402c51a48b800b9181900360600190a1505050505050565b600d5460ff1615610f6e5760405162461bcd60e51b815260206004820152601060248201526f14185d5cd8589b194e881c185d5cd95960821b604482015260640161054e565b600454811015610fc05760405162461bcd60e51b815260206004820152601a60248201527f416d6f756e74206973206c65737320746865206d696e756d756d000000000000604482015260640161054e565b6105613382611fe8565b600d546001600160a01b03610100909104163314610ffa5760405162461bcd60e51b815260040161054e90612660565b600d5460ff166110435760405162461bcd60e51b815260206004820152601460248201527314185d5cd8589b194e881b9bdd081c185d5cd95960621b604482015260640161054e565b610561816121bd565b600d546001600160a01b0361010090910416331461107c5760405162461bcd60e51b815260040161054e90612660565b600d5460ff166110c55760405162461bcd60e51b815260206004820152601460248201527314185d5cd8589b194e881b9bdd081c185d5cd95960621b604482015260640161054e565b6105618161220f565b6060601480548060200260200160405190810160405280929190818152602001828054801561112657602002820191906000526020600020905b81546001600160a01b03168152600190910190602001808311611108575b5050505050905090565b600061113b600b5490565b611165907f0000000000000000000000000000000000000000000000000000000000000000612741565b905090565b600d546001600160a01b0361010090910416331461119a5760405162461bcd60e51b815260040161054e90612660565b6001600160a01b0381166111ff5760405162461bcd60e51b815260206004820152602660248201527f4f776e61626c653a206e6577206f776e657220697320746865207a65726f206160448201526564647265737360d01b606482015260840161054e565b61056181611add565b600d546001600160a01b036101009091041633146112385760405162461bcd60e51b815260040161054e90612660565b600d5460ff166112815760405162461bcd60e51b815260206004820152601460248201527314185d5cd8589b194e881b9bdd081c185d5cd95960621b604482015260640161054e565b610561816122a7565b600d546001600160a01b036101009091041633146112ba5760405162461bcd60e51b815260040161054e90612660565b80518251146112c857600080fd5b60005b82518110156115855760006001600160a01b03168382815181106112ff57634e487b7160e01b600052603260045260246000fd5b60200260200101516001600160a01b0316141561135e5760405162461bcd60e51b815260206004820152601b60248201527f5a65726f2041646472657373206973206e6f7420616c6c6f7765640000000000604482015260640161054e565b81818151811061137e57634e487b7160e01b600052603260045260246000fd5b6020026020010151600014156113d65760405162461bcd60e51b815260206004820152601b60248201527f5a65726f2041646472657373206973206e6f7420616c6c6f7765640000000000604482015260640161054e565b8181815181106113f657634e487b7160e01b600052603260045260246000fd5b60200260200101516015600085848151811061142257634e487b7160e01b600052603260045260246000fd5b60200260200101516001600160a01b03166001600160a01b031681526020019081526020016000208190555081818151811061146e57634e487b7160e01b600052603260045260246000fd5b60200260200101516011600085848151811061149a57634e487b7160e01b600052603260045260246000fd5b60200260200101516001600160a01b03166001600160a01b0316815260200190815260200160002060008282546114d191906126ea565b925050819055507fb52bac850421b9939fa8ffee278ecba2501292f73b44bbd7bcf19e3e8f78ffa983828151811061151957634e487b7160e01b600052603260045260246000fd5b602002602001015183838151811061154157634e487b7160e01b600052603260045260246000fd5b602002602001015160405161156b9291906001600160a01b03929092168252602082015260400190565b60405180910390a18061157d81612758565b9150506112cb565b505050565b6002600e5414156115dd5760405162461bcd60e51b815260206004820152601f60248201527f5265656e7472616e637947756172643a207265656e7472616e742063616c6c00604482015260640161054e565b6002600e556001600160a01b03821660009081526011602052604090205481111561163b5760405162461bcd60e51b815260206004820152600e60248201526d125b9d985b1a5908185b5bdd5b9d60921b604482015260640161054e565b6001600160a01b03821660009081526011602052604081208054839290611663908490612741565b909155506116739050828261232c565b50816001600160a01b03167f21901fa892c430ea8bd38b9390225ac8e67eac75ee10ffba16feefc539a288f9826040516116af91815260200190565b60405180910390a250506001600e55565b42811161170f5760405162461bcd60e51b815260206004820152601560248201527f43616e206e6f74207365742074696d65206261636b0000000000000000000000604482015260640161054e565b600c55565b6002600e5414156117675760405162461bcd60e51b815260206004820152601f60248201527f5265656e7472616e637947756172643a207265656e7472616e742063616c6c00604482015260640161054e565b6002600e556014546040516370a0823160e01b8152306004820152600091907f00000000000000000000000000000000000000000000000000000000000000006001600160a01b0316906370a082319060240160206040518083038186803b1580156117d257600080fd5b505afa1580156117e6573d6000803e3d6000fd5b505050506040513d601f19601f8201168201806040525081019061180a91906125fb565b6118149190612702565b9050600081116118665760405162461bcd60e51b815260206004820152601760248201527f43616e27742073706c6974207a65726f20736861726573000000000000000000604482015260640161054e565b60005b601454811015611a1c577f7084f5476618d8e60b11ef0d7d3f06914655adb8793e28ff7f018d4c76d505d5601482815481106118b557634e487b7160e01b600052603260045260246000fd5b60009182526020918290200154604080516001600160a01b0390921682529181018590520160405180910390a17f00000000000000000000000000000000000000000000000000000000000000006001600160a01b031663a9059cbb6014838154811061193257634e487b7160e01b600052603260045260246000fd5b60009182526020909120015460405160e083901b6001600160e01b03191681526001600160a01b03909116600482015260248101859052604401602060405180830381600087803b15801561198657600080fd5b505af115801561199a573d6000803e3d6000fd5b505050506040513d601f19601f820116820180604052508101906119be91906125c3565b611a0a5760405162461bcd60e51b815260206004820152601760248201527f436f756c646e2774207472616e7366657220746f6b656e000000000000000000604482015260640161054e565b80611a1481612758565b915050611869565b50506001600e55565b600d5460ff16611a6e5760405162461bcd60e51b815260206004820152601460248201527314185d5cd8589b194e881b9bdd081c185d5cd95960621b604482015260640161054e565b600d805460ff191690557f5db9ee0a495bf2e6ff9c91a7834c1ba4fdd244a5e8aa4e537bd38aeae4b073aa335b6040516001600160a01b03909116815260200160405180910390a1565b6001600160a01b038116600090815260018301602052604081205415155b9392505050565b600d80546001600160a01b0383811661010081810274ffffffffffffffffffffffffffffffffffffffff001985161790945560405193909204169182907f8be0079c531659141344cd1fd0a4f28419497f9722a3daafe3b4186f6b6457e090600090a35050565b60005b8151811015610aa45760006001600160a01b0316828281518110611b7b57634e487b7160e01b600052603260045260246000fd5b60200260200101516001600160a01b03161415611bda5760405162461bcd60e51b815260206004820152601c60248201527f656d7074792061646472657373206973206e6f7420616c6c6f77656400000000604482015260640161054e565b611c15828281518110611bfd57634e487b7160e01b600052603260045260246000fd5b60200260200101516001611ab890919063ffffffff16565b15611c6c5760405162461bcd60e51b815260206004820152602160248201527f6475706c6963617465642061646472657373206973206e6f7420616c6c6f77656044820152601960fa1b606482015260840161054e565b611ca7828281518110611c8f57634e487b7160e01b600052603260045260246000fd5b602002602001015160016123b390919063ffffffff16565b611cb057600080fd5b7f37bdaf50464e57bc2ca69f36ace378196f59c54486a220a7051208cb4e249da0828281518110611cf157634e487b7160e01b600052603260045260246000fd5b6020026020010151604051611d1591906001600160a01b0391909116815260200190565b60405180910390a180611d2781612758565b915050611b47565b600d5460ff1615611d755760405162461bcd60e51b815260206004820152601060248201526f14185d5cd8589b194e881c185d5cd95960821b604482015260640161054e565b600d805460ff191660011790557f62e78cea01bee320cd4e420270b5ea74000d11b0c9f74754ebdbfc544b05a258611a9b3390565b604051636eb1769f60e11b81526001600160a01b0382811660048301523060248301526000917f00000000000000000000000000000000000000000000000000000000000000009091169063dd62ed3e9060440160206040518083038186803b158015611e1657600080fd5b505afa158015611e2a573d6000803e3d6000fd5b505050506040513d601f19601f8201168201806040525081019061087391906125fb565b60006002600e541415611ea35760405162461bcd60e51b815260206004820152601f60248201527f5265656e7472616e637947756172643a207265656e7472616e742063616c6c00604482015260640161054e565b6002600e556040516323b872dd60e01b81526001600160a01b038481166004830152306024830152604482018490527f000000000000000000000000000000000000000000000000000000000000000016906323b872dd90606401602060405180830381600087803b158015611f1857600080fd5b505af1158015611f2c573d6000803e3d6000fd5b505050506040513d601f19601f82011682018060405250810190611f5091906125c3565b6001600e559392505050565b60008180611f68611130565b1015611fc75760405162461bcd60e51b815260206004820152602860248201527f526571756573746564206e756d626572206f6620746f6b656e73206e6f7420616044820152677661696c61626c6560c01b606482015260840161054e565b82600b6000828254611fd991906126ea565b9091555050600b549392505050565b601054604051636eb1769f60e11b81526001600160a01b0384811660048301523060248301528392169063dd62ed3e9060440160206040518083038186803b15801561203357600080fd5b505afa158015612047573d6000803e3d6000fd5b505050506040513d601f19601f8201168201806040525081019061206b91906125fb565b10156120aa5760405162461bcd60e51b815260206004820152600e60248201526d125b9d985b1a5908185b5bdd5b9d60921b604482015260640161054e565b6010546040516323b872dd60e01b81526001600160a01b03848116600483015230602483015260448201849052909116906323b872dd90606401602060405180830381600087803b1580156120fe57600080fd5b505af1158015612112573d6000803e3d6000fd5b505050506040513d601f19601f8201168201806040525081019061213691906125c3565b506001600160a01b0382166000908152601160205260408120805483929061215f9084906126ea565b90915550506001600160a01b03821660008181526012602052604090819020429055517fd241e73300212f6df233a8e6d3146b88a9d4964e06621d54b5ff6afeba7b1b88906121b19084815260200190565b60405180910390a25050565b8061220a5760405162461bcd60e51b815260206004820152601a60248201527f5a65726f2076616c7565206973206e6f74206163636570746564000000000000604482015260640161054e565b600355565b6000811161226b5760405162461bcd60e51b8152602060048201526024808201527f4c6f636b2074696d65206d757374206e6f74206265206c657373207468616e206044820152637a65726f60e01b606482015260840161054e565b600f8190556040518181527f2416e279d018f03f6e6e190f55a4363348eca1c39db39c5e2019249d76142323906020015b60405180910390a150565b600081116122f75760405162461bcd60e51b815260206004820152601960248201527f5a65726f2076616c7565206973206e6f7420616c6c6f77656400000000000000604482015260640161054e565b60138190556040518181527f0f6e30cbea7cb67e47bd9d9c28efec570b560826aef4cf586a3b52a2e45396d19060200161229c565b60105460405163a9059cbb60e01b81526001600160a01b03848116600483015260248201849052600092169063a9059cbb90604401602060405180830381600087803b15801561237b57600080fd5b505af115801561238f573d6000803e3d6000fd5b505050506040513d601f19601f82011682018060405250810190611ad691906125c3565b6000611ad6836001600160a01b03841660006123e2838360009081526001919091016020526040902054151590565b61241857508154600181810184556000848152602080822090930184905584548482528286019093526040902091909155610873565b506000610873565b80356001600160a01b038116811461243757600080fd5b919050565b600082601f83011261244c578081fd5b8135602061246161245c836126c6565b612695565b80838252828201915082860187848660051b8901011115612480578586fd5b855b858110156124a55761249382612420565b84529284019290840190600101612482565b5090979650505050505050565b6000602082840312156124c3578081fd5b611ad682612420565b6000602082840312156124dd578081fd5b813567ffffffffffffffff8111156124f3578182fd5b6124ff8482850161243c565b949350505050565b60008060408385031215612519578081fd5b823567ffffffffffffffff80821115612530578283fd5b61253c8683870161243c565b9350602091508185013581811115612552578384fd5b85019050601f81018613612564578283fd5b803561257261245c826126c6565b80828252848201915084840189868560051b8701011115612591578687fd5b8694505b838510156125b3578035835260019490940193918501918501612595565b5080955050505050509250929050565b6000602082840312156125d4578081fd5b81518015158114611ad6578182fd5b6000602082840312156125f4578081fd5b5035919050565b60006020828403121561260c578081fd5b5051919050565b6020808252825182820181905260009190848201906040850190845b818110156126545783516001600160a01b03168352928401929184019160010161262f565b50909695505050505050565b6020808252818101527f4f776e61626c653a2063616c6c6572206973206e6f7420746865206f776e6572604082015260600190565b604051601f8201601f1916810167ffffffffffffffff811182821017156126be576126be612789565b604052919050565b600067ffffffffffffffff8211156126e0576126e0612789565b5060051b60200190565b600082198211156126fd576126fd612773565b500190565b60008261271d57634e487b7160e01b81526012600452602481fd5b500490565b600081600019048311821515161561273c5761273c612773565b500290565b60008282101561275357612753612773565b500390565b600060001982141561276c5761276c612773565b5060010190565b634e487b7160e01b600052601160045260246000fd5b634e487b7160e01b600052604160045260246000fdfea264697066735822122096ef81f11e64051860fb02b256ed56d0853b9803b721a3e33b5098d53399fb2e64736f6c63430008040033",
  "devdoc": {
    "kind": "dev",
    "methods": {
      "availableTokenCount()": {
        "details": "Check whether tokens are still available",
        "returns": {
          "_0": "the available token count"
        }
      },
      "maxSupply()": {
        "details": "Get the max Supply",
        "returns": {
          "_0": "the maximum token count"
        }
      },
      "mint(uint256)": {
        "details": "called only when sale is startedcalled only when not paused`_amount` can't zeromust not xceed the cap",
        "params": {
          "_amount": "number of token to be minted emit Transfer"
        }
      },
      "owner()": {
        "details": "Returns the address of the current owner."
      },
      "pause()": {
        "details": "Pauses all token transfers. See {ERC721Pausable} and {Pausable-_pause}. Requirements: - the caller must have the `PAUSER_ROLE`."
      },
      "paused()": {
        "details": "Returns true if the contract is paused, and false otherwise."
      },
      "renounceOwnership()": {
        "details": "Leaves the contract without owner. It will not be possible to call `onlyOwner` functions anymore. Can only be called by the current owner. NOTE: Renouncing ownership will leave the contract without an owner, thereby removing any functionality that is only available to the owner."
      },
      "tokenCount()": {
        "details": "Get the current token count",
        "returns": {
          "_0": "the created token count"
        }
      },
      "transferOwnership(address)": {
        "details": "Transfers ownership of the contract to a new account (`newOwner`). Can only be called by the current owner."
      },
      "unpause()": {
        "details": "Unpauses all token transfers. See {ERC721Pausable} and {Pausable-_unpause}. Requirements: - the caller must have the `PAUSER_ROLE`."
      },
      "updateSaleStartTime(uint256)": {
        "details": "`__startTimeURI` must be more than the current time",
        "params": {
          "_startTime": "new _startTime"
        }
      },
      "withdraw()": {
        "details": "Withdraw accumulated balance for `wallets`"
      }
    },
    "version": 1
  },
  "userdoc": {
    "kind": "user",
    "methods": {
      "mint(uint256)": {
        "notice": "caller should pay the required price"
      },
      "updateSaleStartTime(uint256)": {
        "notice": "Only owner can call it"
      }
    },
    "version": 1
  },
  "storageLayout": {
    "storage": [
      {
        "astId": 6267,
        "contract": "contracts/AirdropedStartfiIDOWithStaking.sol:AirdropedStartfiIDOWithStaking",
        "label": "_whiteListEnabled",
        "offset": 0,
        "slot": "0",
        "type": "t_bool"
      },
      {
        "astId": 6270,
        "contract": "contracts/AirdropedStartfiIDOWithStaking.sol:AirdropedStartfiIDOWithStaking",
        "label": "_whiteList",
        "offset": 0,
        "slot": "1",
        "type": "t_struct(AddressSet)2986_storage"
      },
      {
        "astId": 5327,
        "contract": "contracts/AirdropedStartfiIDOWithStaking.sol:AirdropedStartfiIDOWithStaking",
        "label": "_baseAllocation",
        "offset": 0,
        "slot": "3",
        "type": "t_uint256"
      },
      {
        "astId": 5332,
        "contract": "contracts/AirdropedStartfiIDOWithStaking.sol:AirdropedStartfiIDOWithStaking",
        "label": "_level1",
        "offset": 0,
        "slot": "4",
        "type": "t_uint256"
      },
      {
        "astId": 5337,
        "contract": "contracts/AirdropedStartfiIDOWithStaking.sol:AirdropedStartfiIDOWithStaking",
        "label": "_level2",
        "offset": 0,
        "slot": "5",
        "type": "t_uint256"
      },
      {
        "astId": 5342,
        "contract": "contracts/AirdropedStartfiIDOWithStaking.sol:AirdropedStartfiIDOWithStaking",
        "label": "_level3",
        "offset": 0,
        "slot": "6",
        "type": "t_uint256"
      },
      {
        "astId": 5345,
        "contract": "contracts/AirdropedStartfiIDOWithStaking.sol:AirdropedStartfiIDOWithStaking",
        "label": "_level1Max",
        "offset": 0,
        "slot": "7",
        "type": "t_uint256"
      },
      {
        "astId": 5350,
        "contract": "contracts/AirdropedStartfiIDOWithStaking.sol:AirdropedStartfiIDOWithStaking",
        "label": "_level2Max",
        "offset": 0,
        "slot": "8",
        "type": "t_uint256"
      },
      {
        "astId": 5355,
        "contract": "contracts/AirdropedStartfiIDOWithStaking.sol:AirdropedStartfiIDOWithStaking",
        "label": "_level3Max",
        "offset": 0,
        "slot": "9",
        "type": "t_uint256"
      },
      {
        "astId": 5359,
        "contract": "contracts/AirdropedStartfiIDOWithStaking.sol:AirdropedStartfiIDOWithStaking",
        "label": "_userAllocation",
        "offset": 0,
        "slot": "10",
        "type": "t_mapping(t_address,t_uint256)"
      },
      {
        "astId": 5579,
        "contract": "contracts/AirdropedStartfiIDOWithStaking.sol:AirdropedStartfiIDOWithStaking",
        "label": "_tokenCount",
        "offset": 0,
        "slot": "11",
        "type": "t_uint256"
      },
      {
        "astId": 5988,
        "contract": "contracts/AirdropedStartfiIDOWithStaking.sol:AirdropedStartfiIDOWithStaking",
        "label": "_startTimeSale",
        "offset": 0,
        "slot": "12",
        "type": "t_uint256"
      },
      {
        "astId": 708,
        "contract": "contracts/AirdropedStartfiIDOWithStaking.sol:AirdropedStartfiIDOWithStaking",
        "label": "_paused",
        "offset": 0,
        "slot": "13",
        "type": "t_bool"
      },
      {
        "astId": 591,
        "contract": "contracts/AirdropedStartfiIDOWithStaking.sol:AirdropedStartfiIDOWithStaking",
        "label": "_owner",
        "offset": 1,
        "slot": "13",
        "type": "t_address"
      },
      {
        "astId": 793,
        "contract": "contracts/AirdropedStartfiIDOWithStaking.sol:AirdropedStartfiIDOWithStaking",
        "label": "_status",
        "offset": 0,
        "slot": "14",
        "type": "t_uint256"
      },
      {
        "astId": 5753,
        "contract": "contracts/AirdropedStartfiIDOWithStaking.sol:AirdropedStartfiIDOWithStaking",
        "label": "_lockDuration",
        "offset": 0,
        "slot": "15",
        "type": "t_uint256"
      },
      {
        "astId": 5755,
        "contract": "contracts/AirdropedStartfiIDOWithStaking.sol:AirdropedStartfiIDOWithStaking",
        "label": "_stakingToken",
        "offset": 0,
        "slot": "16",
        "type": "t_address"
      },
      {
        "astId": 5759,
        "contract": "contracts/AirdropedStartfiIDOWithStaking.sol:AirdropedStartfiIDOWithStaking",
        "label": "stakerTotalStakes",
        "offset": 0,
        "slot": "17",
        "type": "t_mapping(t_address,t_uint256)"
      },
      {
        "astId": 5763,
        "contract": "contracts/AirdropedStartfiIDOWithStaking.sol:AirdropedStartfiIDOWithStaking",
        "label": "stakerTimestamp",
        "offset": 0,
        "slot": "18",
        "type": "t_mapping(t_address,t_uint256)"
      },
      {
        "astId": 6067,
        "contract": "contracts/AirdropedStartfiIDOWithStaking.sol:AirdropedStartfiIDOWithStaking",
        "label": "_mintPrice",
        "offset": 0,
        "slot": "19",
        "type": "t_uint256"
      },
      {
        "astId": 6073,
        "contract": "contracts/AirdropedStartfiIDOWithStaking.sol:AirdropedStartfiIDOWithStaking",
        "label": "_wallets",
        "offset": 0,
        "slot": "20",
        "type": "t_array(t_address)dyn_storage"
      },
      {
        "astId": 3679,
        "contract": "contracts/AirdropedStartfiIDOWithStaking.sol:AirdropedStartfiIDOWithStaking",
        "label": "migrateStaker",
        "offset": 0,
        "slot": "21",
        "type": "t_mapping(t_address,t_uint256)"
      },
      {
        "astId": 3683,
        "contract": "contracts/AirdropedStartfiIDOWithStaking.sol:AirdropedStartfiIDOWithStaking",
        "label": "isMigratedStaker",
        "offset": 0,
        "slot": "22",
        "type": "t_mapping(t_address,t_bool)"
      }
    ],
    "types": {
      "t_address": {
        "encoding": "inplace",
        "label": "address",
        "numberOfBytes": "20"
      },
      "t_array(t_address)dyn_storage": {
        "base": "t_address",
        "encoding": "dynamic_array",
        "label": "address[]",
        "numberOfBytes": "32"
      },
      "t_array(t_bytes32)dyn_storage": {
        "base": "t_bytes32",
        "encoding": "dynamic_array",
        "label": "bytes32[]",
        "numberOfBytes": "32"
      },
      "t_bool": {
        "encoding": "inplace",
        "label": "bool",
        "numberOfBytes": "1"
      },
      "t_bytes32": {
        "encoding": "inplace",
        "label": "bytes32",
        "numberOfBytes": "32"
      },
      "t_mapping(t_address,t_bool)": {
        "encoding": "mapping",
        "key": "t_address",
        "label": "mapping(address => bool)",
        "numberOfBytes": "32",
        "value": "t_bool"
      },
      "t_mapping(t_address,t_uint256)": {
        "encoding": "mapping",
        "key": "t_address",
        "label": "mapping(address => uint256)",
        "numberOfBytes": "32",
        "value": "t_uint256"
      },
      "t_mapping(t_bytes32,t_uint256)": {
        "encoding": "mapping",
        "key": "t_bytes32",
        "label": "mapping(bytes32 => uint256)",
        "numberOfBytes": "32",
        "value": "t_uint256"
      },
      "t_struct(AddressSet)2986_storage": {
        "encoding": "inplace",
        "label": "struct EnumerableSet.AddressSet",
        "members": [
          {
            "astId": 2985,
            "contract": "contracts/AirdropedStartfiIDOWithStaking.sol:AirdropedStartfiIDOWithStaking",
            "label": "_inner",
            "offset": 0,
            "slot": "0",
            "type": "t_struct(Set)2685_storage"
          }
        ],
        "numberOfBytes": "64"
      },
      "t_struct(Set)2685_storage": {
        "encoding": "inplace",
        "label": "struct EnumerableSet.Set",
        "members": [
          {
            "astId": 2680,
            "contract": "contracts/AirdropedStartfiIDOWithStaking.sol:AirdropedStartfiIDOWithStaking",
            "label": "_values",
            "offset": 0,
            "slot": "0",
            "type": "t_array(t_bytes32)dyn_storage"
          },
          {
            "astId": 2684,
            "contract": "contracts/AirdropedStartfiIDOWithStaking.sol:AirdropedStartfiIDOWithStaking",
            "label": "_indexes",
            "offset": 0,
            "slot": "1",
            "type": "t_mapping(t_bytes32,t_uint256)"
          }
        ],
        "numberOfBytes": "64"
      },
      "t_uint256": {
        "encoding": "inplace",
        "label": "uint256",
        "numberOfBytes": "32"
      }
    }
  }
}