{
  "address": "0xbd116714EC0AD143Ef16A861a1054790a80467bc",
  "abi": [
    {
      "inputs": [
        {
          "internalType": "uint256",
          "name": "startTimeSale_",
          "type": "uint256"
        },
        {
          "internalType": "uint256",
          "name": "mintPrice_",
          "type": "uint256"
        },
        {
          "internalType": "uint256",
          "name": "maxSupply_",
          "type": "uint256"
        },
        {
          "internalType": "address[]",
          "name": "wallets_",
          "type": "address[]"
        },
        {
          "internalType": "address",
          "name": "_paymentToken",
          "type": "address"
        },
        {
          "internalType": "address",
          "name": "staking",
          "type": "address"
        },
        {
          "internalType": "address",
          "name": "owner_",
          "type": "address"
        }
      ],
      "stateMutability": "nonpayable",
      "type": "constructor"
    },
    {
      "anonymous": false,
      "inputs": [
        {
          "indexed": false,
          "internalType": "address",
          "name": "beneficiary",
          "type": "address"
        },
        {
          "indexed": false,
          "internalType": "uint256",
          "name": "amount",
          "type": "uint256"
        },
        {
          "indexed": false,
          "internalType": "uint256",
          "name": "price",
          "type": "uint256"
        }
      ],
      "name": "AirDropRequested",
      "type": "event"
    },
    {
      "anonymous": false,
      "inputs": [
        {
          "indexed": true,
          "internalType": "address",
          "name": "previousOwner",
          "type": "address"
        },
        {
          "indexed": true,
          "internalType": "address",
          "name": "newOwner",
          "type": "address"
        }
      ],
      "name": "OwnershipTransferred",
      "type": "event"
    },
    {
      "anonymous": false,
      "inputs": [
        {
          "indexed": false,
          "internalType": "address",
          "name": "account",
          "type": "address"
        }
      ],
      "name": "Paused",
      "type": "event"
    },
    {
      "anonymous": false,
      "inputs": [
        {
          "indexed": false,
          "internalType": "address",
          "name": "account",
          "type": "address"
        }
      ],
      "name": "Unpaused",
      "type": "event"
    },
    {
      "anonymous": false,
      "inputs": [
        {
          "indexed": false,
          "internalType": "uint256",
          "name": "newParice",
          "type": "uint256"
        }
      ],
      "name": "UpdateMintPrice",
      "type": "event"
    },
    {
      "anonymous": false,
      "inputs": [
        {
          "indexed": false,
          "internalType": "uint256",
          "name": "newPrice",
          "type": "uint256"
        },
        {
          "indexed": false,
          "internalType": "uint256",
          "name": "oldPrice",
          "type": "uint256"
        }
      ],
      "name": "WhiteListPriceUpdated",
      "type": "event"
    },
    {
      "anonymous": false,
      "inputs": [
        {
          "indexed": false,
          "internalType": "address",
          "name": "beneficiary",
          "type": "address"
        }
      ],
      "name": "WhiteListUpdated",
      "type": "event"
    },
    {
      "anonymous": false,
      "inputs": [
        {
          "indexed": false,
          "internalType": "address",
          "name": "payee",
          "type": "address"
        },
        {
          "indexed": false,
          "internalType": "uint256",
          "name": "amount",
          "type": "uint256"
        }
      ],
      "name": "Withdrawn",
      "type": "event"
    },
    {
      "inputs": [],
      "name": "availableTokenCount",
      "outputs": [
        {
          "internalType": "uint256",
          "name": "",
          "type": "uint256"
        }
      ],
      "stateMutability": "view",
      "type": "function"
    },
    {
      "inputs": [],
      "name": "baseAllocation",
      "outputs": [
        {
          "internalType": "uint256",
          "name": "",
          "type": "uint256"
        }
      ],
      "stateMutability": "view",
      "type": "function"
    },
    {
      "inputs": [],
      "name": "getWallets",
      "outputs": [
        {
          "internalType": "address[]",
          "name": "",
          "type": "address[]"
        }
      ],
      "stateMutability": "view",
      "type": "function"
    },
    {
      "inputs": [
        {
          "internalType": "address",
          "name": "_beneficiary",
          "type": "address"
        }
      ],
      "name": "isWhiteListed",
      "outputs": [
        {
          "internalType": "bool",
          "name": "",
          "type": "bool"
        }
      ],
      "stateMutability": "view",
      "type": "function"
    },
    {
      "inputs": [],
      "name": "level1",
      "outputs": [
        {
          "internalType": "uint256",
          "name": "",
          "type": "uint256"
        },
        {
          "internalType": "uint256",
          "name": "",
          "type": "uint256"
        }
      ],
      "stateMutability": "view",
      "type": "function"
    },
    {
      "inputs": [],
      "name": "level2",
      "outputs": [
        {
          "internalType": "uint256",
          "name": "",
          "type": "uint256"
        },
        {
          "internalType": "uint256",
          "name": "",
          "type": "uint256"
        }
      ],
      "stateMutability": "view",
      "type": "function"
    },
    {
      "inputs": [],
      "name": "level3",
      "outputs": [
        {
          "internalType": "uint256",
          "name": "",
          "type": "uint256"
        },
        {
          "internalType": "uint256",
          "name": "",
          "type": "uint256"
        }
      ],
      "stateMutability": "view",
      "type": "function"
    },
    {
      "inputs": [],
      "name": "maxSupply",
      "outputs": [
        {
          "internalType": "uint256",
          "name": "",
          "type": "uint256"
        }
      ],
      "stateMutability": "view",
      "type": "function"
    },
    {
      "inputs": [
        {
          "internalType": "uint256",
          "name": "_amount",
          "type": "uint256"
        },
        {
          "internalType": "uint256[]",
          "name": "proofIndexes",
          "type": "uint256[]"
        }
      ],
      "name": "mint",
      "outputs": [],
      "stateMutability": "nonpayable",
      "type": "function"
    },
    {
      "inputs": [],
      "name": "mintPrice",
      "outputs": [
        {
          "internalType": "uint256",
          "name": "",
          "type": "uint256"
        }
      ],
      "stateMutability": "view",
      "type": "function"
    },
    {
      "inputs": [],
      "name": "owner",
      "outputs": [
        {
          "internalType": "address",
          "name": "",
          "type": "address"
        }
      ],
      "stateMutability": "view",
      "type": "function"
    },
    {
      "inputs": [],
      "name": "pause",
      "outputs": [],
      "stateMutability": "nonpayable",
      "type": "function"
    },
    {
      "inputs": [],
      "name": "paused",
      "outputs": [
        {
          "internalType": "bool",
          "name": "",
          "type": "bool"
        }
      ],
      "stateMutability": "view",
      "type": "function"
    },
    {
      "inputs": [],
      "name": "renounceOwnership",
      "outputs": [],
      "stateMutability": "nonpayable",
      "type": "function"
    },
    {
      "inputs": [
        {
          "internalType": "uint256",
          "name": "price_",
          "type": "uint256"
        }
      ],
      "name": "setMintPrice",
      "outputs": [],
      "stateMutability": "nonpayable",
      "type": "function"
    },
    {
      "inputs": [
        {
          "internalType": "address[]",
          "name": "_list",
          "type": "address[]"
        }
      ],
      "name": "setWhiteList",
      "outputs": [],
      "stateMutability": "nonpayable",
      "type": "function"
    },
    {
      "inputs": [],
      "name": "startTimeSale",
      "outputs": [
        {
          "internalType": "uint256",
          "name": "",
          "type": "uint256"
        }
      ],
      "stateMutability": "view",
      "type": "function"
    },
    {
      "inputs": [],
      "name": "toggleWhiteListStatus",
      "outputs": [],
      "stateMutability": "nonpayable",
      "type": "function"
    },
    {
      "inputs": [],
      "name": "tokenCount",
      "outputs": [
        {
          "internalType": "uint256",
          "name": "",
          "type": "uint256"
        }
      ],
      "stateMutability": "view",
      "type": "function"
    },
    {
      "inputs": [
        {
          "internalType": "address",
          "name": "newOwner",
          "type": "address"
        }
      ],
      "name": "transferOwnership",
      "outputs": [],
      "stateMutability": "nonpayable",
      "type": "function"
    },
    {
      "inputs": [],
      "name": "unpause",
      "outputs": [],
      "stateMutability": "nonpayable",
      "type": "function"
    },
    {
      "inputs": [
        {
          "internalType": "uint256",
          "name": "_startTime",
          "type": "uint256"
        }
      ],
      "name": "updateSaleStartTime",
      "outputs": [],
      "stateMutability": "nonpayable",
      "type": "function"
    },
    {
      "inputs": [
        {
          "internalType": "uint256",
          "name": "baseAllocation_",
          "type": "uint256"
        }
      ],
      "name": "update_levelsAllocation",
      "outputs": [],
      "stateMutability": "nonpayable",
      "type": "function"
    },
    {
      "inputs": [],
      "name": "whilteListStatus",
      "outputs": [
        {
          "internalType": "bool",
          "name": "",
          "type": "bool"
        }
      ],
      "stateMutability": "view",
      "type": "function"
    },
    {
      "inputs": [],
      "name": "withdraw",
      "outputs": [],
      "stateMutability": "nonpayable",
      "type": "function"
    }
  ],
  "transactionHash": "0x2a55436f87849e6f4b559b77b64f5c2d46e4293a1f82ebc057919554f62de582",
  "args": [
    1640704213,
    "100000000000000",
    "50000000000000000000000",
    [
      "0x2819C6d61e4c83bc53dD17D4aa00deDBe35894AA"
    ],
    "0xeD24FC36d5Ee211Ea25A80239Fb8C4Cfd80f12Ee",
    "0x220B67583b0705416A750a38e3E8e95852017CEa",
    "0xe092b1fa25DF5786D151246E492Eed3d15EA4dAA"
  ],
  "solcInputHash": "bcf64d914bfddd6d4ffb9f12868e16f8",
  "bytecode": "0x60c06040526000805460ff191660019081179091556969e10de76676d0800000600a81905568925e06eec972b00000600b5569017b7883c06916600000600c556902f6f10780d22cc00000600d55620000589162000442565b600e55600a546200006b90600362000442565b600f55600a546200007e90600662000442565b6010553480156200008e57600080fd5b5060405162001eb038038062001eb0833981016040819052620000b1916200030f565b608085905260048790556005805460ff1916905583838783620000d4336200013c565b620000df8162000196565b5060016006558251620000fa90600890602086019062000271565b5060075560601b6001600160601b03191660a0525050600980546001600160a01b0319166001600160a01b039290921691909117905550620004849350505050565b600580546001600160a01b03838116610100818102610100600160a81b031985161790945560405193909204169182907f8be0079c531659141344cd1fd0a4f28419497f9722a3daafe3b4186f6b6457e090600090a35050565b6005546001600160a01b03610100909104163314620001fc5760405162461bcd60e51b815260206004820181905260248201527f4f776e61626c653a2063616c6c6572206973206e6f7420746865206f776e657260448201526064015b60405180910390fd5b6001600160a01b038116620002635760405162461bcd60e51b815260206004820152602660248201527f4f776e61626c653a206e6577206f776e657220697320746865207a65726f206160448201526564647265737360d01b6064820152608401620001f3565b6200026e816200013c565b50565b828054828255906000526020600020908101928215620002c9579160200282015b82811115620002c957825182546001600160a01b0319166001600160a01b0390911617825560209092019160019091019062000292565b50620002d7929150620002db565b5090565b5b80821115620002d75760008155600101620002dc565b80516001600160a01b03811681146200030a57600080fd5b919050565b600080600080600080600060e0888a0312156200032a578283fd5b87516020808a015160408b015160608c0151939a509098509650906001600160401b03808211156200035a578586fd5b818b0191508b601f8301126200036e578586fd5b8151818111156200038357620003836200046e565b8060051b604051601f19603f83011681018181108582111715620003ab57620003ab6200046e565b806040525080935082815285810193508585018f87848801011115620003cf57898afd5b8995505b83861015620003fc57620003e781620002f2565b855260019590950194938601938601620003d3565b508099505050505050506200041460808901620002f2565b92506200042460a08901620002f2565b91506200043460c08901620002f2565b905092959891949750929550565b60008160001904831182151516156200046957634e487b7160e01b81526011600452602481fd5b500290565b634e487b7160e01b600052604160045260246000fd5b60805160a05160601c6119e0620004d060003960008181610cb901528181610dbb01528181610f43015261109f0152600081816102d4015281816104820152610af401526119e06000f3fe608060405234801561001057600080fd5b50600436106101a35760003560e01c80638da5cb5b116100ee578063c4bfce1811610097578063e14ca35311610071578063e14ca3531461030d578063f2fde38b14610315578063f4a0a52814610328578063fa4d2c671461033b57600080fd5b8063c4bfce18146102ca578063d5abeb01146102d2578063db7a4605146102f857600080fd5b8063bc3377d9116100c8578063bc3377d9146102a1578063bd35701e146102ac578063c380d980146102bf57600080fd5b80638da5cb5b146102685780638da7878c146102915780639f181b5e1461029957600080fd5b806364954df811610150578063715018a61161012a578063715018a614610245578063775b9c131461024d5780638456cb591461026057600080fd5b806364954df8146102185780636817c76c146102205780636f9170f61461023257600080fd5b80633f4ba83a116101815780633f4ba83a146101d857806349bb330f146101e05780635c975abb1461020157600080fd5b8063295e4edf146101a85780632d69044f146101bd5780633ccfd60b146101d0575b600080fd5b6101bb6101b636600461177e565b610346565b005b6101bb6101cb3660046117ae565b6103da565b6101bb61083f565b6101bb610879565b600b54600e545b604080519283526020830191909152015b60405180910390f35b60055460ff165b60405190151581526020016101f8565b6101bb6108b1565b6007545b6040519081526020016101f8565b61020861024036600461167d565b6108f8565b6101bb61090b565b6101bb61025b366004611697565b610945565b6101bb61097e565b60055461010090046001600160a01b03166040516001600160a01b0390911681526020016101f8565b600454610224565b600354610224565b600c54600f546101e7565b6101bb6102ba36600461177e565b6109b6565b600d546010546101e7565b600a54610224565b7f0000000000000000000000000000000000000000000000000000000000000000610224565b610300610a81565b6040516101f89190611873565b610224610ae3565b6101bb61032336600461167d565b610b1d565b6101bb61033636600461177e565b610bbb565b60005460ff16610208565b6005546001600160a01b0361010090910416331461037f5760405162461bcd60e51b8152600401610376906118c0565b60405180910390fd5b42600454118061038f5750600454155b6103ce5760405162461bcd60e51b815260206004820152601060248201526f14d85b19481a185cc81cdd185c9d195960821b6044820152606401610376565b6103d781610c3d565b50565b60055460ff16156104205760405162461bcd60e51b815260206004820152601060248201526f14185d5cd8589b194e881c185d5cd95960821b6044820152606401610376565b4260045411158015610433575060045415155b61047f5760405162461bcd60e51b815260206004820152601660248201527f53616c6520646964206e6f7420737461727420796574000000000000000000006044820152606401610376565b827f0000000000000000000000000000000000000000000000000000000000000000816003546104af91906118f5565b11156104fd5760405162461bcd60e51b815260206004820152601b60248201527f50757263686173652065786365656473206d617820737570706c7900000000006044820152606401610376565b60005460ff161561055d57610511336108f8565b61055d5760405162461bcd60e51b815260206004820152601460248201527f4d757374206265207768697465206c69737465640000000000000000000000006044820152606401610376565b6000841161059e5760405162461bcd60e51b815260206004820152600e60248201526d1a5b9d985b1a5917d85b5bdd5b9d60921b6044820152606401610376565b60095460009081906001600160a01b031663ce6580703387876040518463ffffffff1660e01b81526004016105d593929190611828565b602060405180830381600087803b1580156105ef57600080fd5b505af1158015610603573d6000803e3d6000fd5b505050506040513d601f19601f820116820180604052508101906106279190611796565b9050600081116106835760405162461bcd60e51b815260206004820152602160248201527f4e6f2050617274696369706174696f6e2077697468207a65726f207374616b656044820152607360f81b6064820152608401610376565b600b5481116106a657600e54861161069b578561069f565b600e545b91506106de565b600c5481116106c857600f5486116106be578561069f565b600f5491506106de565b60105486116106d757856106db565b6010545b91505b6000826106ea60075490565b6106f4919061192d565b90506106fe610ae3565b83111561074d5760405162461bcd60e51b815260206004820152601d60248201527f496e73756666696369656e7420636f6e74726163742062616c616e63650000006044820152606401610376565b61075633610c91565b8111156107a55760405162461bcd60e51b815260206004820152601860248201527f496e73756666696369656e742070726963652076616c756500000000000000006044820152606401610376565b6107af3382610d35565b6107ec5760405162461bcd60e51b815260206004820152600e60248201526d14185e5b595b9d0819985a5b195960921b6044820152606401610376565b6107f583610e43565b50604080513381526020810185905280820183905290517f430da7b4ea1a68abe9b6f9b621aa90a53090bb079c516d1bf6402c51a48b800b9181900360600190a150505050505050565b6005546001600160a01b0361010090910416331461086f5760405162461bcd60e51b8152600401610376906118c0565b610877610ecf565b565b6005546001600160a01b036101009091041633146108a95760405162461bcd60e51b8152600401610376906118c0565b6108776111e0565b6005546001600160a01b036101009091041633146108e15760405162461bcd60e51b8152600401610376906118c0565b6108776000805460ff19811660ff90911615179055565b6000610905600183611273565b92915050565b6005546001600160a01b0361010090910416331461093b5760405162461bcd60e51b8152600401610376906118c0565b6108776000611298565b6005546001600160a01b036101009091041633146109755760405162461bcd60e51b8152600401610376906118c0565b6103d7816112ff565b6005546001600160a01b036101009091041633146109ae5760405162461bcd60e51b8152600401610376906118c0565b6108776114ee565b6005546001600160a01b036101009091041633146109e65760405162461bcd60e51b8152600401610376906118c0565b60055460ff16610a2f5760405162461bcd60e51b815260206004820152601460248201527314185d5cd8589b194e881b9bdd081c185d5cd95960621b6044820152606401610376565b80610a7c5760405162461bcd60e51b815260206004820152601a60248201527f5a65726f2076616c7565206973206e6f742061636365707465640000000000006044820152606401610376565b600a55565b60606008805480602002602001604051908101604052809291908181526020018280548015610ad957602002820191906000526020600020905b81546001600160a01b03168152600190910190602001808311610abb575b5050505050905090565b6000610aee60035490565b610b18907f000000000000000000000000000000000000000000000000000000000000000061194c565b905090565b6005546001600160a01b03610100909104163314610b4d5760405162461bcd60e51b8152600401610376906118c0565b6001600160a01b038116610bb25760405162461bcd60e51b815260206004820152602660248201527f4f776e61626c653a206e6577206f776e657220697320746865207a65726f206160448201526564647265737360d01b6064820152608401610376565b6103d781611298565b6005546001600160a01b03610100909104163314610beb5760405162461bcd60e51b8152600401610376906118c0565b60055460ff16610c345760405162461bcd60e51b815260206004820152601460248201527314185d5cd8589b194e881b9bdd081c185d5cd95960621b6044820152606401610376565b6103d781611569565b428111610c8c5760405162461bcd60e51b815260206004820152601560248201527f43616e206e6f74207365742074696d65206261636b00000000000000000000006044820152606401610376565b600455565b604051636eb1769f60e11b81526001600160a01b0382811660048301523060248301526000917f00000000000000000000000000000000000000000000000000000000000000009091169063dd62ed3e9060440160206040518083038186803b158015610cfd57600080fd5b505afa158015610d11573d6000803e3d6000fd5b505050506040513d601f19601f820116820180604052508101906109059190611796565b600060026006541415610d8a5760405162461bcd60e51b815260206004820152601f60248201527f5265656e7472616e637947756172643a207265656e7472616e742063616c6c006044820152606401610376565b60026006556040516323b872dd60e01b81526001600160a01b038481166004830152306024830152604482018490527f000000000000000000000000000000000000000000000000000000000000000016906323b872dd90606401602060405180830381600087803b158015610dff57600080fd5b505af1158015610e13573d6000803e3d6000fd5b505050506040513d601f19601f82011682018060405250810190610e37919061175e565b60016006559392505050565b60008180610e4f610ae3565b1015610eae5760405162461bcd60e51b815260206004820152602860248201527f526571756573746564206e756d626572206f6620746f6b656e73206e6f7420616044820152677661696c61626c6560c01b6064820152608401610376565b8260036000828254610ec091906118f5565b90915550506003549392505050565b60026006541415610f225760405162461bcd60e51b815260206004820152601f60248201527f5265656e7472616e637947756172643a207265656e7472616e742063616c6c006044820152606401610376565b60026006556008546040516370a0823160e01b8152306004820152600091907f00000000000000000000000000000000000000000000000000000000000000006001600160a01b0316906370a082319060240160206040518083038186803b158015610f8d57600080fd5b505afa158015610fa1573d6000803e3d6000fd5b505050506040513d601f19601f82011682018060405250810190610fc59190611796565b610fcf919061190d565b9050600081116110215760405162461bcd60e51b815260206004820152601760248201527f43616e27742073706c6974207a65726f207368617265730000000000000000006044820152606401610376565b60005b6008548110156111d7577f7084f5476618d8e60b11ef0d7d3f06914655adb8793e28ff7f018d4c76d505d56008828154811061107057634e487b7160e01b600052603260045260246000fd5b60009182526020918290200154604080516001600160a01b0390921682529181018590520160405180910390a17f00000000000000000000000000000000000000000000000000000000000000006001600160a01b031663a9059cbb600883815481106110ed57634e487b7160e01b600052603260045260246000fd5b60009182526020909120015460405160e083901b6001600160e01b03191681526001600160a01b03909116600482015260248101859052604401602060405180830381600087803b15801561114157600080fd5b505af1158015611155573d6000803e3d6000fd5b505050506040513d601f19601f82011682018060405250810190611179919061175e565b6111c55760405162461bcd60e51b815260206004820152601760248201527f436f756c646e2774207472616e7366657220746f6b656e0000000000000000006044820152606401610376565b806111cf81611963565b915050611024565b50506001600655565b60055460ff166112295760405162461bcd60e51b815260206004820152601460248201527314185d5cd8589b194e881b9bdd081c185d5cd95960621b6044820152606401610376565b6005805460ff191690557f5db9ee0a495bf2e6ff9c91a7834c1ba4fdd244a5e8aa4e537bd38aeae4b073aa335b6040516001600160a01b03909116815260200160405180910390a1565b6001600160a01b038116600090815260018301602052604081205415155b9392505050565b600580546001600160a01b0383811661010081810274ffffffffffffffffffffffffffffffffffffffff001985161790945560405193909204169182907f8be0079c531659141344cd1fd0a4f28419497f9722a3daafe3b4186f6b6457e090600090a35050565b60005b81518110156114ea5760006001600160a01b031682828151811061133657634e487b7160e01b600052603260045260246000fd5b60200260200101516001600160a01b031614156113955760405162461bcd60e51b815260206004820152601c60248201527f656d7074792061646472657373206973206e6f7420616c6c6f776564000000006044820152606401610376565b6113d08282815181106113b857634e487b7160e01b600052603260045260246000fd5b6020026020010151600161127390919063ffffffff16565b156114275760405162461bcd60e51b815260206004820152602160248201527f6475706c6963617465642061646472657373206973206e6f7420616c6c6f77656044820152601960fa1b6064820152608401610376565b61146282828151811061144a57634e487b7160e01b600052603260045260246000fd5b602002602001015160016115f490919063ffffffff16565b61146b57600080fd5b7f37bdaf50464e57bc2ca69f36ace378196f59c54486a220a7051208cb4e249da08282815181106114ac57634e487b7160e01b600052603260045260246000fd5b60200260200101516040516114d091906001600160a01b0391909116815260200190565b60405180910390a1806114e281611963565b915050611302565b5050565b60055460ff16156115345760405162461bcd60e51b815260206004820152601060248201526f14185d5cd8589b194e881c185d5cd95960821b6044820152606401610376565b6005805460ff191660011790557f62e78cea01bee320cd4e420270b5ea74000d11b0c9f74754ebdbfc544b05a2586112563390565b600081116115b95760405162461bcd60e51b815260206004820152601960248201527f5a65726f2076616c7565206973206e6f7420616c6c6f776564000000000000006044820152606401610376565b60078190556040518181527f0f6e30cbea7cb67e47bd9d9c28efec570b560826aef4cf586a3b52a2e45396d19060200160405180910390a150565b6000611291836001600160a01b0384166000611623838360009081526001919091016020526040902054151590565b61165957508154600181810184556000848152602080822090930184905584548482528286019093526040902091909155610905565b506000610905565b80356001600160a01b038116811461167857600080fd5b919050565b60006020828403121561168e578081fd5b61129182611661565b600060208083850312156116a9578182fd5b823567ffffffffffffffff808211156116c0578384fd5b818501915085601f8301126116d3578384fd5b8135818111156116e5576116e5611994565b8060051b604051601f19603f8301168101818110858211171561170a5761170a611994565b604052828152858101935084860182860187018a1015611728578788fd5b8795505b838610156117515761173d81611661565b85526001959095019493860193860161172c565b5098975050505050505050565b60006020828403121561176f578081fd5b81518015158114611291578182fd5b60006020828403121561178f578081fd5b5035919050565b6000602082840312156117a7578081fd5b5051919050565b6000806000604084860312156117c2578182fd5b83359250602084013567ffffffffffffffff808211156117e0578384fd5b818601915086601f8301126117f3578384fd5b813581811115611801578485fd5b8760208260051b8501011115611815578485fd5b6020830194508093505050509250925092565b6001600160a01b0384168152604060208201819052810182905260006001600160fb1b03831115611857578081fd5b8260051b80856060850137919091016060019081529392505050565b6020808252825182820181905260009190848201906040850190845b818110156118b45783516001600160a01b03168352928401929184019160010161188f565b50909695505050505050565b6020808252818101527f4f776e61626c653a2063616c6c6572206973206e6f7420746865206f776e6572604082015260600190565b600082198211156119085761190861197e565b500190565b60008261192857634e487b7160e01b81526012600452602481fd5b500490565b60008160001904831182151516156119475761194761197e565b500290565b60008282101561195e5761195e61197e565b500390565b60006000198214156119775761197761197e565b5060010190565b634e487b7160e01b600052601160045260246000fd5b634e487b7160e01b600052604160045260246000fdfea26469706673582212201eb03b8a9649a408b246a38746a6c18c0a3ccd82495c7a19377c023a8a85e23c64736f6c63430008040033",
  "devdoc": {
    "kind": "dev",
    "methods": {
      "availableTokenCount()": {
        "details": "Check whether tokens are still available",
        "returns": {
          "_0": "the available token count"
        }
      },
      "maxSupply()": {
        "details": "Get the max Supply",
        "returns": {
          "_0": "the maximum token count"
        }
      },
      "mint(uint256,uint256[])": {
        "details": "called only when sale is startedcalled only when not paused`_amount` can't zeromust not xceed the cap",
        "params": {
          "_amount": "number of token to be minted",
          "proofIndexes": "user pools index to be used, index should only be used once emit Transfer"
        }
      },
      "owner()": {
        "details": "Returns the address of the current owner."
      },
      "pause()": {
        "details": "Pauses all token transfers. See {ERC721Pausable} and {Pausable-_pause}. Requirements: - the caller must have the `PAUSER_ROLE`."
      },
      "paused()": {
        "details": "Returns true if the contract is paused, and false otherwise."
      },
      "renounceOwnership()": {
        "details": "Leaves the contract without owner. It will not be possible to call `onlyOwner` functions anymore. Can only be called by the current owner. NOTE: Renouncing ownership will leave the contract without an owner, thereby removing any functionality that is only available to the owner."
      },
      "tokenCount()": {
        "details": "Get the current token count",
        "returns": {
          "_0": "the created token count"
        }
      },
      "transferOwnership(address)": {
        "details": "Transfers ownership of the contract to a new account (`newOwner`). Can only be called by the current owner."
      },
      "unpause()": {
        "details": "Unpauses all token transfers. See {ERC721Pausable} and {Pausable-_unpause}. Requirements: - the caller must have the `PAUSER_ROLE`."
      },
      "updateSaleStartTime(uint256)": {
        "details": "`__startTimeURI` must be more than the current time",
        "params": {
          "_startTime": "new _startTime"
        }
      },
      "withdraw()": {
        "details": "Withdraw accumulated balance for `wallets`"
      }
    },
    "version": 1
  },
  "userdoc": {
    "kind": "user",
    "methods": {
      "mint(uint256,uint256[])": {
        "notice": "caller should pay the required price"
      },
      "updateSaleStartTime(uint256)": {
        "notice": "Only owner can call it"
      }
    },
    "version": 1
  },
  "storageLayout": {
    "storage": [
      {
        "astId": 5334,
        "contract": "contracts/AirdropedStartfiIDO.sol:AirdropedStartfiIDO",
        "label": "_whiteListEnabled",
        "offset": 0,
        "slot": "0",
        "type": "t_bool"
      },
      {
        "astId": 5337,
        "contract": "contracts/AirdropedStartfiIDO.sol:AirdropedStartfiIDO",
        "label": "_whiteList",
        "offset": 0,
        "slot": "1",
        "type": "t_struct(AddressSet)2986_storage"
      },
      {
        "astId": 4885,
        "contract": "contracts/AirdropedStartfiIDO.sol:AirdropedStartfiIDO",
        "label": "_tokenCount",
        "offset": 0,
        "slot": "3",
        "type": "t_uint256"
      },
      {
        "astId": 5055,
        "contract": "contracts/AirdropedStartfiIDO.sol:AirdropedStartfiIDO",
        "label": "_startTimeSale",
        "offset": 0,
        "slot": "4",
        "type": "t_uint256"
      },
      {
        "astId": 708,
        "contract": "contracts/AirdropedStartfiIDO.sol:AirdropedStartfiIDO",
        "label": "_paused",
        "offset": 0,
        "slot": "5",
        "type": "t_bool"
      },
      {
        "astId": 591,
        "contract": "contracts/AirdropedStartfiIDO.sol:AirdropedStartfiIDO",
        "label": "_owner",
        "offset": 1,
        "slot": "5",
        "type": "t_address"
      },
      {
        "astId": 793,
        "contract": "contracts/AirdropedStartfiIDO.sol:AirdropedStartfiIDO",
        "label": "_status",
        "offset": 0,
        "slot": "6",
        "type": "t_uint256"
      },
      {
        "astId": 5134,
        "contract": "contracts/AirdropedStartfiIDO.sol:AirdropedStartfiIDO",
        "label": "_mintPrice",
        "offset": 0,
        "slot": "7",
        "type": "t_uint256"
      },
      {
        "astId": 5140,
        "contract": "contracts/AirdropedStartfiIDO.sol:AirdropedStartfiIDO",
        "label": "_wallets",
        "offset": 0,
        "slot": "8",
        "type": "t_array(t_address)dyn_storage"
      },
      {
        "astId": 3298,
        "contract": "contracts/AirdropedStartfiIDO.sol:AirdropedStartfiIDO",
        "label": "stakes",
        "offset": 0,
        "slot": "9",
        "type": "t_contract(IStartFiStakes)5489"
      },
      {
        "astId": 3303,
        "contract": "contracts/AirdropedStartfiIDO.sol:AirdropedStartfiIDO",
        "label": "_baseAllocation",
        "offset": 0,
        "slot": "10",
        "type": "t_uint256"
      },
      {
        "astId": 3308,
        "contract": "contracts/AirdropedStartfiIDO.sol:AirdropedStartfiIDO",
        "label": "_level1",
        "offset": 0,
        "slot": "11",
        "type": "t_uint256"
      },
      {
        "astId": 3313,
        "contract": "contracts/AirdropedStartfiIDO.sol:AirdropedStartfiIDO",
        "label": "_level2",
        "offset": 0,
        "slot": "12",
        "type": "t_uint256"
      },
      {
        "astId": 3318,
        "contract": "contracts/AirdropedStartfiIDO.sol:AirdropedStartfiIDO",
        "label": "_level3",
        "offset": 0,
        "slot": "13",
        "type": "t_uint256"
      },
      {
        "astId": 3323,
        "contract": "contracts/AirdropedStartfiIDO.sol:AirdropedStartfiIDO",
        "label": "_level1Max",
        "offset": 0,
        "slot": "14",
        "type": "t_uint256"
      },
      {
        "astId": 3328,
        "contract": "contracts/AirdropedStartfiIDO.sol:AirdropedStartfiIDO",
        "label": "_level2Max",
        "offset": 0,
        "slot": "15",
        "type": "t_uint256"
      },
      {
        "astId": 3333,
        "contract": "contracts/AirdropedStartfiIDO.sol:AirdropedStartfiIDO",
        "label": "_level3Max",
        "offset": 0,
        "slot": "16",
        "type": "t_uint256"
      }
    ],
    "types": {
      "t_address": {
        "encoding": "inplace",
        "label": "address",
        "numberOfBytes": "20"
      },
      "t_array(t_address)dyn_storage": {
        "base": "t_address",
        "encoding": "dynamic_array",
        "label": "address[]",
        "numberOfBytes": "32"
      },
      "t_array(t_bytes32)dyn_storage": {
        "base": "t_bytes32",
        "encoding": "dynamic_array",
        "label": "bytes32[]",
        "numberOfBytes": "32"
      },
      "t_bool": {
        "encoding": "inplace",
        "label": "bool",
        "numberOfBytes": "1"
      },
      "t_bytes32": {
        "encoding": "inplace",
        "label": "bytes32",
        "numberOfBytes": "32"
      },
      "t_contract(IStartFiStakes)5489": {
        "encoding": "inplace",
        "label": "contract IStartFiStakes",
        "numberOfBytes": "20"
      },
      "t_mapping(t_bytes32,t_uint256)": {
        "encoding": "mapping",
        "key": "t_bytes32",
        "label": "mapping(bytes32 => uint256)",
        "numberOfBytes": "32",
        "value": "t_uint256"
      },
      "t_struct(AddressSet)2986_storage": {
        "encoding": "inplace",
        "label": "struct EnumerableSet.AddressSet",
        "members": [
          {
            "astId": 2985,
            "contract": "contracts/AirdropedStartfiIDO.sol:AirdropedStartfiIDO",
            "label": "_inner",
            "offset": 0,
            "slot": "0",
            "type": "t_struct(Set)2685_storage"
          }
        ],
        "numberOfBytes": "64"
      },
      "t_struct(Set)2685_storage": {
        "encoding": "inplace",
        "label": "struct EnumerableSet.Set",
        "members": [
          {
            "astId": 2680,
            "contract": "contracts/AirdropedStartfiIDO.sol:AirdropedStartfiIDO",
            "label": "_values",
            "offset": 0,
            "slot": "0",
            "type": "t_array(t_bytes32)dyn_storage"
          },
          {
            "astId": 2684,
            "contract": "contracts/AirdropedStartfiIDO.sol:AirdropedStartfiIDO",
            "label": "_indexes",
            "offset": 0,
            "slot": "1",
            "type": "t_mapping(t_bytes32,t_uint256)"
          }
        ],
        "numberOfBytes": "64"
      },
      "t_uint256": {
        "encoding": "inplace",
        "label": "uint256",
        "numberOfBytes": "32"
      }
    }
  }
}