{
  "address": "0x603B9Ee14790960d57Da9D33C3D78235EB489196",
  "abi": [
    {
      "inputs": [
        {
          "internalType": "uint256",
          "name": "startTimeSale_",
          "type": "uint256"
        },
        {
          "internalType": "uint256",
          "name": "mintPrice_",
          "type": "uint256"
        },
        {
          "internalType": "uint256",
          "name": "maxSupply_",
          "type": "uint256"
        },
        {
          "internalType": "uint256",
          "name": "lockDuration_",
          "type": "uint256"
        },
        {
          "internalType": "address[]",
          "name": "wallets_",
          "type": "address[]"
        },
        {
          "internalType": "address",
          "name": "_paymentToken",
          "type": "address"
        },
        {
          "internalType": "address",
          "name": "token_",
          "type": "address"
        },
        {
          "internalType": "address",
          "name": "owner_",
          "type": "address"
        }
      ],
      "stateMutability": "nonpayable",
      "type": "constructor"
    },
    {
      "anonymous": false,
      "inputs": [
        {
          "indexed": false,
          "internalType": "address",
          "name": "beneficiary",
          "type": "address"
        },
        {
          "indexed": false,
          "internalType": "uint256",
          "name": "amount",
          "type": "uint256"
        },
        {
          "indexed": false,
          "internalType": "uint256",
          "name": "price",
          "type": "uint256"
        }
      ],
      "name": "AirDropRequested",
      "type": "event"
    },
    {
      "anonymous": false,
      "inputs": [
        {
          "indexed": false,
          "internalType": "uint256",
          "name": "duration",
          "type": "uint256"
        }
      ],
      "name": "ChangeLockDuration",
      "type": "event"
    },
    {
      "anonymous": false,
      "inputs": [
        {
          "indexed": true,
          "internalType": "address",
          "name": "diposter",
          "type": "address"
        },
        {
          "indexed": false,
          "internalType": "uint256",
          "name": "amount",
          "type": "uint256"
        }
      ],
      "name": "DepositFunds",
      "type": "event"
    },
    {
      "anonymous": false,
      "inputs": [
        {
          "indexed": true,
          "internalType": "address",
          "name": "previousOwner",
          "type": "address"
        },
        {
          "indexed": true,
          "internalType": "address",
          "name": "newOwner",
          "type": "address"
        }
      ],
      "name": "OwnershipTransferred",
      "type": "event"
    },
    {
      "anonymous": false,
      "inputs": [
        {
          "indexed": false,
          "internalType": "address",
          "name": "account",
          "type": "address"
        }
      ],
      "name": "Paused",
      "type": "event"
    },
    {
      "anonymous": false,
      "inputs": [
        {
          "indexed": false,
          "internalType": "address",
          "name": "account",
          "type": "address"
        }
      ],
      "name": "Unpaused",
      "type": "event"
    },
    {
      "anonymous": false,
      "inputs": [
        {
          "indexed": false,
          "internalType": "uint256",
          "name": "newParice",
          "type": "uint256"
        }
      ],
      "name": "UpdateMintPrice",
      "type": "event"
    },
    {
      "anonymous": false,
      "inputs": [
        {
          "indexed": false,
          "internalType": "uint256",
          "name": "newPrice",
          "type": "uint256"
        },
        {
          "indexed": false,
          "internalType": "uint256",
          "name": "oldPrice",
          "type": "uint256"
        }
      ],
      "name": "WhiteListPriceUpdated",
      "type": "event"
    },
    {
      "anonymous": false,
      "inputs": [
        {
          "indexed": false,
          "internalType": "address",
          "name": "beneficiary",
          "type": "address"
        }
      ],
      "name": "WhiteListUpdated",
      "type": "event"
    },
    {
      "anonymous": false,
      "inputs": [
        {
          "indexed": true,
          "internalType": "address",
          "name": "diposter",
          "type": "address"
        },
        {
          "indexed": false,
          "internalType": "uint256",
          "name": "amount",
          "type": "uint256"
        }
      ],
      "name": "WithdrawFunds",
      "type": "event"
    },
    {
      "anonymous": false,
      "inputs": [
        {
          "indexed": false,
          "internalType": "address",
          "name": "payee",
          "type": "address"
        },
        {
          "indexed": false,
          "internalType": "uint256",
          "name": "amount",
          "type": "uint256"
        }
      ],
      "name": "Withdrawn",
      "type": "event"
    },
    {
      "inputs": [],
      "name": "availableTokenCount",
      "outputs": [
        {
          "internalType": "uint256",
          "name": "",
          "type": "uint256"
        }
      ],
      "stateMutability": "view",
      "type": "function"
    },
    {
      "inputs": [],
      "name": "baseAllocation",
      "outputs": [
        {
          "internalType": "uint256",
          "name": "",
          "type": "uint256"
        }
      ],
      "stateMutability": "view",
      "type": "function"
    },
    {
      "inputs": [
        {
          "internalType": "uint256",
          "name": "amount",
          "type": "uint256"
        }
      ],
      "name": "deposit",
      "outputs": [],
      "stateMutability": "nonpayable",
      "type": "function"
    },
    {
      "inputs": [
        {
          "internalType": "uint256",
          "name": "amount",
          "type": "uint256"
        }
      ],
      "name": "emergencyUnstake",
      "outputs": [],
      "stateMutability": "nonpayable",
      "type": "function"
    },
    {
      "inputs": [
        {
          "internalType": "address",
          "name": "_owner",
          "type": "address"
        }
      ],
      "name": "getReserves",
      "outputs": [
        {
          "internalType": "uint256",
          "name": "",
          "type": "uint256"
        }
      ],
      "stateMutability": "view",
      "type": "function"
    },
    {
      "inputs": [],
      "name": "getWallets",
      "outputs": [
        {
          "internalType": "address[]",
          "name": "",
          "type": "address[]"
        }
      ],
      "stateMutability": "view",
      "type": "function"
    },
    {
      "inputs": [
        {
          "internalType": "address",
          "name": "user",
          "type": "address"
        }
      ],
      "name": "isUnLockedFund",
      "outputs": [
        {
          "internalType": "bool",
          "name": "",
          "type": "bool"
        }
      ],
      "stateMutability": "view",
      "type": "function"
    },
    {
      "inputs": [
        {
          "internalType": "address",
          "name": "_beneficiary",
          "type": "address"
        }
      ],
      "name": "isWhiteListed",
      "outputs": [
        {
          "internalType": "bool",
          "name": "",
          "type": "bool"
        }
      ],
      "stateMutability": "view",
      "type": "function"
    },
    {
      "inputs": [],
      "name": "level1",
      "outputs": [
        {
          "internalType": "uint256",
          "name": "",
          "type": "uint256"
        },
        {
          "internalType": "uint256",
          "name": "",
          "type": "uint256"
        }
      ],
      "stateMutability": "view",
      "type": "function"
    },
    {
      "inputs": [],
      "name": "level2",
      "outputs": [
        {
          "internalType": "uint256",
          "name": "",
          "type": "uint256"
        },
        {
          "internalType": "uint256",
          "name": "",
          "type": "uint256"
        }
      ],
      "stateMutability": "view",
      "type": "function"
    },
    {
      "inputs": [],
      "name": "level3",
      "outputs": [
        {
          "internalType": "uint256",
          "name": "",
          "type": "uint256"
        },
        {
          "internalType": "uint256",
          "name": "",
          "type": "uint256"
        }
      ],
      "stateMutability": "view",
      "type": "function"
    },
    {
      "inputs": [],
      "name": "lockDuration",
      "outputs": [
        {
          "internalType": "uint256",
          "name": "",
          "type": "uint256"
        }
      ],
      "stateMutability": "view",
      "type": "function"
    },
    {
      "inputs": [],
      "name": "maxSupply",
      "outputs": [
        {
          "internalType": "uint256",
          "name": "",
          "type": "uint256"
        }
      ],
      "stateMutability": "view",
      "type": "function"
    },
    {
      "inputs": [
        {
          "internalType": "uint256",
          "name": "_amount",
          "type": "uint256"
        }
      ],
      "name": "mint",
      "outputs": [],
      "stateMutability": "nonpayable",
      "type": "function"
    },
    {
      "inputs": [],
      "name": "mintPrice",
      "outputs": [
        {
          "internalType": "uint256",
          "name": "",
          "type": "uint256"
        }
      ],
      "stateMutability": "view",
      "type": "function"
    },
    {
      "inputs": [],
      "name": "owner",
      "outputs": [
        {
          "internalType": "address",
          "name": "",
          "type": "address"
        }
      ],
      "stateMutability": "view",
      "type": "function"
    },
    {
      "inputs": [],
      "name": "pause",
      "outputs": [],
      "stateMutability": "nonpayable",
      "type": "function"
    },
    {
      "inputs": [],
      "name": "paused",
      "outputs": [
        {
          "internalType": "bool",
          "name": "",
          "type": "bool"
        }
      ],
      "stateMutability": "view",
      "type": "function"
    },
    {
      "inputs": [],
      "name": "renounceOwnership",
      "outputs": [],
      "stateMutability": "nonpayable",
      "type": "function"
    },
    {
      "inputs": [
        {
          "internalType": "uint256",
          "name": "price_",
          "type": "uint256"
        }
      ],
      "name": "setMintPrice",
      "outputs": [],
      "stateMutability": "nonpayable",
      "type": "function"
    },
    {
      "inputs": [
        {
          "internalType": "address[]",
          "name": "_list",
          "type": "address[]"
        }
      ],
      "name": "setWhiteList",
      "outputs": [],
      "stateMutability": "nonpayable",
      "type": "function"
    },
    {
      "inputs": [],
      "name": "stakingToken",
      "outputs": [
        {
          "internalType": "address",
          "name": "",
          "type": "address"
        }
      ],
      "stateMutability": "view",
      "type": "function"
    },
    {
      "inputs": [],
      "name": "startTimeSale",
      "outputs": [
        {
          "internalType": "uint256",
          "name": "",
          "type": "uint256"
        }
      ],
      "stateMutability": "view",
      "type": "function"
    },
    {
      "inputs": [],
      "name": "toggleWhiteListStatus",
      "outputs": [],
      "stateMutability": "nonpayable",
      "type": "function"
    },
    {
      "inputs": [],
      "name": "tokenCount",
      "outputs": [
        {
          "internalType": "uint256",
          "name": "",
          "type": "uint256"
        }
      ],
      "stateMutability": "view",
      "type": "function"
    },
    {
      "inputs": [
        {
          "internalType": "address",
          "name": "newOwner",
          "type": "address"
        }
      ],
      "name": "transferOwnership",
      "outputs": [],
      "stateMutability": "nonpayable",
      "type": "function"
    },
    {
      "inputs": [],
      "name": "unpause",
      "outputs": [],
      "stateMutability": "nonpayable",
      "type": "function"
    },
    {
      "inputs": [
        {
          "internalType": "uint256",
          "name": "amount",
          "type": "uint256"
        }
      ],
      "name": "unstake",
      "outputs": [],
      "stateMutability": "nonpayable",
      "type": "function"
    },
    {
      "inputs": [
        {
          "internalType": "address[]",
          "name": "users",
          "type": "address[]"
        }
      ],
      "name": "unstakeBatch",
      "outputs": [],
      "stateMutability": "nonpayable",
      "type": "function"
    },
    {
      "inputs": [
        {
          "internalType": "uint256",
          "name": "_duration",
          "type": "uint256"
        }
      ],
      "name": "updateLockDuration",
      "outputs": [],
      "stateMutability": "nonpayable",
      "type": "function"
    },
    {
      "inputs": [
        {
          "internalType": "uint256",
          "name": "_startTime",
          "type": "uint256"
        }
      ],
      "name": "updateSaleStartTime",
      "outputs": [],
      "stateMutability": "nonpayable",
      "type": "function"
    },
    {
      "inputs": [
        {
          "internalType": "uint256",
          "name": "baseAllocation_",
          "type": "uint256"
        }
      ],
      "name": "updatelevelsAllocation",
      "outputs": [],
      "stateMutability": "nonpayable",
      "type": "function"
    },
    {
      "inputs": [],
      "name": "whilteListStatus",
      "outputs": [
        {
          "internalType": "bool",
          "name": "",
          "type": "bool"
        }
      ],
      "stateMutability": "view",
      "type": "function"
    },
    {
      "inputs": [],
      "name": "withdraw",
      "outputs": [],
      "stateMutability": "nonpayable",
      "type": "function"
    }
  ],
  "transactionHash": "0x78701fcb9056f6a575241220ea5a6fe4081ee1859851f32f2dc93451a6e57153",
  "args": [
    1642542154,
    "5670000000000000",
    "50000000000000000000000",
    7,
    [
      "0x3Df593fBF718917582fF35E40C874f3B0d1E86c6"
    ],
    "0xeD24FC36d5Ee211Ea25A80239Fb8C4Cfd80f12Ee",
    "0xbf0ffba74bbfe340788a9d951d7b3a1a261e5eb2",
    "0xe092b1fa25DF5786D151246E492Eed3d15EA4dAA"
  ],
  "solcInputHash": "d385c4fbf1b5c1c108b1754a9e85199b",
  "bytecode": "0x60c06040526000805460ff1916600117905568022b1c8c1227a00000600381815568925e06eec972b0000060045569017b7883c069166000006005556902f6f10780d22cc0000060065560078290556200005a9190620004aa565b6008556003546200006d906006620004aa565b6009553480156200007d57600080fd5b50604051620026f5380380620026f5833981016040819052620000a0916200036c565b6080869052600b889055600c805460ff19169055838388848885620000c5336200019d565b620000d081620001f7565b506001600d556001600160a01b03821615801590620000ee57508015155b620001405760405162461bcd60e51b815260206004820152601b60248201527f5a65726f2076616c75657320617265206e6f7420616c6c6f776573000000000060448201526064015b60405180910390fd5b600f80546001600160a01b0319166001600160a01b039390931692909217909155600e55825162000179906013906020860190620002ce565b5060125560601b6001600160601b03191660a05250620004ec975050505050505050565b600c80546001600160a01b03838116610100818102610100600160a81b031985161790945560405193909204169182907f8be0079c531659141344cd1fd0a4f28419497f9722a3daafe3b4186f6b6457e090600090a35050565b600c546001600160a01b03610100909104163314620002595760405162461bcd60e51b815260206004820181905260248201527f4f776e61626c653a2063616c6c6572206973206e6f7420746865206f776e6572604482015260640162000137565b6001600160a01b038116620002c05760405162461bcd60e51b815260206004820152602660248201527f4f776e61626c653a206e6577206f776e657220697320746865207a65726f206160448201526564647265737360d01b606482015260840162000137565b620002cb816200019d565b50565b82805482825590600052602060002090810192821562000326579160200282015b828111156200032657825182546001600160a01b0319166001600160a01b03909116178255602090920191600190910190620002ef565b506200033492915062000338565b5090565b5b8082111562000334576000815560010162000339565b80516001600160a01b03811681146200036757600080fd5b919050565b600080600080600080600080610100898b03121562000389578384fd5b885160208a015160408b015160608c015160808d0151939b50919950975095506001600160401b0380821115620003be578586fd5b818b0191508b601f830112620003d2578586fd5b815181811115620003e757620003e7620004d6565b8060051b604051601f19603f830116810181811085821117156200040f576200040f620004d6565b8060405250809350828152602081019350602085018f60208488010111156200043657898afd5b8995505b8386101562000464576200044e816200034f565b855260019590950194602094850194016200043a565b5080985050505050506200047b60a08a016200034f565b92506200048b60c08a016200034f565b91506200049b60e08a016200034f565b90509295985092959890939650565b6000816000190483118215151615620004d157634e487b7160e01b81526011600452602481fd5b500290565b634e487b7160e01b600052604160045260246000fd5b60805160a05160601c6121bd6200053860003960008181611267015281816113c3015281816118b101526119b30152600081816103ec015281816109740152610f2001526121bd6000f3fe608060405234801561001057600080fd5b50600436106102065760003560e01c80638da7878c1161011a578063c380d980116100ad578063db7a46051161007c578063db7a460514610410578063e14ca35314610425578063f2fde38b1461042d578063f4a0a52814610440578063fa4d2c671461045357600080fd5b8063c380d980146103c4578063c4bfce18146103cf578063d477edf4146103d7578063d5abeb01146103ea57600080fd5b8063a0712d68116100e9578063a0712d6814610380578063b6b55f2514610393578063bc3377d9146103a6578063beafca65146103b157600080fd5b80638da7878c1461034a5780639d1c0e4a146103525780639f181b5e14610365578063a0378aec1461036d57600080fd5b80635c975abb1161019d578063715018a61161016c578063715018a6146102ec57806372f702f3146102f4578063775b9c13146103195780638456cb591461032c5780638da5cb5b1461033457600080fd5b80635c975abb146102b257806364954df8146102c95780636817c76c146102d15780636f9170f6146102d957600080fd5b80633ccfd60b116101d95780633ccfd60b1461025d5780633e99c1e4146102655780633f4ba83a1461028e57806349bb330f1461029657600080fd5b8063012ce5011461020b5780630455444314610220578063295e4edf146102375780632e17de781461024a575b600080fd5b61021e610219366004612020565b61045e565b005b600e545b6040519081526020015b60405180910390f35b61021e610245366004612020565b6104b9565b61021e610258366004612020565b610541565b61021e6105d1565b610224610273366004611f1f565b6001600160a01b031660009081526010602052604090205490565b61021e61060b565b6004546007545b6040805192835260208301919091520161022e565b600c5460ff165b604051901515815260200161022e565b61021e610643565b601254610224565b6102b96102e7366004611f1f565b61068a565b61021e61069d565b600f546001600160a01b03165b6040516001600160a01b03909116815260200161022e565b61021e610327366004611f39565b6106d7565b61021e610710565b600c5461010090046001600160a01b0316610301565b600b54610224565b6102b9610360366004611f1f565b610748565b600a54610224565b61021e61037b366004611f39565b61077a565b61021e61038e366004612020565b6108cc565b61021e6103a1366004612020565b610d07565b60055460085461029d565b61021e6103bf366004612020565b610da9565b60065460095461029d565b600354610224565b61021e6103e5366004612020565b610e2b565b7f0000000000000000000000000000000000000000000000000000000000000000610224565b610418610ead565b60405161022e9190612050565b610224610f0f565b61021e61043b366004611f1f565b610f49565b61021e61044e366004612020565b610fe7565b60005460ff166102b9565b600c5460ff166104ac5760405162461bcd60e51b815260206004820152601460248201527314185d5cd8589b194e881b9bdd081c185d5cd95960621b60448201526064015b60405180910390fd5b6104b63382611069565b50565b600c546001600160a01b036101009091041633146104e95760405162461bcd60e51b81526004016104a39061209d565b42600b5411806104f95750600b54155b6105385760405162461bcd60e51b815260206004820152601060248201526f14d85b19481a185cc81cdd185c9d195960821b60448201526064016104a3565b6104b68161119f565b600c5460ff16156105875760405162461bcd60e51b815260206004820152601060248201526f14185d5cd8589b194e881c185d5cd95960821b60448201526064016104a3565b61059033610748565b6104ac5760405162461bcd60e51b815260206004820152601260248201527146756e64206973206c6f636b6564206e6f7760701b60448201526064016104a3565b600c546001600160a01b036101009091041633146106015760405162461bcd60e51b81526004016104a39061209d565b6106096111f3565b565b600c546001600160a01b0361010090910416331461063b5760405162461bcd60e51b81526004016104a39061209d565b610609611504565b600c546001600160a01b036101009091041633146106735760405162461bcd60e51b81526004016104a39061209d565b6106096000805460ff19811660ff90911615179055565b6000610697600183611597565b92915050565b600c546001600160a01b036101009091041633146106cd5760405162461bcd60e51b81526004016104a39061209d565b61060960006115bc565b600c546001600160a01b036101009091041633146107075760405162461bcd60e51b81526004016104a39061209d565b6104b681611623565b600c546001600160a01b036101009091041633146107405760405162461bcd60e51b81526004016104a39061209d565b61060961180e565b600e546001600160a01b0382166000908152601160205260408120549091429161077291906120d2565b111592915050565b600c546001600160a01b036101009091041633146107aa5760405162461bcd60e51b81526004016104a39061209d565b60005b81518110156108c85760006001600160a01b03168282815181106107e157634e487b7160e01b600052603260045260246000fd5b60200260200101516001600160a01b031614156108405760405162461bcd60e51b815260206004820152601b60248201527f5a65726f2041646472657373206973206e6f7420616c6c6f776564000000000060448201526064016104a3565b6108b682828151811061086357634e487b7160e01b600052603260045260246000fd5b60200260200101516108b184848151811061088e57634e487b7160e01b600052603260045260246000fd5b60200260200101516001600160a01b031660009081526010602052604090205490565b611069565b806108c081612140565b9150506107ad565b5050565b600c5460ff16156109125760405162461bcd60e51b815260206004820152601060248201526f14185d5cd8589b194e881c185d5cd95960821b60448201526064016104a3565b42600b54111580156109255750600b5415155b6109715760405162461bcd60e51b815260206004820152601660248201527f53616c6520646964206e6f74207374617274207965740000000000000000000060448201526064016104a3565b807f000000000000000000000000000000000000000000000000000000000000000081600a546109a191906120d2565b11156109ef5760405162461bcd60e51b815260206004820152601b60248201527f50757263686173652065786365656473206d617820737570706c79000000000060448201526064016104a3565b60005460ff1615610a4f57610a033361068a565b610a4f5760405162461bcd60e51b815260206004820152601460248201527f4d757374206265207768697465206c697374656400000000000000000000000060448201526064016104a3565b60008211610a905760405162461bcd60e51b815260206004820152600e60248201526d1a5b9d985b1a5917d85b5bdd5b9d60921b60448201526064016104a3565b600080610a9c33610273565b905060008111610af85760405162461bcd60e51b815260206004820152602160248201527f4e6f2050617274696369706174696f6e2077697468207a65726f207374616b656044820152607360f81b60648201526084016104a3565b610b0133610748565b610b4d5760405162461bcd60e51b815260206004820152601d60248201527f506c65617365207761697420666f72206c6f636b2074696d6520656e6400000060448201526064016104a3565b6004548111610b70576007548411610b655783610b69565b6007545b9150610ba8565b6005548111610b92576008548411610b885783610b69565b6008549150610ba8565b6009548411610ba15783610ba5565b6009545b91505b600082610bb460125490565b610bbe919061210a565b9050610bc8610f0f565b831115610c175760405162461bcd60e51b815260206004820152601d60248201527f496e73756666696369656e7420636f6e74726163742062616c616e636500000060448201526064016104a3565b610c2033611889565b811115610c6f5760405162461bcd60e51b815260206004820152601860248201527f496e73756666696369656e742070726963652076616c7565000000000000000060448201526064016104a3565b610c79338261192d565b610cb65760405162461bcd60e51b815260206004820152600e60248201526d14185e5b595b9d0819985a5b195960921b60448201526064016104a3565b610cbf83611a3b565b50604080513381526020810185905280820183905290517f430da7b4ea1a68abe9b6f9b621aa90a53090bb079c516d1bf6402c51a48b800b9181900360600190a15050505050565b600c5460ff1615610d4d5760405162461bcd60e51b815260206004820152601060248201526f14185d5cd8589b194e881c185d5cd95960821b60448201526064016104a3565b600454811015610d9f5760405162461bcd60e51b815260206004820152601a60248201527f416d6f756e74206973206c65737320746865206d696e756d756d00000000000060448201526064016104a3565b6104b63382611ac7565b600c546001600160a01b03610100909104163314610dd95760405162461bcd60e51b81526004016104a39061209d565b600c5460ff16610e225760405162461bcd60e51b815260206004820152601460248201527314185d5cd8589b194e881b9bdd081c185d5cd95960621b60448201526064016104a3565b6104b681611c9c565b600c546001600160a01b03610100909104163314610e5b5760405162461bcd60e51b81526004016104a39061209d565b600c5460ff16610ea45760405162461bcd60e51b815260206004820152601460248201527314185d5cd8589b194e881b9bdd081c185d5cd95960621b60448201526064016104a3565b6104b681611cee565b60606013805480602002602001604051908101604052809291908181526020018280548015610f0557602002820191906000526020600020905b81546001600160a01b03168152600190910190602001808311610ee7575b5050505050905090565b6000610f1a600a5490565b610f44907f0000000000000000000000000000000000000000000000000000000000000000612129565b905090565b600c546001600160a01b03610100909104163314610f795760405162461bcd60e51b81526004016104a39061209d565b6001600160a01b038116610fde5760405162461bcd60e51b815260206004820152602660248201527f4f776e61626c653a206e6577206f776e657220697320746865207a65726f206160448201526564647265737360d01b60648201526084016104a3565b6104b6816115bc565b600c546001600160a01b036101009091041633146110175760405162461bcd60e51b81526004016104a39061209d565b600c5460ff166110605760405162461bcd60e51b815260206004820152601460248201527314185d5cd8589b194e881b9bdd081c185d5cd95960621b60448201526064016104a3565b6104b681611d8a565b6002600d5414156110bc5760405162461bcd60e51b815260206004820152601f60248201527f5265656e7472616e637947756172643a207265656e7472616e742063616c6c0060448201526064016104a3565b6002600d556001600160a01b03821660009081526010602052604090205481111561111a5760405162461bcd60e51b815260206004820152600e60248201526d125b9d985b1a5908185b5bdd5b9d60921b60448201526064016104a3565b6001600160a01b03821660009081526010602052604081208054839290611142908490612129565b9091555061115290508282611e0f565b50816001600160a01b03167f21901fa892c430ea8bd38b9390225ac8e67eac75ee10ffba16feefc539a288f98260405161118e91815260200190565b60405180910390a250506001600d55565b4281116111ee5760405162461bcd60e51b815260206004820152601560248201527f43616e206e6f74207365742074696d65206261636b000000000000000000000060448201526064016104a3565b600b55565b6002600d5414156112465760405162461bcd60e51b815260206004820152601f60248201527f5265656e7472616e637947756172643a207265656e7472616e742063616c6c0060448201526064016104a3565b6002600d556013546040516370a0823160e01b8152306004820152600091907f00000000000000000000000000000000000000000000000000000000000000006001600160a01b0316906370a082319060240160206040518083038186803b1580156112b157600080fd5b505afa1580156112c5573d6000803e3d6000fd5b505050506040513d601f19601f820116820180604052508101906112e99190612038565b6112f391906120ea565b9050600081116113455760405162461bcd60e51b815260206004820152601760248201527f43616e27742073706c6974207a65726f2073686172657300000000000000000060448201526064016104a3565b60005b6013548110156114fb577f7084f5476618d8e60b11ef0d7d3f06914655adb8793e28ff7f018d4c76d505d56013828154811061139457634e487b7160e01b600052603260045260246000fd5b60009182526020918290200154604080516001600160a01b0390921682529181018590520160405180910390a17f00000000000000000000000000000000000000000000000000000000000000006001600160a01b031663a9059cbb6013838154811061141157634e487b7160e01b600052603260045260246000fd5b60009182526020909120015460405160e083901b6001600160e01b03191681526001600160a01b03909116600482015260248101859052604401602060405180830381600087803b15801561146557600080fd5b505af1158015611479573d6000803e3d6000fd5b505050506040513d601f19601f8201168201806040525081019061149d9190612000565b6114e95760405162461bcd60e51b815260206004820152601760248201527f436f756c646e2774207472616e7366657220746f6b656e00000000000000000060448201526064016104a3565b806114f381612140565b915050611348565b50506001600d55565b600c5460ff1661154d5760405162461bcd60e51b815260206004820152601460248201527314185d5cd8589b194e881b9bdd081c185d5cd95960621b60448201526064016104a3565b600c805460ff191690557f5db9ee0a495bf2e6ff9c91a7834c1ba4fdd244a5e8aa4e537bd38aeae4b073aa335b6040516001600160a01b03909116815260200160405180910390a1565b6001600160a01b038116600090815260018301602052604081205415155b9392505050565b600c80546001600160a01b0383811661010081810274ffffffffffffffffffffffffffffffffffffffff001985161790945560405193909204169182907f8be0079c531659141344cd1fd0a4f28419497f9722a3daafe3b4186f6b6457e090600090a35050565b60005b81518110156108c85760006001600160a01b031682828151811061165a57634e487b7160e01b600052603260045260246000fd5b60200260200101516001600160a01b031614156116b95760405162461bcd60e51b815260206004820152601c60248201527f656d7074792061646472657373206973206e6f7420616c6c6f7765640000000060448201526064016104a3565b6116f48282815181106116dc57634e487b7160e01b600052603260045260246000fd5b6020026020010151600161159790919063ffffffff16565b1561174b5760405162461bcd60e51b815260206004820152602160248201527f6475706c6963617465642061646472657373206973206e6f7420616c6c6f77656044820152601960fa1b60648201526084016104a3565b61178682828151811061176e57634e487b7160e01b600052603260045260246000fd5b60200260200101516001611e9690919063ffffffff16565b61178f57600080fd5b7f37bdaf50464e57bc2ca69f36ace378196f59c54486a220a7051208cb4e249da08282815181106117d057634e487b7160e01b600052603260045260246000fd5b60200260200101516040516117f491906001600160a01b0391909116815260200190565b60405180910390a18061180681612140565b915050611626565b600c5460ff16156118545760405162461bcd60e51b815260206004820152601060248201526f14185d5cd8589b194e881c185d5cd95960821b60448201526064016104a3565b600c805460ff191660011790557f62e78cea01bee320cd4e420270b5ea74000d11b0c9f74754ebdbfc544b05a25861157a3390565b604051636eb1769f60e11b81526001600160a01b0382811660048301523060248301526000917f00000000000000000000000000000000000000000000000000000000000000009091169063dd62ed3e9060440160206040518083038186803b1580156118f557600080fd5b505afa158015611909573d6000803e3d6000fd5b505050506040513d601f19601f820116820180604052508101906106979190612038565b60006002600d5414156119825760405162461bcd60e51b815260206004820152601f60248201527f5265656e7472616e637947756172643a207265656e7472616e742063616c6c0060448201526064016104a3565b6002600d556040516323b872dd60e01b81526001600160a01b038481166004830152306024830152604482018490527f000000000000000000000000000000000000000000000000000000000000000016906323b872dd90606401602060405180830381600087803b1580156119f757600080fd5b505af1158015611a0b573d6000803e3d6000fd5b505050506040513d601f19601f82011682018060405250810190611a2f9190612000565b6001600d559392505050565b60008180611a47610f0f565b1015611aa65760405162461bcd60e51b815260206004820152602860248201527f526571756573746564206e756d626572206f6620746f6b656e73206e6f7420616044820152677661696c61626c6560c01b60648201526084016104a3565b82600a6000828254611ab891906120d2565b9091555050600a549392505050565b600f54604051636eb1769f60e11b81526001600160a01b0384811660048301523060248301528392169063dd62ed3e9060440160206040518083038186803b158015611b1257600080fd5b505afa158015611b26573d6000803e3d6000fd5b505050506040513d601f19601f82011682018060405250810190611b4a9190612038565b1015611b895760405162461bcd60e51b815260206004820152600e60248201526d125b9d985b1a5908185b5bdd5b9d60921b60448201526064016104a3565b600f546040516323b872dd60e01b81526001600160a01b03848116600483015230602483015260448201849052909116906323b872dd90606401602060405180830381600087803b158015611bdd57600080fd5b505af1158015611bf1573d6000803e3d6000fd5b505050506040513d601f19601f82011682018060405250810190611c159190612000565b506001600160a01b03821660009081526010602052604081208054839290611c3e9084906120d2565b90915550506001600160a01b03821660008181526011602052604090819020429055517fd241e73300212f6df233a8e6d3146b88a9d4964e06621d54b5ff6afeba7b1b8890611c909084815260200190565b60405180910390a25050565b80611ce95760405162461bcd60e51b815260206004820152601a60248201527f5a65726f2076616c7565206973206e6f7420616363657074656400000000000060448201526064016104a3565b600355565b620151808111611d4e5760405162461bcd60e51b815260206004820152602560248201527f4c6f636b2074696d65206d757374206e6f74206265206c657373207468616e20604482015264612064617960d81b60648201526084016104a3565b600e8190556040518181527f2416e279d018f03f6e6e190f55a4363348eca1c39db39c5e2019249d76142323906020015b60405180910390a150565b60008111611dda5760405162461bcd60e51b815260206004820152601960248201527f5a65726f2076616c7565206973206e6f7420616c6c6f7765640000000000000060448201526064016104a3565b60128190556040518181527f0f6e30cbea7cb67e47bd9d9c28efec570b560826aef4cf586a3b52a2e45396d190602001611d7f565b600f5460405163a9059cbb60e01b81526001600160a01b03848116600483015260248201849052600092169063a9059cbb90604401602060405180830381600087803b158015611e5e57600080fd5b505af1158015611e72573d6000803e3d6000fd5b505050506040513d601f19601f820116820180604052508101906115b59190612000565b60006115b5836001600160a01b0384166000611ec5838360009081526001919091016020526040902054151590565b611efb57508154600181810184556000848152602080822090930184905584548482528286019093526040902091909155610697565b506000610697565b80356001600160a01b0381168114611f1a57600080fd5b919050565b600060208284031215611f30578081fd5b6115b582611f03565b60006020808385031215611f4b578182fd5b823567ffffffffffffffff80821115611f62578384fd5b818501915085601f830112611f75578384fd5b813581811115611f8757611f87612171565b8060051b604051601f19603f83011681018181108582111715611fac57611fac612171565b604052828152858101935084860182860187018a1015611fca578788fd5b8795505b83861015611ff357611fdf81611f03565b855260019590950194938601938601611fce565b5098975050505050505050565b600060208284031215612011578081fd5b815180151581146115b5578182fd5b600060208284031215612031578081fd5b5035919050565b600060208284031215612049578081fd5b5051919050565b6020808252825182820181905260009190848201906040850190845b818110156120915783516001600160a01b03168352928401929184019160010161206c565b50909695505050505050565b6020808252818101527f4f776e61626c653a2063616c6c6572206973206e6f7420746865206f776e6572604082015260600190565b600082198211156120e5576120e561215b565b500190565b60008261210557634e487b7160e01b81526012600452602481fd5b500490565b60008160001904831182151516156121245761212461215b565b500290565b60008282101561213b5761213b61215b565b500390565b60006000198214156121545761215461215b565b5060010190565b634e487b7160e01b600052601160045260246000fd5b634e487b7160e01b600052604160045260246000fdfea2646970667358221220afaf032bfdf27f6b9c3d58c7c2fe1fe28fa6a74d6b6495f34522e6067139a49d64736f6c63430008040033",
  "devdoc": {
    "kind": "dev",
    "methods": {
      "availableTokenCount()": {
        "details": "Check whether tokens are still available",
        "returns": {
          "_0": "the available token count"
        }
      },
      "maxSupply()": {
        "details": "Get the max Supply",
        "returns": {
          "_0": "the maximum token count"
        }
      },
      "mint(uint256)": {
        "details": "called only when sale is startedcalled only when not paused`_amount` can't zeromust not xceed the cap",
        "params": {
          "_amount": "number of token to be minted emit Transfer"
        }
      },
      "owner()": {
        "details": "Returns the address of the current owner."
      },
      "pause()": {
        "details": "Pauses all token transfers. See {ERC721Pausable} and {Pausable-_pause}. Requirements: - the caller must have the `PAUSER_ROLE`."
      },
      "paused()": {
        "details": "Returns true if the contract is paused, and false otherwise."
      },
      "renounceOwnership()": {
        "details": "Leaves the contract without owner. It will not be possible to call `onlyOwner` functions anymore. Can only be called by the current owner. NOTE: Renouncing ownership will leave the contract without an owner, thereby removing any functionality that is only available to the owner."
      },
      "tokenCount()": {
        "details": "Get the current token count",
        "returns": {
          "_0": "the created token count"
        }
      },
      "transferOwnership(address)": {
        "details": "Transfers ownership of the contract to a new account (`newOwner`). Can only be called by the current owner."
      },
      "unpause()": {
        "details": "Unpauses all token transfers. See {ERC721Pausable} and {Pausable-_unpause}. Requirements: - the caller must have the `PAUSER_ROLE`."
      },
      "updateSaleStartTime(uint256)": {
        "details": "`__startTimeURI` must be more than the current time",
        "params": {
          "_startTime": "new _startTime"
        }
      },
      "withdraw()": {
        "details": "Withdraw accumulated balance for `wallets`"
      }
    },
    "version": 1
  },
  "userdoc": {
    "kind": "user",
    "methods": {
      "mint(uint256)": {
        "notice": "caller should pay the required price"
      },
      "updateSaleStartTime(uint256)": {
        "notice": "Only owner can call it"
      }
    },
    "version": 1
  },
  "storageLayout": {
    "storage": [
      {
        "astId": 6074,
        "contract": "contracts/AirdropedStartfiIDOWithStaking.sol:AirdropedStartfiIDOWithStaking",
        "label": "_whiteListEnabled",
        "offset": 0,
        "slot": "0",
        "type": "t_bool"
      },
      {
        "astId": 6077,
        "contract": "contracts/AirdropedStartfiIDOWithStaking.sol:AirdropedStartfiIDOWithStaking",
        "label": "_whiteList",
        "offset": 0,
        "slot": "1",
        "type": "t_struct(AddressSet)2986_storage"
      },
      {
        "astId": 5150,
        "contract": "contracts/AirdropedStartfiIDOWithStaking.sol:AirdropedStartfiIDOWithStaking",
        "label": "_baseAllocation",
        "offset": 0,
        "slot": "3",
        "type": "t_uint256"
      },
      {
        "astId": 5155,
        "contract": "contracts/AirdropedStartfiIDOWithStaking.sol:AirdropedStartfiIDOWithStaking",
        "label": "_level1",
        "offset": 0,
        "slot": "4",
        "type": "t_uint256"
      },
      {
        "astId": 5160,
        "contract": "contracts/AirdropedStartfiIDOWithStaking.sol:AirdropedStartfiIDOWithStaking",
        "label": "_level2",
        "offset": 0,
        "slot": "5",
        "type": "t_uint256"
      },
      {
        "astId": 5165,
        "contract": "contracts/AirdropedStartfiIDOWithStaking.sol:AirdropedStartfiIDOWithStaking",
        "label": "_level3",
        "offset": 0,
        "slot": "6",
        "type": "t_uint256"
      },
      {
        "astId": 5168,
        "contract": "contracts/AirdropedStartfiIDOWithStaking.sol:AirdropedStartfiIDOWithStaking",
        "label": "_level1Max",
        "offset": 0,
        "slot": "7",
        "type": "t_uint256"
      },
      {
        "astId": 5173,
        "contract": "contracts/AirdropedStartfiIDOWithStaking.sol:AirdropedStartfiIDOWithStaking",
        "label": "_level2Max",
        "offset": 0,
        "slot": "8",
        "type": "t_uint256"
      },
      {
        "astId": 5178,
        "contract": "contracts/AirdropedStartfiIDOWithStaking.sol:AirdropedStartfiIDOWithStaking",
        "label": "_level3Max",
        "offset": 0,
        "slot": "9",
        "type": "t_uint256"
      },
      {
        "astId": 5386,
        "contract": "contracts/AirdropedStartfiIDOWithStaking.sol:AirdropedStartfiIDOWithStaking",
        "label": "_tokenCount",
        "offset": 0,
        "slot": "10",
        "type": "t_uint256"
      },
      {
        "astId": 5795,
        "contract": "contracts/AirdropedStartfiIDOWithStaking.sol:AirdropedStartfiIDOWithStaking",
        "label": "_startTimeSale",
        "offset": 0,
        "slot": "11",
        "type": "t_uint256"
      },
      {
        "astId": 708,
        "contract": "contracts/AirdropedStartfiIDOWithStaking.sol:AirdropedStartfiIDOWithStaking",
        "label": "_paused",
        "offset": 0,
        "slot": "12",
        "type": "t_bool"
      },
      {
        "astId": 591,
        "contract": "contracts/AirdropedStartfiIDOWithStaking.sol:AirdropedStartfiIDOWithStaking",
        "label": "_owner",
        "offset": 1,
        "slot": "12",
        "type": "t_address"
      },
      {
        "astId": 793,
        "contract": "contracts/AirdropedStartfiIDOWithStaking.sol:AirdropedStartfiIDOWithStaking",
        "label": "_status",
        "offset": 0,
        "slot": "13",
        "type": "t_uint256"
      },
      {
        "astId": 5560,
        "contract": "contracts/AirdropedStartfiIDOWithStaking.sol:AirdropedStartfiIDOWithStaking",
        "label": "_lockDuration",
        "offset": 0,
        "slot": "14",
        "type": "t_uint256"
      },
      {
        "astId": 5562,
        "contract": "contracts/AirdropedStartfiIDOWithStaking.sol:AirdropedStartfiIDOWithStaking",
        "label": "_stakingToken",
        "offset": 0,
        "slot": "15",
        "type": "t_address"
      },
      {
        "astId": 5566,
        "contract": "contracts/AirdropedStartfiIDOWithStaking.sol:AirdropedStartfiIDOWithStaking",
        "label": "stakerTotalStakes",
        "offset": 0,
        "slot": "16",
        "type": "t_mapping(t_address,t_uint256)"
      },
      {
        "astId": 5570,
        "contract": "contracts/AirdropedStartfiIDOWithStaking.sol:AirdropedStartfiIDOWithStaking",
        "label": "stakerTimestamp",
        "offset": 0,
        "slot": "17",
        "type": "t_mapping(t_address,t_uint256)"
      },
      {
        "astId": 5874,
        "contract": "contracts/AirdropedStartfiIDOWithStaking.sol:AirdropedStartfiIDOWithStaking",
        "label": "_mintPrice",
        "offset": 0,
        "slot": "18",
        "type": "t_uint256"
      },
      {
        "astId": 5880,
        "contract": "contracts/AirdropedStartfiIDOWithStaking.sol:AirdropedStartfiIDOWithStaking",
        "label": "_wallets",
        "offset": 0,
        "slot": "19",
        "type": "t_array(t_address)dyn_storage"
      }
    ],
    "types": {
      "t_address": {
        "encoding": "inplace",
        "label": "address",
        "numberOfBytes": "20"
      },
      "t_array(t_address)dyn_storage": {
        "base": "t_address",
        "encoding": "dynamic_array",
        "label": "address[]",
        "numberOfBytes": "32"
      },
      "t_array(t_bytes32)dyn_storage": {
        "base": "t_bytes32",
        "encoding": "dynamic_array",
        "label": "bytes32[]",
        "numberOfBytes": "32"
      },
      "t_bool": {
        "encoding": "inplace",
        "label": "bool",
        "numberOfBytes": "1"
      },
      "t_bytes32": {
        "encoding": "inplace",
        "label": "bytes32",
        "numberOfBytes": "32"
      },
      "t_mapping(t_address,t_uint256)": {
        "encoding": "mapping",
        "key": "t_address",
        "label": "mapping(address => uint256)",
        "numberOfBytes": "32",
        "value": "t_uint256"
      },
      "t_mapping(t_bytes32,t_uint256)": {
        "encoding": "mapping",
        "key": "t_bytes32",
        "label": "mapping(bytes32 => uint256)",
        "numberOfBytes": "32",
        "value": "t_uint256"
      },
      "t_struct(AddressSet)2986_storage": {
        "encoding": "inplace",
        "label": "struct EnumerableSet.AddressSet",
        "members": [
          {
            "astId": 2985,
            "contract": "contracts/AirdropedStartfiIDOWithStaking.sol:AirdropedStartfiIDOWithStaking",
            "label": "_inner",
            "offset": 0,
            "slot": "0",
            "type": "t_struct(Set)2685_storage"
          }
        ],
        "numberOfBytes": "64"
      },
      "t_struct(Set)2685_storage": {
        "encoding": "inplace",
        "label": "struct EnumerableSet.Set",
        "members": [
          {
            "astId": 2680,
            "contract": "contracts/AirdropedStartfiIDOWithStaking.sol:AirdropedStartfiIDOWithStaking",
            "label": "_values",
            "offset": 0,
            "slot": "0",
            "type": "t_array(t_bytes32)dyn_storage"
          },
          {
            "astId": 2684,
            "contract": "contracts/AirdropedStartfiIDOWithStaking.sol:AirdropedStartfiIDOWithStaking",
            "label": "_indexes",
            "offset": 0,
            "slot": "1",
            "type": "t_mapping(t_bytes32,t_uint256)"
          }
        ],
        "numberOfBytes": "64"
      },
      "t_uint256": {
        "encoding": "inplace",
        "label": "uint256",
        "numberOfBytes": "32"
      }
    }
  }
}