{
  "address": "0x12acA48b130a466e2114ef5A6EF91f3bf3Ed89B2",
  "abi": [
    {
      "inputs": [
        {
          "internalType": "uint256",
          "name": "startTimeSale_",
          "type": "uint256"
        },
        {
          "internalType": "uint256",
          "name": "mintPrice_",
          "type": "uint256"
        },
        {
          "internalType": "uint256",
          "name": "maxSupply_",
          "type": "uint256"
        },
        {
          "internalType": "address[]",
          "name": "wallets_",
          "type": "address[]"
        },
        {
          "internalType": "address",
          "name": "_paymentToken",
          "type": "address"
        },
        {
          "internalType": "address",
          "name": "_token",
          "type": "address"
        },
        {
          "internalType": "address",
          "name": "staking",
          "type": "address"
        },
        {
          "internalType": "address",
          "name": "owner_",
          "type": "address"
        }
      ],
      "stateMutability": "nonpayable",
      "type": "constructor"
    },
    {
      "anonymous": false,
      "inputs": [
        {
          "indexed": true,
          "internalType": "address",
          "name": "previousOwner",
          "type": "address"
        },
        {
          "indexed": true,
          "internalType": "address",
          "name": "newOwner",
          "type": "address"
        }
      ],
      "name": "OwnershipTransferred",
      "type": "event"
    },
    {
      "anonymous": false,
      "inputs": [
        {
          "indexed": false,
          "internalType": "address",
          "name": "account",
          "type": "address"
        }
      ],
      "name": "Paused",
      "type": "event"
    },
    {
      "anonymous": false,
      "inputs": [
        {
          "indexed": false,
          "internalType": "address",
          "name": "account",
          "type": "address"
        }
      ],
      "name": "Unpaused",
      "type": "event"
    },
    {
      "anonymous": false,
      "inputs": [
        {
          "indexed": false,
          "internalType": "uint256",
          "name": "newParice",
          "type": "uint256"
        }
      ],
      "name": "UpdateMintPrice",
      "type": "event"
    },
    {
      "anonymous": false,
      "inputs": [
        {
          "indexed": false,
          "internalType": "uint256",
          "name": "newPrice",
          "type": "uint256"
        },
        {
          "indexed": false,
          "internalType": "uint256",
          "name": "oldPrice",
          "type": "uint256"
        }
      ],
      "name": "WhiteListPriceUpdated",
      "type": "event"
    },
    {
      "anonymous": false,
      "inputs": [
        {
          "indexed": false,
          "internalType": "address",
          "name": "beneficiary",
          "type": "address"
        }
      ],
      "name": "WhiteListUpdated",
      "type": "event"
    },
    {
      "anonymous": false,
      "inputs": [
        {
          "indexed": false,
          "internalType": "address",
          "name": "payee",
          "type": "address"
        },
        {
          "indexed": false,
          "internalType": "uint256",
          "name": "amount",
          "type": "uint256"
        }
      ],
      "name": "Withdrawn",
      "type": "event"
    },
    {
      "inputs": [],
      "name": "availableTokenCount",
      "outputs": [
        {
          "internalType": "uint256",
          "name": "",
          "type": "uint256"
        }
      ],
      "stateMutability": "view",
      "type": "function"
    },
    {
      "inputs": [],
      "name": "getWallets",
      "outputs": [
        {
          "internalType": "address[]",
          "name": "",
          "type": "address[]"
        }
      ],
      "stateMutability": "view",
      "type": "function"
    },
    {
      "inputs": [
        {
          "internalType": "address",
          "name": "_beneficiary",
          "type": "address"
        }
      ],
      "name": "isWhiteListed",
      "outputs": [
        {
          "internalType": "bool",
          "name": "",
          "type": "bool"
        }
      ],
      "stateMutability": "view",
      "type": "function"
    },
    {
      "inputs": [],
      "name": "maxSupply",
      "outputs": [
        {
          "internalType": "uint256",
          "name": "",
          "type": "uint256"
        }
      ],
      "stateMutability": "view",
      "type": "function"
    },
    {
      "inputs": [
        {
          "internalType": "uint256",
          "name": "_amount",
          "type": "uint256"
        },
        {
          "internalType": "uint256[]",
          "name": "proofIndexes",
          "type": "uint256[]"
        }
      ],
      "name": "mint",
      "outputs": [],
      "stateMutability": "nonpayable",
      "type": "function"
    },
    {
      "inputs": [],
      "name": "mintPrice",
      "outputs": [
        {
          "internalType": "uint256",
          "name": "",
          "type": "uint256"
        }
      ],
      "stateMutability": "view",
      "type": "function"
    },
    {
      "inputs": [],
      "name": "owner",
      "outputs": [
        {
          "internalType": "address",
          "name": "",
          "type": "address"
        }
      ],
      "stateMutability": "view",
      "type": "function"
    },
    {
      "inputs": [],
      "name": "pause",
      "outputs": [],
      "stateMutability": "nonpayable",
      "type": "function"
    },
    {
      "inputs": [],
      "name": "paused",
      "outputs": [
        {
          "internalType": "bool",
          "name": "",
          "type": "bool"
        }
      ],
      "stateMutability": "view",
      "type": "function"
    },
    {
      "inputs": [],
      "name": "renounceOwnership",
      "outputs": [],
      "stateMutability": "nonpayable",
      "type": "function"
    },
    {
      "inputs": [
        {
          "internalType": "uint256",
          "name": "price_",
          "type": "uint256"
        }
      ],
      "name": "setMintPrice",
      "outputs": [],
      "stateMutability": "nonpayable",
      "type": "function"
    },
    {
      "inputs": [
        {
          "internalType": "address[]",
          "name": "_list",
          "type": "address[]"
        }
      ],
      "name": "setWhiteList",
      "outputs": [],
      "stateMutability": "nonpayable",
      "type": "function"
    },
    {
      "inputs": [],
      "name": "startTimeSale",
      "outputs": [
        {
          "internalType": "uint256",
          "name": "",
          "type": "uint256"
        }
      ],
      "stateMutability": "view",
      "type": "function"
    },
    {
      "inputs": [],
      "name": "toggleWhiteListStatus",
      "outputs": [],
      "stateMutability": "nonpayable",
      "type": "function"
    },
    {
      "inputs": [],
      "name": "tokenCount",
      "outputs": [
        {
          "internalType": "uint256",
          "name": "",
          "type": "uint256"
        }
      ],
      "stateMutability": "view",
      "type": "function"
    },
    {
      "inputs": [
        {
          "internalType": "address",
          "name": "newOwner",
          "type": "address"
        }
      ],
      "name": "transferOwnership",
      "outputs": [],
      "stateMutability": "nonpayable",
      "type": "function"
    },
    {
      "inputs": [],
      "name": "unpause",
      "outputs": [],
      "stateMutability": "nonpayable",
      "type": "function"
    },
    {
      "inputs": [
        {
          "internalType": "uint256",
          "name": "_startTime",
          "type": "uint256"
        }
      ],
      "name": "updateSaleStartTime",
      "outputs": [],
      "stateMutability": "nonpayable",
      "type": "function"
    },
    {
      "inputs": [],
      "name": "whilteListStatus",
      "outputs": [
        {
          "internalType": "bool",
          "name": "",
          "type": "bool"
        }
      ],
      "stateMutability": "view",
      "type": "function"
    },
    {
      "inputs": [],
      "name": "withdraw",
      "outputs": [],
      "stateMutability": "nonpayable",
      "type": "function"
    }
  ],
  "transactionHash": "0x0afa6a8b30428682603c82ff8bdcbe2f5f70379608044854167431510e4bd9c3",
  "args": [
    1640704213,
    "100000000000000",
    "8888000000000000000000",
    [
      "0x2819C6d61e4c83bc53dD17D4aa00deDBe35894AA"
    ],
    "0xeD24FC36d5Ee211Ea25A80239Fb8C4Cfd80f12Ee",
    "0xbf0ffba74bbfe340788a9d951d7b3a1a261e5eb2",
    "0x2711824D10c7935D247fe1189B336d4c7e6Ed918",
    "0xe092b1fa25DF5786D151246E492Eed3d15EA4dAA"
  ],
  "solcInputHash": "d5a6033f09bf188c6ba3b999fe4833fa",
  "bytecode": "0x60e060405268925e06eec972b00000600a5569017b7883c06916600000600b556902f6f10780d22cc00000600c556969e10de76676d0800000600d8190556200004a90600362000448565b600e55600d546200005d90600662000448565b600f553480156200006d57600080fd5b5060405162001e7338038062001e73833981016040819052620000909162000301565b6001600055606083901b6001600160601b03191660805260a086905260058890556006805460ff1916905584848883620000ca336200012e565b620000d58162000188565b508251620000eb90600890602086019062000263565b5060075560601b6001600160601b03191660c0525050600980546001600160a01b0319166001600160a01b0392909216919091179055506200048a945050505050565b600680546001600160a01b03838116610100818102610100600160a81b031985161790945560405193909204169182907f8be0079c531659141344cd1fd0a4f28419497f9722a3daafe3b4186f6b6457e090600090a35050565b6006546001600160a01b03610100909104163314620001ee5760405162461bcd60e51b815260206004820181905260248201527f4f776e61626c653a2063616c6c6572206973206e6f7420746865206f776e657260448201526064015b60405180910390fd5b6001600160a01b038116620002555760405162461bcd60e51b815260206004820152602660248201527f4f776e61626c653a206e6577206f776e657220697320746865207a65726f206160448201526564647265737360d01b6064820152608401620001e5565b62000260816200012e565b50565b828054828255906000526020600020908101928215620002bb579160200282015b82811115620002bb57825182546001600160a01b0319166001600160a01b0390911617825560209092019160019091019062000284565b50620002c9929150620002cd565b5090565b5b80821115620002c95760008155600101620002ce565b80516001600160a01b0381168114620002fc57600080fd5b919050565b600080600080600080600080610100898b0312156200031e578384fd5b885160208a015160408b015160608c0151929a5090985096506001600160401b03808211156200034c578586fd5b818b0191508b601f83011262000360578586fd5b81518181111562000375576200037562000474565b8060051b604051601f19603f830116810181811085821117156200039d576200039d62000474565b8060405250809350828152602081019350602085018f6020848801011115620003c457898afd5b8995505b83861015620003f257620003dc81620002e4565b85526001959095019460209485019401620003c8565b5080995050505050506200040960808a01620002e4565b93506200041960a08a01620002e4565b92506200042960c08a01620002e4565b91506200043960e08a01620002e4565b90509295985092959890939650565b60008160001904831182151516156200046f57634e487b7160e01b81526011600452602481fd5b500290565b634e487b7160e01b600052604160045260246000fd5b60805160601c60a05160c05160601c611989620004ea60003960008181610c4001528181610d4201528181610eec0152611048015260008181610210015281816103be0152610985015260008181610b8c0152610e4b01526119896000f3fe608060405234801561001057600080fd5b506004361061012c5760003560e01c80638456cb59116100ad578063db7a460511610071578063db7a460514610234578063e14ca35314610249578063f2fde38b14610251578063f4a0a52814610264578063fa4d2c671461027757600080fd5b80638456cb59146101cd5780638da5cb5b146101d55780638da7878c146101fe5780639f181b5e14610206578063d5abeb011461020e57600080fd5b806364954df8116100f457806364954df8146101855780636817c76c1461018d5780636f9170f61461019f578063715018a6146101b2578063775b9c13146101ba57600080fd5b8063295e4edf146101315780632d69044f146101465780633ccfd60b146101595780633f4ba83a146101615780635c975abb14610169575b600080fd5b61014461013f366004611727565b610282565b005b610144610154366004611757565b610316565b61014461078c565b6101446107c6565b60065460ff165b60405190151581526020015b60405180910390f35b6101446107fe565b6007545b60405190815260200161017c565b6101706101ad366004611626565b610845565b610144610858565b6101446101c8366004611640565b610892565b6101446108cb565b60065461010090046001600160a01b03166040516001600160a01b03909116815260200161017c565b600554610191565b610191610903565b7f0000000000000000000000000000000000000000000000000000000000000000610191565b61023c610913565b60405161017c919061181c565b610191610975565b61014461025f366004611626565b6109a9565b610144610272366004611727565b610a47565b60015460ff16610170565b6006546001600160a01b036101009091041633146102bb5760405162461bcd60e51b81526004016102b290611869565b60405180910390fd5b4260055411806102cb5750600554155b61030a5760405162461bcd60e51b815260206004820152601060248201526f14d85b19481a185cc81cdd185c9d195960821b60448201526064016102b2565b61031381610ac9565b50565b60065460ff161561035c5760405162461bcd60e51b815260206004820152601060248201526f14185d5cd8589b194e881c185d5cd95960821b60448201526064016102b2565b426005541115801561036f575060055415155b6103bb5760405162461bcd60e51b815260206004820152601660248201527f53616c6520646964206e6f74207374617274207965740000000000000000000060448201526064016102b2565b827f0000000000000000000000000000000000000000000000000000000000000000816103e6610903565b6103f0919061189e565b111561043e5760405162461bcd60e51b815260206004820152601b60248201527f50757263686173652065786365656473206d617820737570706c79000000000060448201526064016102b2565b60015460ff161561049e5761045233610845565b61049e5760405162461bcd60e51b815260206004820152601460248201527f4d757374206265207768697465206c697374656400000000000000000000000060448201526064016102b2565b600084116104df5760405162461bcd60e51b815260206004820152600e60248201526d1a5b9d985b1a5917d85b5bdd5b9d60921b60448201526064016102b2565b60095460009081906001600160a01b031663e1f85e1f3387876040518463ffffffff1660e01b8152600401610516939291906117d1565b602060405180830381600087803b15801561053057600080fd5b505af1158015610544573d6000803e3d6000fd5b505050506040513d601f19601f82011682018060405250810190610568919061173f565b9050600081116105c45760405162461bcd60e51b815260206004820152602160248201527f4e6f2050617274696369706174696f6e2077697468207a65726f207374616b656044820152607360f81b60648201526084016102b2565b600a5481116105e757600d5486116105dc57856105e0565b600d545b915061061f565b600b54811161060957600e5486116105ff57856105e0565b600e54915061061f565b600f548611610618578561061c565b600f545b91505b60008261062b60075490565b61063591906118d6565b905061063f610b1d565b83111561068e5760405162461bcd60e51b815260206004820152601d60248201527f496e73756666696369656e7420636f6e74726163742062616c616e636500000060448201526064016102b2565b61069733610c18565b8111156106e65760405162461bcd60e51b815260206004820152601860248201527f496e73756666696369656e742070726963652076616c7565000000000000000060448201526064016102b2565b6106f03382610cbc565b61072d5760405162461bcd60e51b815260206004820152600e60248201526d14185e5b595b9d0819985a5b195960921b60448201526064016102b2565b6107373384610dcb565b6107835760405162461bcd60e51b815260206004820152601560248201527f7472616e7366657220746f6b656e206661696c6564000000000000000000000060448201526064016102b2565b50505050505050565b6006546001600160a01b036101009091041633146107bc5760405162461bcd60e51b81526004016102b290611869565b6107c4610e7a565b565b6006546001600160a01b036101009091041633146107f65760405162461bcd60e51b81526004016102b290611869565b6107c4611189565b6006546001600160a01b0361010090910416331461082e5760405162461bcd60e51b81526004016102b290611869565b6107c46001805460ff19811660ff90911615179055565b600061085260028361121c565b92915050565b6006546001600160a01b036101009091041633146108885760405162461bcd60e51b81526004016102b290611869565b6107c46000611241565b6006546001600160a01b036101009091041633146108c25760405162461bcd60e51b81526004016102b290611869565b610313816112a8565b6006546001600160a01b036101009091041633146108fb5760405162461bcd60e51b81526004016102b290611869565b6107c4611497565b600061090e60045490565b905090565b6060600880548060200260200160405190810160405280929190818152602001828054801561096b57602002820191906000526020600020905b81546001600160a01b0316815260019091019060200180831161094d575b5050505050905090565b600061097f610903565b61090e907f00000000000000000000000000000000000000000000000000000000000000006118f5565b6006546001600160a01b036101009091041633146109d95760405162461bcd60e51b81526004016102b290611869565b6001600160a01b038116610a3e5760405162461bcd60e51b815260206004820152602660248201527f4f776e61626c653a206e6577206f776e657220697320746865207a65726f206160448201526564647265737360d01b60648201526084016102b2565b61031381611241565b6006546001600160a01b03610100909104163314610a775760405162461bcd60e51b81526004016102b290611869565b60065460ff16610ac05760405162461bcd60e51b815260206004820152601460248201527314185d5cd8589b194e881b9bdd081c185d5cd95960621b60448201526064016102b2565b61031381611512565b428111610b185760405162461bcd60e51b815260206004820152601560248201527f43616e206e6f74207365742074696d65206261636b000000000000000000000060448201526064016102b2565b600555565b600060026000541415610b725760405162461bcd60e51b815260206004820152601f60248201527f5265656e7472616e637947756172643a207265656e7472616e742063616c6c0060448201526064016102b2565b60026000556040516370a0823160e01b81523060048201527f00000000000000000000000000000000000000000000000000000000000000006001600160a01b0316906370a082319060240160206040518083038186803b158015610bd657600080fd5b505afa158015610bea573d6000803e3d6000fd5b505050506040513d601f19601f82011682018060405250810190610c0e919061173f565b9050600160005590565b604051636eb1769f60e11b81526001600160a01b0382811660048301523060248301526000917f00000000000000000000000000000000000000000000000000000000000000009091169063dd62ed3e9060440160206040518083038186803b158015610c8457600080fd5b505afa158015610c98573d6000803e3d6000fd5b505050506040513d601f19601f82011682018060405250810190610852919061173f565b600060026000541415610d115760405162461bcd60e51b815260206004820152601f60248201527f5265656e7472616e637947756172643a207265656e7472616e742063616c6c0060448201526064016102b2565b60026000556040516323b872dd60e01b81526001600160a01b038481166004830152306024830152604482018490527f000000000000000000000000000000000000000000000000000000000000000016906323b872dd906064015b602060405180830381600087803b158015610d8757600080fd5b505af1158015610d9b573d6000803e3d6000fd5b505050506040513d601f19601f82011682018060405250810190610dbf9190611707565b60016000559392505050565b600060026000541415610e205760405162461bcd60e51b815260206004820152601f60248201527f5265656e7472616e637947756172643a207265656e7472616e742063616c6c0060448201526064016102b2565b600260005560405163a9059cbb60e01b81526001600160a01b038481166004830152602482018490527f0000000000000000000000000000000000000000000000000000000000000000169063a9059cbb90604401610d6d565b60026000541415610ecd5760405162461bcd60e51b815260206004820152601f60248201527f5265656e7472616e637947756172643a207265656e7472616e742063616c6c0060448201526064016102b2565b600260009081556008546040516370a0823160e01b81523060048201527f00000000000000000000000000000000000000000000000000000000000000006001600160a01b0316906370a082319060240160206040518083038186803b158015610f3657600080fd5b505afa158015610f4a573d6000803e3d6000fd5b505050506040513d601f19601f82011682018060405250810190610f6e919061173f565b610f7891906118b6565b905060008111610fca5760405162461bcd60e51b815260206004820152601760248201527f43616e27742073706c6974207a65726f2073686172657300000000000000000060448201526064016102b2565b60005b600854811015611180577f7084f5476618d8e60b11ef0d7d3f06914655adb8793e28ff7f018d4c76d505d56008828154811061101957634e487b7160e01b600052603260045260246000fd5b60009182526020918290200154604080516001600160a01b0390921682529181018590520160405180910390a17f00000000000000000000000000000000000000000000000000000000000000006001600160a01b031663a9059cbb6008838154811061109657634e487b7160e01b600052603260045260246000fd5b60009182526020909120015460405160e083901b6001600160e01b03191681526001600160a01b03909116600482015260248101859052604401602060405180830381600087803b1580156110ea57600080fd5b505af11580156110fe573d6000803e3d6000fd5b505050506040513d601f19601f820116820180604052508101906111229190611707565b61116e5760405162461bcd60e51b815260206004820152601760248201527f436f756c646e2774207472616e7366657220746f6b656e00000000000000000060448201526064016102b2565b806111788161190c565b915050610fcd565b50506001600055565b60065460ff166111d25760405162461bcd60e51b815260206004820152601460248201527314185d5cd8589b194e881b9bdd081c185d5cd95960621b60448201526064016102b2565b6006805460ff191690557f5db9ee0a495bf2e6ff9c91a7834c1ba4fdd244a5e8aa4e537bd38aeae4b073aa335b6040516001600160a01b03909116815260200160405180910390a1565b6001600160a01b038116600090815260018301602052604081205415155b9392505050565b600680546001600160a01b0383811661010081810274ffffffffffffffffffffffffffffffffffffffff001985161790945560405193909204169182907f8be0079c531659141344cd1fd0a4f28419497f9722a3daafe3b4186f6b6457e090600090a35050565b60005b81518110156114935760006001600160a01b03168282815181106112df57634e487b7160e01b600052603260045260246000fd5b60200260200101516001600160a01b0316141561133e5760405162461bcd60e51b815260206004820152601c60248201527f656d7074792061646472657373206973206e6f7420616c6c6f7765640000000060448201526064016102b2565b61137982828151811061136157634e487b7160e01b600052603260045260246000fd5b6020026020010151600261121c90919063ffffffff16565b156113d05760405162461bcd60e51b815260206004820152602160248201527f6475706c6963617465642061646472657373206973206e6f7420616c6c6f77656044820152601960fa1b60648201526084016102b2565b61140b8282815181106113f357634e487b7160e01b600052603260045260246000fd5b6020026020010151600261159d90919063ffffffff16565b61141457600080fd5b7f37bdaf50464e57bc2ca69f36ace378196f59c54486a220a7051208cb4e249da082828151811061145557634e487b7160e01b600052603260045260246000fd5b602002602001015160405161147991906001600160a01b0391909116815260200190565b60405180910390a18061148b8161190c565b9150506112ab565b5050565b60065460ff16156114dd5760405162461bcd60e51b815260206004820152601060248201526f14185d5cd8589b194e881c185d5cd95960821b60448201526064016102b2565b6006805460ff191660011790557f62e78cea01bee320cd4e420270b5ea74000d11b0c9f74754ebdbfc544b05a2586111ff3390565b600081116115625760405162461bcd60e51b815260206004820152601960248201527f5a65726f2076616c7565206973206e6f7420616c6c6f7765640000000000000060448201526064016102b2565b60078190556040518181527f0f6e30cbea7cb67e47bd9d9c28efec570b560826aef4cf586a3b52a2e45396d19060200160405180910390a150565b600061123a836001600160a01b03841660006115cc838360009081526001919091016020526040902054151590565b61160257508154600181810184556000848152602080822090930184905584548482528286019093526040902091909155610852565b506000610852565b80356001600160a01b038116811461162157600080fd5b919050565b600060208284031215611637578081fd5b61123a8261160a565b60006020808385031215611652578182fd5b823567ffffffffffffffff80821115611669578384fd5b818501915085601f83011261167c578384fd5b81358181111561168e5761168e61193d565b8060051b604051601f19603f830116810181811085821117156116b3576116b361193d565b604052828152858101935084860182860187018a10156116d1578788fd5b8795505b838610156116fa576116e68161160a565b8552600195909501949386019386016116d5565b5098975050505050505050565b600060208284031215611718578081fd5b8151801515811461123a578182fd5b600060208284031215611738578081fd5b5035919050565b600060208284031215611750578081fd5b5051919050565b60008060006040848603121561176b578182fd5b83359250602084013567ffffffffffffffff80821115611789578384fd5b818601915086601f83011261179c578384fd5b8135818111156117aa578485fd5b8760208260051b85010111156117be578485fd5b6020830194508093505050509250925092565b6001600160a01b0384168152604060208201819052810182905260006001600160fb1b03831115611800578081fd5b8260051b80856060850137919091016060019081529392505050565b6020808252825182820181905260009190848201906040850190845b8181101561185d5783516001600160a01b031683529284019291840191600101611838565b50909695505050505050565b6020808252818101527f4f776e61626c653a2063616c6c6572206973206e6f7420746865206f776e6572604082015260600190565b600082198211156118b1576118b1611927565b500190565b6000826118d157634e487b7160e01b81526012600452602481fd5b500490565b60008160001904831182151516156118f0576118f0611927565b500290565b60008282101561190757611907611927565b500390565b600060001982141561192057611920611927565b5060010190565b634e487b7160e01b600052601160045260246000fd5b634e487b7160e01b600052604160045260246000fdfea2646970667358221220ca492dff4ca8d489d41a62c70a8a26621b2d4f60064a1dece2f08f16b7f09bac64736f6c63430008040033",
  "devdoc": {
    "kind": "dev",
    "methods": {
      "availableTokenCount()": {
        "details": "Check whether tokens are still available",
        "returns": {
          "_0": "the available token count"
        }
      },
      "maxSupply()": {
        "details": "Get the max Supply",
        "returns": {
          "_0": "the maximum token count"
        }
      },
      "mint(uint256,uint256[])": {
        "details": "called only when sale is startedcalled only when not paused`_amount` can't zeromust not xceed the cap",
        "params": {
          "_amount": "number of token to be minted",
          "proofIndexes": "user pools index to be used, index should only be used once emit Transfer"
        }
      },
      "owner()": {
        "details": "Returns the address of the current owner."
      },
      "pause()": {
        "details": "Pauses all token transfers. See {ERC721Pausable} and {Pausable-_pause}. Requirements: - the caller must have the `PAUSER_ROLE`."
      },
      "paused()": {
        "details": "Returns true if the contract is paused, and false otherwise."
      },
      "renounceOwnership()": {
        "details": "Leaves the contract without owner. It will not be possible to call `onlyOwner` functions anymore. Can only be called by the current owner. NOTE: Renouncing ownership will leave the contract without an owner, thereby removing any functionality that is only available to the owner."
      },
      "tokenCount()": {
        "details": "Get the current token count",
        "returns": {
          "_0": "the created token count"
        }
      },
      "transferOwnership(address)": {
        "details": "Transfers ownership of the contract to a new account (`newOwner`). Can only be called by the current owner."
      },
      "unpause()": {
        "details": "Unpauses all token transfers. See {ERC721Pausable} and {Pausable-_unpause}. Requirements: - the caller must have the `PAUSER_ROLE`."
      },
      "updateSaleStartTime(uint256)": {
        "details": "`__startTimeURI` must be more than the current time",
        "params": {
          "_startTime": "new _startTime"
        }
      },
      "withdraw()": {
        "details": "Withdraw accumulated balance for `wallets`"
      }
    },
    "version": 1
  },
  "userdoc": {
    "kind": "user",
    "methods": {
      "mint(uint256,uint256[])": {
        "notice": "caller should pay the required price"
      },
      "updateSaleStartTime(uint256)": {
        "notice": "Only owner can call it"
      }
    },
    "version": 1
  },
  "storageLayout": {
    "storage": [
      {
        "astId": 793,
        "contract": "contracts/StartfiIDO.sol:StartfiIDO",
        "label": "_status",
        "offset": 0,
        "slot": "0",
        "type": "t_uint256"
      },
      {
        "astId": 4854,
        "contract": "contracts/StartfiIDO.sol:StartfiIDO",
        "label": "_whiteListEnabled",
        "offset": 0,
        "slot": "1",
        "type": "t_bool"
      },
      {
        "astId": 4857,
        "contract": "contracts/StartfiIDO.sol:StartfiIDO",
        "label": "_whiteList",
        "offset": 0,
        "slot": "2",
        "type": "t_struct(AddressSet)2986_storage"
      },
      {
        "astId": 4399,
        "contract": "contracts/StartfiIDO.sol:StartfiIDO",
        "label": "_tokenCount",
        "offset": 0,
        "slot": "4",
        "type": "t_struct(Counter)1887_storage"
      },
      {
        "astId": 4576,
        "contract": "contracts/StartfiIDO.sol:StartfiIDO",
        "label": "_startTimeSale",
        "offset": 0,
        "slot": "5",
        "type": "t_uint256"
      },
      {
        "astId": 708,
        "contract": "contracts/StartfiIDO.sol:StartfiIDO",
        "label": "_paused",
        "offset": 0,
        "slot": "6",
        "type": "t_bool"
      },
      {
        "astId": 591,
        "contract": "contracts/StartfiIDO.sol:StartfiIDO",
        "label": "_owner",
        "offset": 1,
        "slot": "6",
        "type": "t_address"
      },
      {
        "astId": 4655,
        "contract": "contracts/StartfiIDO.sol:StartfiIDO",
        "label": "_mintPrice",
        "offset": 0,
        "slot": "7",
        "type": "t_uint256"
      },
      {
        "astId": 4661,
        "contract": "contracts/StartfiIDO.sol:StartfiIDO",
        "label": "_wallets",
        "offset": 0,
        "slot": "8",
        "type": "t_array(t_address)dyn_storage"
      },
      {
        "astId": 3940,
        "contract": "contracts/StartfiIDO.sol:StartfiIDO",
        "label": "stakes",
        "offset": 0,
        "slot": "9",
        "type": "t_contract(IStartFiStakes)5009"
      },
      {
        "astId": 3945,
        "contract": "contracts/StartfiIDO.sol:StartfiIDO",
        "label": "level1",
        "offset": 0,
        "slot": "10",
        "type": "t_uint256"
      },
      {
        "astId": 3950,
        "contract": "contracts/StartfiIDO.sol:StartfiIDO",
        "label": "level2",
        "offset": 0,
        "slot": "11",
        "type": "t_uint256"
      },
      {
        "astId": 3955,
        "contract": "contracts/StartfiIDO.sol:StartfiIDO",
        "label": "level3",
        "offset": 0,
        "slot": "12",
        "type": "t_uint256"
      },
      {
        "astId": 3960,
        "contract": "contracts/StartfiIDO.sol:StartfiIDO",
        "label": "level1Max",
        "offset": 0,
        "slot": "13",
        "type": "t_uint256"
      },
      {
        "astId": 3965,
        "contract": "contracts/StartfiIDO.sol:StartfiIDO",
        "label": "level2Max",
        "offset": 0,
        "slot": "14",
        "type": "t_uint256"
      },
      {
        "astId": 3970,
        "contract": "contracts/StartfiIDO.sol:StartfiIDO",
        "label": "level3Max",
        "offset": 0,
        "slot": "15",
        "type": "t_uint256"
      }
    ],
    "types": {
      "t_address": {
        "encoding": "inplace",
        "label": "address",
        "numberOfBytes": "20"
      },
      "t_array(t_address)dyn_storage": {
        "base": "t_address",
        "encoding": "dynamic_array",
        "label": "address[]",
        "numberOfBytes": "32"
      },
      "t_array(t_bytes32)dyn_storage": {
        "base": "t_bytes32",
        "encoding": "dynamic_array",
        "label": "bytes32[]",
        "numberOfBytes": "32"
      },
      "t_bool": {
        "encoding": "inplace",
        "label": "bool",
        "numberOfBytes": "1"
      },
      "t_bytes32": {
        "encoding": "inplace",
        "label": "bytes32",
        "numberOfBytes": "32"
      },
      "t_contract(IStartFiStakes)5009": {
        "encoding": "inplace",
        "label": "contract IStartFiStakes",
        "numberOfBytes": "20"
      },
      "t_mapping(t_bytes32,t_uint256)": {
        "encoding": "mapping",
        "key": "t_bytes32",
        "label": "mapping(bytes32 => uint256)",
        "numberOfBytes": "32",
        "value": "t_uint256"
      },
      "t_struct(AddressSet)2986_storage": {
        "encoding": "inplace",
        "label": "struct EnumerableSet.AddressSet",
        "members": [
          {
            "astId": 2985,
            "contract": "contracts/StartfiIDO.sol:StartfiIDO",
            "label": "_inner",
            "offset": 0,
            "slot": "0",
            "type": "t_struct(Set)2685_storage"
          }
        ],
        "numberOfBytes": "64"
      },
      "t_struct(Counter)1887_storage": {
        "encoding": "inplace",
        "label": "struct Counters.Counter",
        "members": [
          {
            "astId": 1886,
            "contract": "contracts/StartfiIDO.sol:StartfiIDO",
            "label": "_value",
            "offset": 0,
            "slot": "0",
            "type": "t_uint256"
          }
        ],
        "numberOfBytes": "32"
      },
      "t_struct(Set)2685_storage": {
        "encoding": "inplace",
        "label": "struct EnumerableSet.Set",
        "members": [
          {
            "astId": 2680,
            "contract": "contracts/StartfiIDO.sol:StartfiIDO",
            "label": "_values",
            "offset": 0,
            "slot": "0",
            "type": "t_array(t_bytes32)dyn_storage"
          },
          {
            "astId": 2684,
            "contract": "contracts/StartfiIDO.sol:StartfiIDO",
            "label": "_indexes",
            "offset": 0,
            "slot": "1",
            "type": "t_mapping(t_bytes32,t_uint256)"
          }
        ],
        "numberOfBytes": "64"
      },
      "t_uint256": {
        "encoding": "inplace",
        "label": "uint256",
        "numberOfBytes": "32"
      }
    }
  }
}