{
  "address": "0x2711824D10c7935D247fe1189B336d4c7e6Ed918",
  "abi": [
    {
      "inputs": [
        {
          "internalType": "address",
          "name": "_stfiToken",
          "type": "address"
        },
        {
          "internalType": "address",
          "name": "_owner",
          "type": "address"
        },
        {
          "internalType": "uint256",
          "name": "_lockDuration",
          "type": "uint256"
        }
      ],
      "stateMutability": "nonpayable",
      "type": "constructor"
    },
    {
      "anonymous": false,
      "inputs": [
        {
          "indexed": false,
          "internalType": "uint256",
          "name": "duration",
          "type": "uint256"
        }
      ],
      "name": "ChangeLockDuration",
      "type": "event"
    },
    {
      "anonymous": false,
      "inputs": [
        {
          "indexed": true,
          "internalType": "address",
          "name": "diposter",
          "type": "address"
        },
        {
          "indexed": false,
          "internalType": "uint256",
          "name": "amount",
          "type": "uint256"
        }
      ],
      "name": "DepositFunds",
      "type": "event"
    },
    {
      "anonymous": false,
      "inputs": [
        {
          "indexed": false,
          "internalType": "address",
          "name": "account",
          "type": "address"
        }
      ],
      "name": "Paused",
      "type": "event"
    },
    {
      "anonymous": false,
      "inputs": [
        {
          "indexed": true,
          "internalType": "bytes32",
          "name": "role",
          "type": "bytes32"
        },
        {
          "indexed": true,
          "internalType": "bytes32",
          "name": "previousAdminRole",
          "type": "bytes32"
        },
        {
          "indexed": true,
          "internalType": "bytes32",
          "name": "newAdminRole",
          "type": "bytes32"
        }
      ],
      "name": "RoleAdminChanged",
      "type": "event"
    },
    {
      "anonymous": false,
      "inputs": [
        {
          "indexed": true,
          "internalType": "bytes32",
          "name": "role",
          "type": "bytes32"
        },
        {
          "indexed": true,
          "internalType": "address",
          "name": "account",
          "type": "address"
        },
        {
          "indexed": true,
          "internalType": "address",
          "name": "sender",
          "type": "address"
        }
      ],
      "name": "RoleGranted",
      "type": "event"
    },
    {
      "anonymous": false,
      "inputs": [
        {
          "indexed": true,
          "internalType": "bytes32",
          "name": "role",
          "type": "bytes32"
        },
        {
          "indexed": true,
          "internalType": "address",
          "name": "account",
          "type": "address"
        },
        {
          "indexed": true,
          "internalType": "address",
          "name": "sender",
          "type": "address"
        }
      ],
      "name": "RoleRevoked",
      "type": "event"
    },
    {
      "anonymous": false,
      "inputs": [
        {
          "indexed": false,
          "internalType": "address",
          "name": "account",
          "type": "address"
        }
      ],
      "name": "Unpaused",
      "type": "event"
    },
    {
      "anonymous": false,
      "inputs": [
        {
          "indexed": true,
          "internalType": "address",
          "name": "diposter",
          "type": "address"
        },
        {
          "indexed": false,
          "internalType": "uint256",
          "name": "amount",
          "type": "uint256"
        }
      ],
      "name": "WithdrawFunds",
      "type": "event"
    },
    {
      "inputs": [],
      "name": "DEFAULT_ADMIN_ROLE",
      "outputs": [
        {
          "internalType": "bytes32",
          "name": "",
          "type": "bytes32"
        }
      ],
      "stateMutability": "view",
      "type": "function"
    },
    {
      "inputs": [],
      "name": "IDO_ROLE",
      "outputs": [
        {
          "internalType": "bytes32",
          "name": "",
          "type": "bytes32"
        }
      ],
      "stateMutability": "view",
      "type": "function"
    },
    {
      "inputs": [],
      "name": "OWNER_ROLE",
      "outputs": [
        {
          "internalType": "bytes32",
          "name": "",
          "type": "bytes32"
        }
      ],
      "stateMutability": "view",
      "type": "function"
    },
    {
      "inputs": [
        {
          "internalType": "address",
          "name": "user",
          "type": "address"
        },
        {
          "internalType": "uint256[]",
          "name": "proofIndexes",
          "type": "uint256[]"
        }
      ],
      "name": "ValidateStakes",
      "outputs": [
        {
          "internalType": "uint256",
          "name": "reservAmount",
          "type": "uint256"
        }
      ],
      "stateMutability": "nonpayable",
      "type": "function"
    },
    {
      "inputs": [
        {
          "internalType": "address",
          "name": "user",
          "type": "address"
        },
        {
          "internalType": "uint256",
          "name": "amount",
          "type": "uint256"
        }
      ],
      "name": "deposit",
      "outputs": [],
      "stateMutability": "nonpayable",
      "type": "function"
    },
    {
      "inputs": [
        {
          "internalType": "uint256[]",
          "name": "proofIndexes",
          "type": "uint256[]"
        }
      ],
      "name": "emergencyWithdraw",
      "outputs": [],
      "stateMutability": "nonpayable",
      "type": "function"
    },
    {
      "inputs": [
        {
          "internalType": "address",
          "name": "_owner",
          "type": "address"
        }
      ],
      "name": "getReserves",
      "outputs": [
        {
          "internalType": "uint256",
          "name": "",
          "type": "uint256"
        }
      ],
      "stateMutability": "view",
      "type": "function"
    },
    {
      "inputs": [
        {
          "internalType": "bytes32",
          "name": "role",
          "type": "bytes32"
        }
      ],
      "name": "getRoleAdmin",
      "outputs": [
        {
          "internalType": "bytes32",
          "name": "",
          "type": "bytes32"
        }
      ],
      "stateMutability": "view",
      "type": "function"
    },
    {
      "inputs": [
        {
          "internalType": "bytes32",
          "name": "role",
          "type": "bytes32"
        },
        {
          "internalType": "uint256",
          "name": "index",
          "type": "uint256"
        }
      ],
      "name": "getRoleMember",
      "outputs": [
        {
          "internalType": "address",
          "name": "",
          "type": "address"
        }
      ],
      "stateMutability": "view",
      "type": "function"
    },
    {
      "inputs": [
        {
          "internalType": "bytes32",
          "name": "role",
          "type": "bytes32"
        }
      ],
      "name": "getRoleMemberCount",
      "outputs": [
        {
          "internalType": "uint256",
          "name": "",
          "type": "uint256"
        }
      ],
      "stateMutability": "view",
      "type": "function"
    },
    {
      "inputs": [
        {
          "internalType": "address",
          "name": "_user",
          "type": "address"
        },
        {
          "internalType": "uint256",
          "name": "index",
          "type": "uint256"
        }
      ],
      "name": "getUserPoolDetails",
      "outputs": [
        {
          "internalType": "uint256",
          "name": "amount",
          "type": "uint256"
        },
        {
          "internalType": "bool",
          "name": "locked",
          "type": "bool"
        },
        {
          "internalType": "bool",
          "name": "reservedToIDO",
          "type": "bool"
        }
      ],
      "stateMutability": "view",
      "type": "function"
    },
    {
      "inputs": [
        {
          "internalType": "address",
          "name": "_user",
          "type": "address"
        }
      ],
      "name": "getUserPoolLenght",
      "outputs": [
        {
          "internalType": "uint256",
          "name": "",
          "type": "uint256"
        }
      ],
      "stateMutability": "view",
      "type": "function"
    },
    {
      "inputs": [
        {
          "internalType": "bytes32",
          "name": "role",
          "type": "bytes32"
        },
        {
          "internalType": "address",
          "name": "account",
          "type": "address"
        }
      ],
      "name": "grantRole",
      "outputs": [],
      "stateMutability": "nonpayable",
      "type": "function"
    },
    {
      "inputs": [
        {
          "internalType": "bytes32",
          "name": "role",
          "type": "bytes32"
        },
        {
          "internalType": "address",
          "name": "account",
          "type": "address"
        }
      ],
      "name": "hasRole",
      "outputs": [
        {
          "internalType": "bool",
          "name": "",
          "type": "bool"
        }
      ],
      "stateMutability": "view",
      "type": "function"
    },
    {
      "inputs": [],
      "name": "pause",
      "outputs": [],
      "stateMutability": "nonpayable",
      "type": "function"
    },
    {
      "inputs": [],
      "name": "paused",
      "outputs": [
        {
          "internalType": "bool",
          "name": "",
          "type": "bool"
        }
      ],
      "stateMutability": "view",
      "type": "function"
    },
    {
      "inputs": [
        {
          "internalType": "bytes32",
          "name": "role",
          "type": "bytes32"
        },
        {
          "internalType": "address",
          "name": "account",
          "type": "address"
        }
      ],
      "name": "renounceRole",
      "outputs": [],
      "stateMutability": "nonpayable",
      "type": "function"
    },
    {
      "inputs": [
        {
          "internalType": "bytes32",
          "name": "role",
          "type": "bytes32"
        },
        {
          "internalType": "address",
          "name": "account",
          "type": "address"
        }
      ],
      "name": "revokeRole",
      "outputs": [],
      "stateMutability": "nonpayable",
      "type": "function"
    },
    {
      "inputs": [
        {
          "internalType": "bytes4",
          "name": "interfaceId",
          "type": "bytes4"
        }
      ],
      "name": "supportsInterface",
      "outputs": [
        {
          "internalType": "bool",
          "name": "",
          "type": "bool"
        }
      ],
      "stateMutability": "view",
      "type": "function"
    },
    {
      "inputs": [],
      "name": "unpause",
      "outputs": [],
      "stateMutability": "nonpayable",
      "type": "function"
    },
    {
      "inputs": [
        {
          "internalType": "uint256",
          "name": "_duration",
          "type": "uint256"
        }
      ],
      "name": "updateLockDuration",
      "outputs": [],
      "stateMutability": "nonpayable",
      "type": "function"
    },
    {
      "inputs": [
        {
          "internalType": "uint256",
          "name": "amount",
          "type": "uint256"
        },
        {
          "internalType": "uint256[]",
          "name": "proofIndexes",
          "type": "uint256[]"
        }
      ],
      "name": "withdraw",
      "outputs": [],
      "stateMutability": "nonpayable",
      "type": "function"
    }
  ],
  "transactionHash": "0xe562c7dd17a477707a19108aa84bd045ff0f115a7e0e5f22ebdb4f8ee62c3ece",
  "args": [
    "0x4e85a1047860733a74a24db836c8e6878945185d",
    "0xe092b1fa25DF5786D151246E492Eed3d15EA4dAA",
    420
  ],
  "solcInputHash": "d5a6033f09bf188c6ba3b999fe4833fa",
  "bytecode": "0x60806040523480156200001157600080fd5b506040516200219938038062002199833981016040819052620000349162000229565b6000805460ff1916815560018055600780546001600160a01b0319166001600160a01b03861617905560048290556200006e9083620000a3565b6200009a7fb19546dff01e856fb3f010c267a7b1c60363cf8a4664e21cc89c26224620214e83620000a3565b50505062000269565b620000ba8282620000e660201b620013141760201c565b6000828152600360209081526040909120620000e191839062001322620000f6821b17901c565b505050565b620000f2828262000116565b5050565b60006200010d836001600160a01b038416620001ba565b90505b92915050565b60008281526002602090815260408083206001600160a01b038516845290915290205460ff16620000f25760008281526002602090815260408083206001600160a01b03851684529091529020805460ff19166001179055620001763390565b6001600160a01b0316816001600160a01b0316837f2f8788117e7eff1d82e926ec794901d17c78024a50270940304540a733656f0d60405160405180910390a45050565b6000818152600183016020526040812054620002035750815460018181018455600084815260208082209093018490558454848252828601909352604090209190915562000110565b50600062000110565b80516001600160a01b03811681146200022457600080fd5b919050565b6000806000606084860312156200023e578283fd5b62000249846200020c565b925062000259602085016200020c565b9150604084015190509250925092565b611f2080620002796000396000f3fe608060405234801561001057600080fd5b50600436106101625760003560e01c80638456cb59116100c8578063ca15c8731161008c578063d547741f11610066578063d547741f14610377578063e1f85e1f1461038a578063e58378bb1461039d57600080fd5b8063ca15c8731461033e578063d1941b0614610351578063d477edf41461036457600080fd5b80638456cb59146102a35780639010d07c146102ab57806391d14854146102d6578063a0cf36ea1461030f578063a217fddf1461033657600080fd5b80633f4ba83a1161012a5780635915d806116101045780635915d8061461025c5780635a7c12a41461026f5780635c975abb1461029857600080fd5b80633f4ba83a1461021157806345ffc9db1461021957806347e7ef241461024957600080fd5b806301ffc9a714610167578063248a9ca31461018f5780632f2ff15d146101c057806336568abe146101d55780633e99c1e4146101e8575b600080fd5b61017a610175366004611d0b565b6103c4565b60405190151581526020015b60405180910390f35b6101b261019d366004611ca7565b60009081526002602052604090206001015490565b604051908152602001610186565b6101d36101ce366004611cbf565b6103ef565b005b6101d36101e3366004611cbf565b610416565b6101b26101f6366004611bb3565b6001600160a01b031660009081526005602052604090205490565b6101d3610438565b61022c610227366004611c1e565b610500565b604080519384529115156020840152151590820152606001610186565b6101d3610257366004611c1e565b61061f565b6101d361026a366004611d4b565b610872565b6101b261027d366004611bb3565b6001600160a01b031660009081526006602052604090205490565b60005460ff1661017a565b6101d3610c73565b6102be6102b9366004611cea565b610d31565b6040516001600160a01b039091168152602001610186565b61017a6102e4366004611cbf565b60009182526002602090815260408084206001600160a01b0393909316845291905290205460ff1690565b6101b27f062f9ed91714f2528ca4e5fa3c2df24b0c0b0bea3c1478809e723db55d861df681565b6101b2600081565b6101b261034c366004611ca7565b610d50565b6101d361035f366004611c47565b610d67565b6101d3610372366004611ca7565b610f12565b6101d3610385366004611cbf565b611015565b6101b2610398366004611bcd565b61101f565b6101b27fb19546dff01e856fb3f010c267a7b1c60363cf8a4664e21cc89c26224620214e81565b60006001600160e01b03198216635a05180f60e01b14806103e957506103e982611337565b92915050565b6103f9828261136c565b60008281526003602052604090206104119082611322565b505050565b6104208282611392565b6000828152600360205260409020610411908261140c565b6104627fb19546dff01e856fb3f010c267a7b1c60363cf8a4664e21cc89c26224620214e336102e4565b6104ad5760405162461bcd60e51b815260206004820152601760248201527631b0b63632b91034b9903737ba103a34329037bbb732b960491b60448201526064015b60405180910390fd5b60005460ff166104f65760405162461bcd60e51b815260206004820152601460248201527314185d5cd8589b194e881b9bdd081c185d5cd95960621b60448201526064016104a4565b6104fe611421565b565b6001600160a01b03821660009081526006602052604081208054829182918590811061053c57634e487b7160e01b600052603260045260246000fd5b90600052602060002090600302016000015492504260045460066000886001600160a01b03166001600160a01b03168152602001908152602001600020868154811061059857634e487b7160e01b600052603260045260246000fd5b9060005260206000209060030201600101546105b49190611e24565b1115915060066000866001600160a01b03166001600160a01b0316815260200190815260200160002084815481106105fc57634e487b7160e01b600052603260045260246000fd5b600091825260209091206002600390920201015492959194505060ff9091169150565b60005460ff16156106655760405162461bcd60e51b815260206004820152601060248201526f14185d5cd8589b194e881c185d5cd95960821b60448201526064016104a4565b600260015414156106b85760405162461bcd60e51b815260206004820152601f60248201527f5265656e7472616e637947756172643a207265656e7472616e742063616c6c0060448201526064016104a4565b6002600155806106c7336114b4565b10156107065760405162461bcd60e51b815260206004820152600e60248201526d125b9d985b1a5908185b5bdd5b9d60921b60448201526064016104a4565b6007546001600160a01b03166323b872dd336040516001600160e01b031960e084901b1681526001600160a01b03909116600482015230602482015260448101849052606401602060405180830381600087803b15801561076657600080fd5b505af115801561077a573d6000803e3d6000fd5b505050506040513d601f19601f8201168201806040525081019061079e9190611c87565b506001600160a01b03821660008181526006602090815260408083208151606081018352868152428185019081528184018681528354600180820186559488528688209351600390910290930192835590519282019290925590516002909101805460ff1916911515919091179055928252600590529081208054839290610827908490611e24565b90915550506040518181526001600160a01b038316907fd241e73300212f6df233a8e6d3146b88a9d4964e06621d54b5ff6afeba7b1b889060200160405180910390a2505060018055565b60005460ff16156108b85760405162461bcd60e51b815260206004820152601060248201526f14185d5cd8589b194e881c185d5cd95960821b60448201526064016104a4565b6002600154141561090b5760405162461bcd60e51b815260206004820152601f60248201527f5265656e7472616e637947756172643a207265656e7472616e742063616c6c0060448201526064016104a4565b6002600155336000908152600560205260409020548311156109605760405162461bcd60e51b815260206004820152600e60248201526d125b9d985b1a5908185b5bdd5b9d60921b60448201526064016104a4565b3360009081526006602052604081209084905b83811015610bf9578115610be7576000838686848181106109a457634e487b7160e01b600052603260045260246000fd5b90506020020135815481106109c957634e487b7160e01b600052603260045260246000fd5b906000526020600020906003020160000154118015610a4c57504260045484878785818110610a0857634e487b7160e01b600052603260045260246000fd5b9050602002013581548110610a2d57634e487b7160e01b600052603260045260246000fd5b906000526020600020906003020160010154610a499190611e24565b11155b610a5557600080fd5b82858583818110610a7657634e487b7160e01b600052603260045260246000fd5b9050602002013581548110610a9b57634e487b7160e01b600052603260045260246000fd5b9060005260206000209060030201600001548210610b7657600083868684818110610ad657634e487b7160e01b600052603260045260246000fd5b9050602002013581548110610afb57634e487b7160e01b600052603260045260246000fd5b600091825260209091206003909102015582858583818110610b2d57634e487b7160e01b600052603260045260246000fd5b9050602002013581548110610b5257634e487b7160e01b600052603260045260246000fd5b90600052602060002090600302016000015482610b6f9190611e5b565b9150610be7565b8183868684818110610b9857634e487b7160e01b600052603260045260246000fd5b9050602002013581548110610bbd57634e487b7160e01b600052603260045260246000fd5b90600052602060002090600302016000016000828254610bdd9190611e5b565b9091555060009250505b80610bf181611eb9565b915050610973565b50610c043386611538565b5033600090815260056020526040902054610c20908690611e5b565b33600081815260056020908152604091829020939093555187815290917f21901fa892c430ea8bd38b9390225ac8e67eac75ee10ffba16feefc539a288f9910160405180910390a2505060018055505050565b610c9d7fb19546dff01e856fb3f010c267a7b1c60363cf8a4664e21cc89c26224620214e336102e4565b610ce35760405162461bcd60e51b815260206004820152601760248201527631b0b63632b91034b9903737ba103a34329037bbb732b960491b60448201526064016104a4565b60005460ff1615610d295760405162461bcd60e51b815260206004820152601060248201526f14185d5cd8589b194e881c185d5cd95960821b60448201526064016104a4565b6104fe6115bf565b6000828152600360205260408120610d49908361163a565b9392505050565b60008181526003602052604081206103e990611646565b60005460ff16610db05760405162461bcd60e51b815260206004820152601460248201527314185d5cd8589b194e881b9bdd081c185d5cd95960621b60448201526064016104a4565b60026001541415610e035760405162461bcd60e51b815260206004820152601f60248201527f5265656e7472616e637947756172643a207265656e7472616e742063616c6c0060448201526064016104a4565b600260015533600090815260066020526040812090805b83811015610e995782858583818110610e4357634e487b7160e01b600052603260045260246000fd5b9050602002013581548110610e6857634e487b7160e01b600052603260045260246000fd5b90600052602060002090600302016000015482610e859190611e24565b915080610e9181611eb9565b915050610e1a565b50610ea43382611538565b5033600090815260056020526040902054610ec0908290611e5b565b33600081815260056020908152604091829020939093555183815290917f21901fa892c430ea8bd38b9390225ac8e67eac75ee10ffba16feefc539a288f9910160405180910390a25050600180555050565b610f3c7fb19546dff01e856fb3f010c267a7b1c60363cf8a4664e21cc89c26224620214e336102e4565b610f825760405162461bcd60e51b815260206004820152601760248201527631b0b63632b91034b9903737ba103a34329037bbb732b960491b60448201526064016104a4565b60005460ff16610fcb5760405162461bcd60e51b815260206004820152601460248201527314185d5cd8589b194e881b9bdd081c185d5cd95960621b60448201526064016104a4565b620151808111610fda57600080fd5b60048190556040518181527f2416e279d018f03f6e6e190f55a4363348eca1c39db39c5e2019249d761423239060200160405180910390a150565b6104208282611650565b600061104b7f062f9ed91714f2528ca4e5fa3c2df24b0c0b0bea3c1478809e723db55d861df6336102e4565b61108b5760405162461bcd60e51b815260206004820152601160248201527063616c6c6572206973206e6f742049444f60781b60448201526064016104a4565b60005460ff16156110d15760405162461bcd60e51b815260206004820152601060248201526f14185d5cd8589b194e881c185d5cd95960821b60448201526064016104a4565b6001600160a01b0384166000908152600660205260408120905b8381101561130b578185858381811061111457634e487b7160e01b600052603260045260246000fd5b905060200201358154811061113957634e487b7160e01b600052603260045260246000fd5b600091825260209091206002600390920201015460ff161580156111b4575060008286868481811061117b57634e487b7160e01b600052603260045260246000fd5b90506020020135815481106111a057634e487b7160e01b600052603260045260246000fd5b906000526020600020906003020160000154115b8015611224575042600454838787858181106111e057634e487b7160e01b600052603260045260246000fd5b905060200201358154811061120557634e487b7160e01b600052603260045260246000fd5b9060005260206000209060030201600101546112219190611e24565b11155b156112f9578185858381811061124a57634e487b7160e01b600052603260045260246000fd5b905060200201358154811061126f57634e487b7160e01b600052603260045260246000fd5b9060005260206000209060030201600001548361128c9190611e24565b92506001828686848181106112b157634e487b7160e01b600052603260045260246000fd5b90506020020135815481106112d657634e487b7160e01b600052603260045260246000fd5b60009182526020909120600390910201600201805460ff19169115159190911790555b8061130381611eb9565b9150506110eb565b50509392505050565b61131e8282611676565b5050565b6000610d49836001600160a01b0384166116fc565b60006001600160e01b03198216637965db0b60e01b14806103e957506301ffc9a760e01b6001600160e01b03198316146103e9565b600082815260026020526040902060010154611388813361174b565b6104118383611676565b6001600160a01b03811633146114025760405162461bcd60e51b815260206004820152602f60248201527f416363657373436f6e74726f6c3a2063616e206f6e6c792072656e6f756e636560448201526e103937b632b9903337b91039b2b63360891b60648201526084016104a4565b61131e82826117af565b6000610d49836001600160a01b038416611816565b60005460ff1661146a5760405162461bcd60e51b815260206004820152601460248201527314185d5cd8589b194e881b9bdd081c185d5cd95960621b60448201526064016104a4565b6000805460ff191690557f5db9ee0a495bf2e6ff9c91a7834c1ba4fdd244a5e8aa4e537bd38aeae4b073aa335b6040516001600160a01b03909116815260200160405180910390a1565b600754604051636eb1769f60e11b81526001600160a01b038381166004830152306024830152600092169063dd62ed3e9060440160206040518083038186803b15801561150057600080fd5b505afa158015611514573d6000803e3d6000fd5b505050506040513d601f19601f820116820180604052508101906103e99190611d33565b60075460405163a9059cbb60e01b81526001600160a01b03848116600483015260248201849052600092169063a9059cbb90604401602060405180830381600087803b15801561158757600080fd5b505af115801561159b573d6000803e3d6000fd5b505050506040513d601f19601f82011682018060405250810190610d499190611c87565b60005460ff16156116055760405162461bcd60e51b815260206004820152601060248201526f14185d5cd8589b194e881c185d5cd95960821b60448201526064016104a4565b6000805460ff191660011790557f62e78cea01bee320cd4e420270b5ea74000d11b0c9f74754ebdbfc544b05a2586114973390565b6000610d498383611933565b60006103e9825490565b60008281526002602052604090206001015461166c813361174b565b61041183836117af565b61168082826102e4565b61131e5760008281526002602090815260408083206001600160a01b03851684529091529020805460ff191660011790556116b83390565b6001600160a01b0316816001600160a01b0316837f2f8788117e7eff1d82e926ec794901d17c78024a50270940304540a733656f0d60405160405180910390a45050565b6000818152600183016020526040812054611743575081546001818101845560008481526020808220909301849055845484825282860190935260409020919091556103e9565b5060006103e9565b61175582826102e4565b61131e5761176d816001600160a01b0316601461196b565b61177883602061196b565b604051602001611789929190611d7c565b60408051601f198184030181529082905262461bcd60e51b82526104a491600401611df1565b6117b982826102e4565b1561131e5760008281526002602090815260408083206001600160a01b0385168085529252808320805460ff1916905551339285917ff6391f5c32d9c69d2a47ea670b442974b53935d1edc7fd64eb21e047a839171b9190a45050565b6000818152600183016020526040812054801561192957600061183a600183611e5b565b855490915060009061184e90600190611e5b565b90508181146118cf57600086600001828154811061187c57634e487b7160e01b600052603260045260246000fd5b90600052602060002001549050808760000184815481106118ad57634e487b7160e01b600052603260045260246000fd5b6000918252602080832090910192909255918252600188019052604090208390555b85548690806118ee57634e487b7160e01b600052603160045260246000fd5b6001900381819060005260206000200160009055905585600101600086815260200190815260200160002060009055600193505050506103e9565b60009150506103e9565b600082600001828154811061195857634e487b7160e01b600052603260045260246000fd5b9060005260206000200154905092915050565b6060600061197a836002611e3c565b611985906002611e24565b67ffffffffffffffff8111156119ab57634e487b7160e01b600052604160045260246000fd5b6040519080825280601f01601f1916602001820160405280156119d5576020820181803683370190505b509050600360fc1b816000815181106119fe57634e487b7160e01b600052603260045260246000fd5b60200101906001600160f81b031916908160001a905350600f60fb1b81600181518110611a3b57634e487b7160e01b600052603260045260246000fd5b60200101906001600160f81b031916908160001a9053506000611a5f846002611e3c565b611a6a906001611e24565b90505b6001811115611afe576f181899199a1a9b1b9c1cb0b131b232b360811b85600f1660108110611aac57634e487b7160e01b600052603260045260246000fd5b1a60f81b828281518110611ad057634e487b7160e01b600052603260045260246000fd5b60200101906001600160f81b031916908160001a90535060049490941c93611af781611ea2565b9050611a6d565b508315610d495760405162461bcd60e51b815260206004820181905260248201527f537472696e67733a20686578206c656e67746820696e73756666696369656e7460448201526064016104a4565b80356001600160a01b0381168114611b6457600080fd5b919050565b60008083601f840112611b7a578182fd5b50813567ffffffffffffffff811115611b91578182fd5b6020830191508360208260051b8501011115611bac57600080fd5b9250929050565b600060208284031215611bc4578081fd5b610d4982611b4d565b600080600060408486031215611be1578182fd5b611bea84611b4d565b9250602084013567ffffffffffffffff811115611c05578283fd5b611c1186828701611b69565b9497909650939450505050565b60008060408385031215611c30578182fd5b611c3983611b4d565b946020939093013593505050565b60008060208385031215611c59578182fd5b823567ffffffffffffffff811115611c6f578283fd5b611c7b85828601611b69565b90969095509350505050565b600060208284031215611c98578081fd5b81518015158114610d49578182fd5b600060208284031215611cb8578081fd5b5035919050565b60008060408385031215611cd1578182fd5b82359150611ce160208401611b4d565b90509250929050565b60008060408385031215611cfc578182fd5b50508035926020909101359150565b600060208284031215611d1c578081fd5b81356001600160e01b031981168114610d49578182fd5b600060208284031215611d44578081fd5b5051919050565b600080600060408486031215611d5f578283fd5b83359250602084013567ffffffffffffffff811115611c05578283fd5b7f416363657373436f6e74726f6c3a206163636f756e7420000000000000000000815260008351611db4816017850160208801611e72565b7001034b99036b4b9b9b4b733903937b6329607d1b6017918401918201528351611de5816028840160208801611e72565b01602801949350505050565b6020815260008251806020840152611e10816040850160208701611e72565b601f01601f19169190910160400192915050565b60008219821115611e3757611e37611ed4565b500190565b6000816000190483118215151615611e5657611e56611ed4565b500290565b600082821015611e6d57611e6d611ed4565b500390565b60005b83811015611e8d578181015183820152602001611e75565b83811115611e9c576000848401525b50505050565b600081611eb157611eb1611ed4565b506000190190565b6000600019821415611ecd57611ecd611ed4565b5060010190565b634e487b7160e01b600052601160045260246000fdfea2646970667358221220b8812c5f587ea58e1be4838038ea613d2b6970340cda4183cbb18b543188d4c564736f6c63430008040033",
  "devdoc": {
    "kind": "dev",
    "methods": {
      "getRoleAdmin(bytes32)": {
        "details": "Returns the admin role that controls `role`. See {grantRole} and {revokeRole}. To change a role's admin, use {_setRoleAdmin}."
      },
      "getRoleMember(bytes32,uint256)": {
        "details": "Returns one of the accounts that have `role`. `index` must be a value between 0 and {getRoleMemberCount}, non-inclusive. Role bearers are not sorted in any particular way, and their ordering may change at any point. WARNING: When using {getRoleMember} and {getRoleMemberCount}, make sure you perform all queries on the same block. See the following https://forum.openzeppelin.com/t/iterating-over-elements-on-enumerableset-in-openzeppelin-contracts/2296[forum post] for more information."
      },
      "getRoleMemberCount(bytes32)": {
        "details": "Returns the number of accounts that have `role`. Can be used together with {getRoleMember} to enumerate all bearers of a role."
      },
      "grantRole(bytes32,address)": {
        "details": "Overload {grantRole} to track enumerable memberships"
      },
      "hasRole(bytes32,address)": {
        "details": "Returns `true` if `account` has been granted `role`."
      },
      "pause()": {
        "details": "Pauses contract. Requirements: - the caller must be the owner."
      },
      "paused()": {
        "details": "Returns true if the contract is paused, and false otherwise."
      },
      "renounceRole(bytes32,address)": {
        "details": "Overload {renounceRole} to track enumerable memberships"
      },
      "revokeRole(bytes32,address)": {
        "details": "Overload {revokeRole} to track enumerable memberships"
      },
      "supportsInterface(bytes4)": {
        "details": "See {IERC165-supportsInterface}."
      },
      "unpause()": {
        "details": "Unpauses contract. Requirements: - the caller must be the owner."
      }
    },
    "title": "StartFi Stakes [ desc ] : contract to hold users stakes",
    "version": 1
  },
  "userdoc": {
    "kind": "user",
    "methods": {},
    "notice": ": the logic behind this contract is not implemented yet, this is just a basic design for the sake of testing the marketplace cycle",
    "version": 1
  },
  "storageLayout": {
    "storage": [
      {
        "astId": 708,
        "contract": "contracts/StartFiStakes.sol:StartFiStakes",
        "label": "_paused",
        "offset": 0,
        "slot": "0",
        "type": "t_bool"
      },
      {
        "astId": 793,
        "contract": "contracts/StartFiStakes.sol:StartFiStakes",
        "label": "_status",
        "offset": 0,
        "slot": "1",
        "type": "t_uint256"
      },
      {
        "astId": 24,
        "contract": "contracts/StartFiStakes.sol:StartFiStakes",
        "label": "_roles",
        "offset": 0,
        "slot": "2",
        "type": "t_mapping(t_bytes32,t_struct(RoleData)19_storage)"
      },
      {
        "astId": 325,
        "contract": "contracts/StartFiStakes.sol:StartFiStakes",
        "label": "_roleMembers",
        "offset": 0,
        "slot": "3",
        "type": "t_mapping(t_bytes32,t_struct(AddressSet)2986_storage)"
      },
      {
        "astId": 3305,
        "contract": "contracts/StartFiStakes.sol:StartFiStakes",
        "label": "lockDuration",
        "offset": 0,
        "slot": "4",
        "type": "t_uint256"
      },
      {
        "astId": 3309,
        "contract": "contracts/StartFiStakes.sol:StartFiStakes",
        "label": "stakerTotalStakes",
        "offset": 0,
        "slot": "5",
        "type": "t_mapping(t_address,t_uint256)"
      },
      {
        "astId": 3315,
        "contract": "contracts/StartFiStakes.sol:StartFiStakes",
        "label": "stakerPools",
        "offset": 0,
        "slot": "6",
        "type": "t_mapping(t_address,t_array(t_struct(userPools)3303_storage)dyn_storage)"
      },
      {
        "astId": 3317,
        "contract": "contracts/StartFiStakes.sol:StartFiStakes",
        "label": "stfiToken",
        "offset": 0,
        "slot": "7",
        "type": "t_address"
      }
    ],
    "types": {
      "t_address": {
        "encoding": "inplace",
        "label": "address",
        "numberOfBytes": "20"
      },
      "t_array(t_bytes32)dyn_storage": {
        "base": "t_bytes32",
        "encoding": "dynamic_array",
        "label": "bytes32[]",
        "numberOfBytes": "32"
      },
      "t_array(t_struct(userPools)3303_storage)dyn_storage": {
        "base": "t_struct(userPools)3303_storage",
        "encoding": "dynamic_array",
        "label": "struct StartFiStakes.userPools[]",
        "numberOfBytes": "32"
      },
      "t_bool": {
        "encoding": "inplace",
        "label": "bool",
        "numberOfBytes": "1"
      },
      "t_bytes32": {
        "encoding": "inplace",
        "label": "bytes32",
        "numberOfBytes": "32"
      },
      "t_mapping(t_address,t_array(t_struct(userPools)3303_storage)dyn_storage)": {
        "encoding": "mapping",
        "key": "t_address",
        "label": "mapping(address => struct StartFiStakes.userPools[])",
        "numberOfBytes": "32",
        "value": "t_array(t_struct(userPools)3303_storage)dyn_storage"
      },
      "t_mapping(t_address,t_bool)": {
        "encoding": "mapping",
        "key": "t_address",
        "label": "mapping(address => bool)",
        "numberOfBytes": "32",
        "value": "t_bool"
      },
      "t_mapping(t_address,t_uint256)": {
        "encoding": "mapping",
        "key": "t_address",
        "label": "mapping(address => uint256)",
        "numberOfBytes": "32",
        "value": "t_uint256"
      },
      "t_mapping(t_bytes32,t_struct(AddressSet)2986_storage)": {
        "encoding": "mapping",
        "key": "t_bytes32",
        "label": "mapping(bytes32 => struct EnumerableSet.AddressSet)",
        "numberOfBytes": "32",
        "value": "t_struct(AddressSet)2986_storage"
      },
      "t_mapping(t_bytes32,t_struct(RoleData)19_storage)": {
        "encoding": "mapping",
        "key": "t_bytes32",
        "label": "mapping(bytes32 => struct AccessControl.RoleData)",
        "numberOfBytes": "32",
        "value": "t_struct(RoleData)19_storage"
      },
      "t_mapping(t_bytes32,t_uint256)": {
        "encoding": "mapping",
        "key": "t_bytes32",
        "label": "mapping(bytes32 => uint256)",
        "numberOfBytes": "32",
        "value": "t_uint256"
      },
      "t_struct(AddressSet)2986_storage": {
        "encoding": "inplace",
        "label": "struct EnumerableSet.AddressSet",
        "members": [
          {
            "astId": 2985,
            "contract": "contracts/StartFiStakes.sol:StartFiStakes",
            "label": "_inner",
            "offset": 0,
            "slot": "0",
            "type": "t_struct(Set)2685_storage"
          }
        ],
        "numberOfBytes": "64"
      },
      "t_struct(RoleData)19_storage": {
        "encoding": "inplace",
        "label": "struct AccessControl.RoleData",
        "members": [
          {
            "astId": 16,
            "contract": "contracts/StartFiStakes.sol:StartFiStakes",
            "label": "members",
            "offset": 0,
            "slot": "0",
            "type": "t_mapping(t_address,t_bool)"
          },
          {
            "astId": 18,
            "contract": "contracts/StartFiStakes.sol:StartFiStakes",
            "label": "adminRole",
            "offset": 0,
            "slot": "1",
            "type": "t_bytes32"
          }
        ],
        "numberOfBytes": "64"
      },
      "t_struct(Set)2685_storage": {
        "encoding": "inplace",
        "label": "struct EnumerableSet.Set",
        "members": [
          {
            "astId": 2680,
            "contract": "contracts/StartFiStakes.sol:StartFiStakes",
            "label": "_values",
            "offset": 0,
            "slot": "0",
            "type": "t_array(t_bytes32)dyn_storage"
          },
          {
            "astId": 2684,
            "contract": "contracts/StartFiStakes.sol:StartFiStakes",
            "label": "_indexes",
            "offset": 0,
            "slot": "1",
            "type": "t_mapping(t_bytes32,t_uint256)"
          }
        ],
        "numberOfBytes": "64"
      },
      "t_struct(userPools)3303_storage": {
        "encoding": "inplace",
        "label": "struct StartFiStakes.userPools",
        "members": [
          {
            "astId": 3298,
            "contract": "contracts/StartFiStakes.sol:StartFiStakes",
            "label": "amount",
            "offset": 0,
            "slot": "0",
            "type": "t_uint256"
          },
          {
            "astId": 3300,
            "contract": "contracts/StartFiStakes.sol:StartFiStakes",
            "label": "registerBlock",
            "offset": 0,
            "slot": "1",
            "type": "t_uint256"
          },
          {
            "astId": 3302,
            "contract": "contracts/StartFiStakes.sol:StartFiStakes",
            "label": "reservedToIDO",
            "offset": 0,
            "slot": "2",
            "type": "t_bool"
          }
        ],
        "numberOfBytes": "96"
      },
      "t_uint256": {
        "encoding": "inplace",
        "label": "uint256",
        "numberOfBytes": "32"
      }
    }
  }
}