{
  "address": "0x220B67583b0705416A750a38e3E8e95852017CEa",
  "abi": [
    {
      "inputs": [
        {
          "internalType": "address",
          "name": "token_",
          "type": "address"
        },
        {
          "internalType": "address",
          "name": "_owner",
          "type": "address"
        },
        {
          "internalType": "uint256",
          "name": "lockDuration_",
          "type": "uint256"
        }
      ],
      "stateMutability": "nonpayable",
      "type": "constructor"
    },
    {
      "anonymous": false,
      "inputs": [
        {
          "indexed": false,
          "internalType": "uint256",
          "name": "duration",
          "type": "uint256"
        }
      ],
      "name": "ChangeLockDuration",
      "type": "event"
    },
    {
      "anonymous": false,
      "inputs": [
        {
          "indexed": true,
          "internalType": "address",
          "name": "diposter",
          "type": "address"
        },
        {
          "indexed": false,
          "internalType": "uint256",
          "name": "amount",
          "type": "uint256"
        }
      ],
      "name": "DepositFunds",
      "type": "event"
    },
    {
      "anonymous": false,
      "inputs": [
        {
          "indexed": false,
          "internalType": "address",
          "name": "account",
          "type": "address"
        }
      ],
      "name": "Paused",
      "type": "event"
    },
    {
      "anonymous": false,
      "inputs": [
        {
          "indexed": true,
          "internalType": "bytes32",
          "name": "role",
          "type": "bytes32"
        },
        {
          "indexed": true,
          "internalType": "bytes32",
          "name": "previousAdminRole",
          "type": "bytes32"
        },
        {
          "indexed": true,
          "internalType": "bytes32",
          "name": "newAdminRole",
          "type": "bytes32"
        }
      ],
      "name": "RoleAdminChanged",
      "type": "event"
    },
    {
      "anonymous": false,
      "inputs": [
        {
          "indexed": true,
          "internalType": "bytes32",
          "name": "role",
          "type": "bytes32"
        },
        {
          "indexed": true,
          "internalType": "address",
          "name": "account",
          "type": "address"
        },
        {
          "indexed": true,
          "internalType": "address",
          "name": "sender",
          "type": "address"
        }
      ],
      "name": "RoleGranted",
      "type": "event"
    },
    {
      "anonymous": false,
      "inputs": [
        {
          "indexed": true,
          "internalType": "bytes32",
          "name": "role",
          "type": "bytes32"
        },
        {
          "indexed": true,
          "internalType": "address",
          "name": "account",
          "type": "address"
        },
        {
          "indexed": true,
          "internalType": "address",
          "name": "sender",
          "type": "address"
        }
      ],
      "name": "RoleRevoked",
      "type": "event"
    },
    {
      "anonymous": false,
      "inputs": [
        {
          "indexed": false,
          "internalType": "address",
          "name": "account",
          "type": "address"
        }
      ],
      "name": "Unpaused",
      "type": "event"
    },
    {
      "anonymous": false,
      "inputs": [
        {
          "indexed": true,
          "internalType": "address",
          "name": "diposter",
          "type": "address"
        },
        {
          "indexed": false,
          "internalType": "uint256",
          "name": "amount",
          "type": "uint256"
        }
      ],
      "name": "WithdrawFunds",
      "type": "event"
    },
    {
      "inputs": [],
      "name": "DEFAULT_ADMIN_ROLE",
      "outputs": [
        {
          "internalType": "bytes32",
          "name": "",
          "type": "bytes32"
        }
      ],
      "stateMutability": "view",
      "type": "function"
    },
    {
      "inputs": [],
      "name": "IDO_ROLE",
      "outputs": [
        {
          "internalType": "bytes32",
          "name": "",
          "type": "bytes32"
        }
      ],
      "stateMutability": "view",
      "type": "function"
    },
    {
      "inputs": [],
      "name": "OWNER_ROLE",
      "outputs": [
        {
          "internalType": "bytes32",
          "name": "",
          "type": "bytes32"
        }
      ],
      "stateMutability": "view",
      "type": "function"
    },
    {
      "inputs": [
        {
          "internalType": "address",
          "name": "user",
          "type": "address"
        },
        {
          "internalType": "uint256",
          "name": "amount",
          "type": "uint256"
        }
      ],
      "name": "deposit",
      "outputs": [],
      "stateMutability": "nonpayable",
      "type": "function"
    },
    {
      "inputs": [
        {
          "internalType": "uint256[]",
          "name": "proofIndexes",
          "type": "uint256[]"
        }
      ],
      "name": "emergencyWithdraw",
      "outputs": [],
      "stateMutability": "nonpayable",
      "type": "function"
    },
    {
      "inputs": [
        {
          "internalType": "address",
          "name": "_owner",
          "type": "address"
        }
      ],
      "name": "getReserves",
      "outputs": [
        {
          "internalType": "uint256",
          "name": "",
          "type": "uint256"
        }
      ],
      "stateMutability": "view",
      "type": "function"
    },
    {
      "inputs": [
        {
          "internalType": "bytes32",
          "name": "role",
          "type": "bytes32"
        }
      ],
      "name": "getRoleAdmin",
      "outputs": [
        {
          "internalType": "bytes32",
          "name": "",
          "type": "bytes32"
        }
      ],
      "stateMutability": "view",
      "type": "function"
    },
    {
      "inputs": [
        {
          "internalType": "bytes32",
          "name": "role",
          "type": "bytes32"
        },
        {
          "internalType": "uint256",
          "name": "index",
          "type": "uint256"
        }
      ],
      "name": "getRoleMember",
      "outputs": [
        {
          "internalType": "address",
          "name": "",
          "type": "address"
        }
      ],
      "stateMutability": "view",
      "type": "function"
    },
    {
      "inputs": [
        {
          "internalType": "bytes32",
          "name": "role",
          "type": "bytes32"
        }
      ],
      "name": "getRoleMemberCount",
      "outputs": [
        {
          "internalType": "uint256",
          "name": "",
          "type": "uint256"
        }
      ],
      "stateMutability": "view",
      "type": "function"
    },
    {
      "inputs": [
        {
          "internalType": "address",
          "name": "_user",
          "type": "address"
        },
        {
          "internalType": "uint256",
          "name": "index",
          "type": "uint256"
        }
      ],
      "name": "getUserPoolDetails",
      "outputs": [
        {
          "internalType": "uint256",
          "name": "amount",
          "type": "uint256"
        },
        {
          "internalType": "bool",
          "name": "unlocked",
          "type": "bool"
        },
        {
          "internalType": "bool",
          "name": "reservedToIDO",
          "type": "bool"
        }
      ],
      "stateMutability": "view",
      "type": "function"
    },
    {
      "inputs": [
        {
          "internalType": "address",
          "name": "_user",
          "type": "address"
        }
      ],
      "name": "getUserPoolLenght",
      "outputs": [
        {
          "internalType": "uint256",
          "name": "",
          "type": "uint256"
        }
      ],
      "stateMutability": "view",
      "type": "function"
    },
    {
      "inputs": [
        {
          "internalType": "bytes32",
          "name": "role",
          "type": "bytes32"
        },
        {
          "internalType": "address",
          "name": "account",
          "type": "address"
        }
      ],
      "name": "grantRole",
      "outputs": [],
      "stateMutability": "nonpayable",
      "type": "function"
    },
    {
      "inputs": [
        {
          "internalType": "bytes32",
          "name": "role",
          "type": "bytes32"
        },
        {
          "internalType": "address",
          "name": "account",
          "type": "address"
        }
      ],
      "name": "hasRole",
      "outputs": [
        {
          "internalType": "bool",
          "name": "",
          "type": "bool"
        }
      ],
      "stateMutability": "view",
      "type": "function"
    },
    {
      "inputs": [],
      "name": "lockDuration",
      "outputs": [
        {
          "internalType": "uint256",
          "name": "",
          "type": "uint256"
        }
      ],
      "stateMutability": "view",
      "type": "function"
    },
    {
      "inputs": [],
      "name": "pause",
      "outputs": [],
      "stateMutability": "nonpayable",
      "type": "function"
    },
    {
      "inputs": [],
      "name": "paused",
      "outputs": [
        {
          "internalType": "bool",
          "name": "",
          "type": "bool"
        }
      ],
      "stateMutability": "view",
      "type": "function"
    },
    {
      "inputs": [
        {
          "internalType": "bytes32",
          "name": "role",
          "type": "bytes32"
        },
        {
          "internalType": "address",
          "name": "account",
          "type": "address"
        }
      ],
      "name": "renounceRole",
      "outputs": [],
      "stateMutability": "nonpayable",
      "type": "function"
    },
    {
      "inputs": [
        {
          "internalType": "bytes32",
          "name": "role",
          "type": "bytes32"
        },
        {
          "internalType": "address",
          "name": "account",
          "type": "address"
        }
      ],
      "name": "revokeRole",
      "outputs": [],
      "stateMutability": "nonpayable",
      "type": "function"
    },
    {
      "inputs": [],
      "name": "stakingToken",
      "outputs": [
        {
          "internalType": "address",
          "name": "",
          "type": "address"
        }
      ],
      "stateMutability": "view",
      "type": "function"
    },
    {
      "inputs": [
        {
          "internalType": "bytes4",
          "name": "interfaceId",
          "type": "bytes4"
        }
      ],
      "name": "supportsInterface",
      "outputs": [
        {
          "internalType": "bool",
          "name": "",
          "type": "bool"
        }
      ],
      "stateMutability": "view",
      "type": "function"
    },
    {
      "inputs": [],
      "name": "unpause",
      "outputs": [],
      "stateMutability": "nonpayable",
      "type": "function"
    },
    {
      "inputs": [
        {
          "internalType": "uint256",
          "name": "_duration",
          "type": "uint256"
        }
      ],
      "name": "updateLockDuration",
      "outputs": [],
      "stateMutability": "nonpayable",
      "type": "function"
    },
    {
      "inputs": [
        {
          "internalType": "address",
          "name": "user",
          "type": "address"
        },
        {
          "internalType": "uint256[]",
          "name": "proofIndexes",
          "type": "uint256[]"
        }
      ],
      "name": "validateStakes",
      "outputs": [
        {
          "internalType": "uint256",
          "name": "reservAmount",
          "type": "uint256"
        }
      ],
      "stateMutability": "nonpayable",
      "type": "function"
    },
    {
      "inputs": [
        {
          "internalType": "uint256",
          "name": "amount",
          "type": "uint256"
        },
        {
          "internalType": "uint256[]",
          "name": "proofIndexes",
          "type": "uint256[]"
        }
      ],
      "name": "withdraw",
      "outputs": [],
      "stateMutability": "nonpayable",
      "type": "function"
    }
  ],
  "transactionHash": "0xd0d33361044b30ed5bd90065688ecc0bf1b1dbd9c4734a3383f3c910daef9a03",
  "args": [
    "0xbf0ffba74bbfe340788a9d951d7b3a1a261e5eb2",
    "0xe092b1fa25DF5786D151246E492Eed3d15EA4dAA",
    7
  ],
  "solcInputHash": "99564d249213b4f902d12c5e3cddcb07",
  "bytecode": "0x60806040523480156200001157600080fd5b506040516200234238038062002342833981016040819052620000349162000293565b6000805460ff19169055600180556001600160a01b038316158015906200005a57508015155b620000ab5760405162461bcd60e51b815260206004820152601b60248201527f5a65726f2076616c75657320617265206e6f7420616c6c6f7765730000000000604482015260640160405180910390fd5b600580546001600160a01b0319166001600160a01b0385161790556004819055620000d86000836200010d565b620001047fb19546dff01e856fb3f010c267a7b1c60363cf8a4664e21cc89c26224620214e836200010d565b505050620002d3565b6200012482826200015060201b620014531760201c565b60008281526003602090815260409091206200014b9183906200146162000160821b17901c565b505050565b6200015c828262000180565b5050565b600062000177836001600160a01b03841662000224565b90505b92915050565b60008281526002602090815260408083206001600160a01b038516845290915290205460ff166200015c5760008281526002602090815260408083206001600160a01b03851684529091529020805460ff19166001179055620001e03390565b6001600160a01b0316816001600160a01b0316837f2f8788117e7eff1d82e926ec794901d17c78024a50270940304540a733656f0d60405160405180910390a45050565b60008181526001830160205260408120546200026d575081546001818101845560008481526020808220909301849055845484825282860190935260409020919091556200017a565b5060006200017a565b80516001600160a01b03811681146200028e57600080fd5b919050565b600080600060608486031215620002a8578283fd5b620002b38462000276565b9250620002c36020850162000276565b9150604084015190509250925092565b61205f80620002e36000396000f3fe608060405234801561001057600080fd5b50600436106101985760003560e01c806372f702f3116100e3578063ca15c8731161008c578063d477edf411610066578063d477edf4146103be578063d547741f146103d1578063e58378bb146103e457600080fd5b8063ca15c87314610385578063ce65807014610398578063d1941b06146103ab57600080fd5b806391d14854116100bd57806391d148541461031d578063a0cf36ea14610356578063a217fddf1461037d57600080fd5b806372f702f3146102dd5780638456cb59146103025780639010d07c1461030a57600080fd5b80633f4ba83a116101455780635915d8061161011f5780635915d806146102965780635a7c12a4146102a95780635c975abb146102d257600080fd5b80633f4ba83a1461024b57806345ffc9db1461025357806347e7ef241461028357600080fd5b80632f2ff15d116101765780632f2ff15d146101fa57806336568abe1461020f5780633e99c1e41461022257600080fd5b806301ffc9a71461019d57806304554443146101c5578063248a9ca3146101d7575b600080fd5b6101b06101ab366004611e4a565b61040b565b60405190151581526020015b60405180910390f35b6004545b6040519081526020016101bc565b6101c96101e5366004611de6565b60009081526002602052604090206001015490565b61020d610208366004611dfe565b610436565b005b61020d61021d366004611dfe565b61045d565b6101c9610230366004611cf2565b6001600160a01b031660009081526006602052604090205490565b61020d61047f565b610266610261366004611d5d565b610547565b6040805193845291151560208401521515908201526060016101bc565b61020d610291366004611d5d565b610666565b61020d6102a4366004611e8a565b6108b9565b6101c96102b7366004611cf2565b6001600160a01b031660009081526007602052604090205490565b60005460ff166101b0565b6005546001600160a01b03165b6040516001600160a01b0390911681526020016101bc565b61020d610d08565b6102ea610318366004611e29565b610dc6565b6101b061032b366004611dfe565b60009182526002602090815260408084206001600160a01b0393909316845291905290205460ff1690565b6101c97f062f9ed91714f2528ca4e5fa3c2df24b0c0b0bea3c1478809e723db55d861df681565b6101c9600081565b6101c9610393366004611de6565b610de5565b6101c96103a6366004611d0c565b610dfc565b61020d6103b9366004611d86565b6110f1565b61020d6103cc366004611de6565b6112f5565b61020d6103df366004611dfe565b611449565b6101c97fb19546dff01e856fb3f010c267a7b1c60363cf8a4664e21cc89c26224620214e81565b60006001600160e01b03198216635a05180f60e01b1480610430575061043082611476565b92915050565b61044082826114ab565b60008281526003602052604090206104589082611461565b505050565b61046782826114d1565b6000828152600360205260409020610458908261154b565b6104a97fb19546dff01e856fb3f010c267a7b1c60363cf8a4664e21cc89c26224620214e3361032b565b6104f45760405162461bcd60e51b815260206004820152601760248201527631b0b63632b91034b9903737ba103a34329037bbb732b960491b60448201526064015b60405180910390fd5b60005460ff1661053d5760405162461bcd60e51b815260206004820152601460248201527314185d5cd8589b194e881b9bdd081c185d5cd95960621b60448201526064016104eb565b610545611560565b565b6001600160a01b03821660009081526007602052604081208054829182918590811061058357634e487b7160e01b600052603260045260246000fd5b90600052602060002090600302016000015492504260045460076000886001600160a01b03166001600160a01b0316815260200190815260200160002086815481106105df57634e487b7160e01b600052603260045260246000fd5b9060005260206000209060030201600101546105fb9190611f63565b1115915060076000866001600160a01b03166001600160a01b03168152602001908152602001600020848154811061064357634e487b7160e01b600052603260045260246000fd5b600091825260209091206002600390920201015492959194505060ff9091169150565b60005460ff16156106ac5760405162461bcd60e51b815260206004820152601060248201526f14185d5cd8589b194e881c185d5cd95960821b60448201526064016104eb565b600260015414156106ff5760405162461bcd60e51b815260206004820152601f60248201527f5265656e7472616e637947756172643a207265656e7472616e742063616c6c0060448201526064016104eb565b60026001558061070e336115f3565b101561074d5760405162461bcd60e51b815260206004820152600e60248201526d125b9d985b1a5908185b5bdd5b9d60921b60448201526064016104eb565b6005546001600160a01b03166323b872dd336040516001600160e01b031960e084901b1681526001600160a01b03909116600482015230602482015260448101849052606401602060405180830381600087803b1580156107ad57600080fd5b505af11580156107c1573d6000803e3d6000fd5b505050506040513d601f19601f820116820180604052508101906107e59190611dc6565b506001600160a01b03821660008181526007602090815260408083208151606081018352868152428185019081528184018681528354600180820186559488528688209351600390910290930192835590519282019290925590516002909101805460ff191691151591909117905592825260069052908120805483929061086e908490611f63565b90915550506040518181526001600160a01b038316907fd241e73300212f6df233a8e6d3146b88a9d4964e06621d54b5ff6afeba7b1b889060200160405180910390a2505060018055565b60005460ff16156108ff5760405162461bcd60e51b815260206004820152601060248201526f14185d5cd8589b194e881c185d5cd95960821b60448201526064016104eb565b600260015414156109525760405162461bcd60e51b815260206004820152601f60248201527f5265656e7472616e637947756172643a207265656e7472616e742063616c6c0060448201526064016104eb565b6002600155336000908152600660205260409020548311156109a75760405162461bcd60e51b815260206004820152600e60248201526d125b9d985b1a5908185b5bdd5b9d60921b60448201526064016104eb565b3360009081526007602052604081209084905b83811015610c8e578115610c7c576000838686848181106109eb57634e487b7160e01b600052603260045260246000fd5b9050602002013581548110610a1057634e487b7160e01b600052603260045260246000fd5b906000526020600020906003020160000154118015610a9357504260045484878785818110610a4f57634e487b7160e01b600052603260045260246000fd5b9050602002013581548110610a7457634e487b7160e01b600052603260045260246000fd5b906000526020600020906003020160010154610a909190611f63565b11155b610aea5760405162461bcd60e51b815260206004820152602260248201527f66756e64206973206c6f636b6564206f7220616c72656164792072656c656173604482015261195960f21b60648201526084016104eb565b82858583818110610b0b57634e487b7160e01b600052603260045260246000fd5b9050602002013581548110610b3057634e487b7160e01b600052603260045260246000fd5b9060005260206000209060030201600001548210610c0b57600083868684818110610b6b57634e487b7160e01b600052603260045260246000fd5b9050602002013581548110610b9057634e487b7160e01b600052603260045260246000fd5b600091825260209091206003909102015582858583818110610bc257634e487b7160e01b600052603260045260246000fd5b9050602002013581548110610be757634e487b7160e01b600052603260045260246000fd5b90600052602060002090600302016000015482610c049190611f9a565b9150610c7c565b8183868684818110610c2d57634e487b7160e01b600052603260045260246000fd5b9050602002013581548110610c5257634e487b7160e01b600052603260045260246000fd5b90600052602060002090600302016000016000828254610c729190611f9a565b9091555060009250505b80610c8681611ff8565b9150506109ba565b50610c993386611677565b5033600090815260066020526040902054610cb5908690611f9a565b33600081815260066020908152604091829020939093555187815290917f21901fa892c430ea8bd38b9390225ac8e67eac75ee10ffba16feefc539a288f9910160405180910390a2505060018055505050565b610d327fb19546dff01e856fb3f010c267a7b1c60363cf8a4664e21cc89c26224620214e3361032b565b610d785760405162461bcd60e51b815260206004820152601760248201527631b0b63632b91034b9903737ba103a34329037bbb732b960491b60448201526064016104eb565b60005460ff1615610dbe5760405162461bcd60e51b815260206004820152601060248201526f14185d5cd8589b194e881c185d5cd95960821b60448201526064016104eb565b6105456116fe565b6000828152600360205260408120610dde9083611779565b9392505050565b600081815260036020526040812061043090611785565b6000610e287f062f9ed91714f2528ca4e5fa3c2df24b0c0b0bea3c1478809e723db55d861df63361032b565b610e685760405162461bcd60e51b815260206004820152601160248201527063616c6c6572206973206e6f742049444f60781b60448201526064016104eb565b60005460ff1615610eae5760405162461bcd60e51b815260206004820152601060248201526f14185d5cd8589b194e881c185d5cd95960821b60448201526064016104eb565b6001600160a01b0384166000908152600760205260408120905b838110156110e85781858583818110610ef157634e487b7160e01b600052603260045260246000fd5b9050602002013581548110610f1657634e487b7160e01b600052603260045260246000fd5b600091825260209091206002600390920201015460ff16158015610f915750600082868684818110610f5857634e487b7160e01b600052603260045260246000fd5b9050602002013581548110610f7d57634e487b7160e01b600052603260045260246000fd5b906000526020600020906003020160000154115b801561100157504260045483878785818110610fbd57634e487b7160e01b600052603260045260246000fd5b9050602002013581548110610fe257634e487b7160e01b600052603260045260246000fd5b906000526020600020906003020160010154610ffe9190611f63565b11155b156110d6578185858381811061102757634e487b7160e01b600052603260045260246000fd5b905060200201358154811061104c57634e487b7160e01b600052603260045260246000fd5b906000526020600020906003020160000154836110699190611f63565b925060018286868481811061108e57634e487b7160e01b600052603260045260246000fd5b90506020020135815481106110b357634e487b7160e01b600052603260045260246000fd5b60009182526020909120600390910201600201805460ff19169115159190911790555b806110e081611ff8565b915050610ec8565b50509392505050565b60005460ff1661113a5760405162461bcd60e51b815260206004820152601460248201527314185d5cd8589b194e881b9bdd081c185d5cd95960621b60448201526064016104eb565b6002600154141561118d5760405162461bcd60e51b815260206004820152601f60248201527f5265656e7472616e637947756172643a207265656e7472616e742063616c6c0060448201526064016104eb565b600260015533600090815260076020526040812090805b8381101561127c57828585838181106111cd57634e487b7160e01b600052603260045260246000fd5b90506020020135815481106111f257634e487b7160e01b600052603260045260246000fd5b9060005260206000209060030201600001548261120f9190611f63565b915060008386868481811061123457634e487b7160e01b600052603260045260246000fd5b905060200201358154811061125957634e487b7160e01b600052603260045260246000fd5b60009182526020909120600390910201558061127481611ff8565b9150506111a4565b506112873382611677565b50336000908152600660205260409020546112a3908290611f9a565b33600081815260066020908152604091829020939093555183815290917f21901fa892c430ea8bd38b9390225ac8e67eac75ee10ffba16feefc539a288f9910160405180910390a25050600180555050565b61131f7fb19546dff01e856fb3f010c267a7b1c60363cf8a4664e21cc89c26224620214e3361032b565b6113655760405162461bcd60e51b815260206004820152601760248201527631b0b63632b91034b9903737ba103a34329037bbb732b960491b60448201526064016104eb565b60005460ff166113ae5760405162461bcd60e51b815260206004820152601460248201527314185d5cd8589b194e881b9bdd081c185d5cd95960621b60448201526064016104eb565b62015180811161140e5760405162461bcd60e51b815260206004820152602560248201527f4c6f636b2074696d65206d757374206e6f74206265206c657373207468616e20604482015264612064617960d81b60648201526084016104eb565b60048190556040518181527f2416e279d018f03f6e6e190f55a4363348eca1c39db39c5e2019249d761423239060200160405180910390a150565b610467828261178f565b61145d82826117b5565b5050565b6000610dde836001600160a01b03841661183b565b60006001600160e01b03198216637965db0b60e01b148061043057506301ffc9a760e01b6001600160e01b0319831614610430565b6000828152600260205260409020600101546114c7813361188a565b61045883836117b5565b6001600160a01b03811633146115415760405162461bcd60e51b815260206004820152602f60248201527f416363657373436f6e74726f6c3a2063616e206f6e6c792072656e6f756e636560448201526e103937b632b9903337b91039b2b63360891b60648201526084016104eb565b61145d82826118ee565b6000610dde836001600160a01b038416611955565b60005460ff166115a95760405162461bcd60e51b815260206004820152601460248201527314185d5cd8589b194e881b9bdd081c185d5cd95960621b60448201526064016104eb565b6000805460ff191690557f5db9ee0a495bf2e6ff9c91a7834c1ba4fdd244a5e8aa4e537bd38aeae4b073aa335b6040516001600160a01b03909116815260200160405180910390a1565b600554604051636eb1769f60e11b81526001600160a01b038381166004830152306024830152600092169063dd62ed3e9060440160206040518083038186803b15801561163f57600080fd5b505afa158015611653573d6000803e3d6000fd5b505050506040513d601f19601f820116820180604052508101906104309190611e72565b60055460405163a9059cbb60e01b81526001600160a01b03848116600483015260248201849052600092169063a9059cbb90604401602060405180830381600087803b1580156116c657600080fd5b505af11580156116da573d6000803e3d6000fd5b505050506040513d601f19601f82011682018060405250810190610dde9190611dc6565b60005460ff16156117445760405162461bcd60e51b815260206004820152601060248201526f14185d5cd8589b194e881c185d5cd95960821b60448201526064016104eb565b6000805460ff191660011790557f62e78cea01bee320cd4e420270b5ea74000d11b0c9f74754ebdbfc544b05a2586115d63390565b6000610dde8383611a72565b6000610430825490565b6000828152600260205260409020600101546117ab813361188a565b61045883836118ee565b6117bf828261032b565b61145d5760008281526002602090815260408083206001600160a01b03851684529091529020805460ff191660011790556117f73390565b6001600160a01b0316816001600160a01b0316837f2f8788117e7eff1d82e926ec794901d17c78024a50270940304540a733656f0d60405160405180910390a45050565b600081815260018301602052604081205461188257508154600181810184556000848152602080822090930184905584548482528286019093526040902091909155610430565b506000610430565b611894828261032b565b61145d576118ac816001600160a01b03166014611aaa565b6118b7836020611aaa565b6040516020016118c8929190611ebb565b60408051601f198184030181529082905262461bcd60e51b82526104eb91600401611f30565b6118f8828261032b565b1561145d5760008281526002602090815260408083206001600160a01b0385168085529252808320805460ff1916905551339285917ff6391f5c32d9c69d2a47ea670b442974b53935d1edc7fd64eb21e047a839171b9190a45050565b60008181526001830160205260408120548015611a68576000611979600183611f9a565b855490915060009061198d90600190611f9a565b9050818114611a0e5760008660000182815481106119bb57634e487b7160e01b600052603260045260246000fd5b90600052602060002001549050808760000184815481106119ec57634e487b7160e01b600052603260045260246000fd5b6000918252602080832090910192909255918252600188019052604090208390555b8554869080611a2d57634e487b7160e01b600052603160045260246000fd5b600190038181906000526020600020016000905590558560010160008681526020019081526020016000206000905560019350505050610430565b6000915050610430565b6000826000018281548110611a9757634e487b7160e01b600052603260045260246000fd5b9060005260206000200154905092915050565b60606000611ab9836002611f7b565b611ac4906002611f63565b67ffffffffffffffff811115611aea57634e487b7160e01b600052604160045260246000fd5b6040519080825280601f01601f191660200182016040528015611b14576020820181803683370190505b509050600360fc1b81600081518110611b3d57634e487b7160e01b600052603260045260246000fd5b60200101906001600160f81b031916908160001a905350600f60fb1b81600181518110611b7a57634e487b7160e01b600052603260045260246000fd5b60200101906001600160f81b031916908160001a9053506000611b9e846002611f7b565b611ba9906001611f63565b90505b6001811115611c3d576f181899199a1a9b1b9c1cb0b131b232b360811b85600f1660108110611beb57634e487b7160e01b600052603260045260246000fd5b1a60f81b828281518110611c0f57634e487b7160e01b600052603260045260246000fd5b60200101906001600160f81b031916908160001a90535060049490941c93611c3681611fe1565b9050611bac565b508315610dde5760405162461bcd60e51b815260206004820181905260248201527f537472696e67733a20686578206c656e67746820696e73756666696369656e7460448201526064016104eb565b80356001600160a01b0381168114611ca357600080fd5b919050565b60008083601f840112611cb9578182fd5b50813567ffffffffffffffff811115611cd0578182fd5b6020830191508360208260051b8501011115611ceb57600080fd5b9250929050565b600060208284031215611d03578081fd5b610dde82611c8c565b600080600060408486031215611d20578182fd5b611d2984611c8c565b9250602084013567ffffffffffffffff811115611d44578283fd5b611d5086828701611ca8565b9497909650939450505050565b60008060408385031215611d6f578182fd5b611d7883611c8c565b946020939093013593505050565b60008060208385031215611d98578182fd5b823567ffffffffffffffff811115611dae578283fd5b611dba85828601611ca8565b90969095509350505050565b600060208284031215611dd7578081fd5b81518015158114610dde578182fd5b600060208284031215611df7578081fd5b5035919050565b60008060408385031215611e10578182fd5b82359150611e2060208401611c8c565b90509250929050565b60008060408385031215611e3b578182fd5b50508035926020909101359150565b600060208284031215611e5b578081fd5b81356001600160e01b031981168114610dde578182fd5b600060208284031215611e83578081fd5b5051919050565b600080600060408486031215611e9e578283fd5b83359250602084013567ffffffffffffffff811115611d44578283fd5b7f416363657373436f6e74726f6c3a206163636f756e7420000000000000000000815260008351611ef3816017850160208801611fb1565b7001034b99036b4b9b9b4b733903937b6329607d1b6017918401918201528351611f24816028840160208801611fb1565b01602801949350505050565b6020815260008251806020840152611f4f816040850160208701611fb1565b601f01601f19169190910160400192915050565b60008219821115611f7657611f76612013565b500190565b6000816000190483118215151615611f9557611f95612013565b500290565b600082821015611fac57611fac612013565b500390565b60005b83811015611fcc578181015183820152602001611fb4565b83811115611fdb576000848401525b50505050565b600081611ff057611ff0612013565b506000190190565b600060001982141561200c5761200c612013565b5060010190565b634e487b7160e01b600052601160045260246000fdfea26469706673582212203b0f540008a729285927fa590434bab6a78fa8e24ce1a41064a4870dc06305fa64736f6c63430008040033",
  "devdoc": {
    "kind": "dev",
    "methods": {
      "getRoleAdmin(bytes32)": {
        "details": "Returns the admin role that controls `role`. See {grantRole} and {revokeRole}. To change a role's admin, use {_setRoleAdmin}."
      },
      "getRoleMember(bytes32,uint256)": {
        "details": "Returns one of the accounts that have `role`. `index` must be a value between 0 and {getRoleMemberCount}, non-inclusive. Role bearers are not sorted in any particular way, and their ordering may change at any point. WARNING: When using {getRoleMember} and {getRoleMemberCount}, make sure you perform all queries on the same block. See the following https://forum.openzeppelin.com/t/iterating-over-elements-on-enumerableset-in-openzeppelin-contracts/2296[forum post] for more information."
      },
      "getRoleMemberCount(bytes32)": {
        "details": "Returns the number of accounts that have `role`. Can be used together with {getRoleMember} to enumerate all bearers of a role."
      },
      "grantRole(bytes32,address)": {
        "details": "Overload {grantRole} to track enumerable memberships"
      },
      "hasRole(bytes32,address)": {
        "details": "Returns `true` if `account` has been granted `role`."
      },
      "pause()": {
        "details": "Pauses contract. Requirements: - the caller must be the owner."
      },
      "paused()": {
        "details": "Returns true if the contract is paused, and false otherwise."
      },
      "renounceRole(bytes32,address)": {
        "details": "Overload {renounceRole} to track enumerable memberships"
      },
      "revokeRole(bytes32,address)": {
        "details": "Overload {revokeRole} to track enumerable memberships"
      },
      "supportsInterface(bytes4)": {
        "details": "See {IERC165-supportsInterface}."
      },
      "unpause()": {
        "details": "Unpauses contract. Requirements: - the caller must be the owner."
      }
    },
    "title": "StartFi Stakes [ desc ] : contract to hold users stakes",
    "version": 1
  },
  "userdoc": {
    "kind": "user",
    "methods": {},
    "notice": ": the logic behind this contract is not implemented yet, this is just a basic design for the sake of testing the marketplace cycle",
    "version": 1
  },
  "storageLayout": {
    "storage": [
      {
        "astId": 708,
        "contract": "contracts/StartFiStakes.sol:StartFiStakes",
        "label": "_paused",
        "offset": 0,
        "slot": "0",
        "type": "t_bool"
      },
      {
        "astId": 793,
        "contract": "contracts/StartFiStakes.sol:StartFiStakes",
        "label": "_status",
        "offset": 0,
        "slot": "1",
        "type": "t_uint256"
      },
      {
        "astId": 24,
        "contract": "contracts/StartFiStakes.sol:StartFiStakes",
        "label": "_roles",
        "offset": 0,
        "slot": "2",
        "type": "t_mapping(t_bytes32,t_struct(RoleData)19_storage)"
      },
      {
        "astId": 325,
        "contract": "contracts/StartFiStakes.sol:StartFiStakes",
        "label": "_roleMembers",
        "offset": 0,
        "slot": "3",
        "type": "t_mapping(t_bytes32,t_struct(AddressSet)2986_storage)"
      },
      {
        "astId": 3288,
        "contract": "contracts/StartFiStakes.sol:StartFiStakes",
        "label": "_lockDuration",
        "offset": 0,
        "slot": "4",
        "type": "t_uint256"
      },
      {
        "astId": 3290,
        "contract": "contracts/StartFiStakes.sol:StartFiStakes",
        "label": "_stakingToken",
        "offset": 0,
        "slot": "5",
        "type": "t_address"
      },
      {
        "astId": 3311,
        "contract": "contracts/StartFiStakes.sol:StartFiStakes",
        "label": "stakerTotalStakes",
        "offset": 0,
        "slot": "6",
        "type": "t_mapping(t_address,t_uint256)"
      },
      {
        "astId": 3317,
        "contract": "contracts/StartFiStakes.sol:StartFiStakes",
        "label": "stakerPools",
        "offset": 0,
        "slot": "7",
        "type": "t_mapping(t_address,t_array(t_struct(userPools)3307_storage)dyn_storage)"
      }
    ],
    "types": {
      "t_address": {
        "encoding": "inplace",
        "label": "address",
        "numberOfBytes": "20"
      },
      "t_array(t_bytes32)dyn_storage": {
        "base": "t_bytes32",
        "encoding": "dynamic_array",
        "label": "bytes32[]",
        "numberOfBytes": "32"
      },
      "t_array(t_struct(userPools)3307_storage)dyn_storage": {
        "base": "t_struct(userPools)3307_storage",
        "encoding": "dynamic_array",
        "label": "struct StartFiStakes.userPools[]",
        "numberOfBytes": "32"
      },
      "t_bool": {
        "encoding": "inplace",
        "label": "bool",
        "numberOfBytes": "1"
      },
      "t_bytes32": {
        "encoding": "inplace",
        "label": "bytes32",
        "numberOfBytes": "32"
      },
      "t_mapping(t_address,t_array(t_struct(userPools)3307_storage)dyn_storage)": {
        "encoding": "mapping",
        "key": "t_address",
        "label": "mapping(address => struct StartFiStakes.userPools[])",
        "numberOfBytes": "32",
        "value": "t_array(t_struct(userPools)3307_storage)dyn_storage"
      },
      "t_mapping(t_address,t_bool)": {
        "encoding": "mapping",
        "key": "t_address",
        "label": "mapping(address => bool)",
        "numberOfBytes": "32",
        "value": "t_bool"
      },
      "t_mapping(t_address,t_uint256)": {
        "encoding": "mapping",
        "key": "t_address",
        "label": "mapping(address => uint256)",
        "numberOfBytes": "32",
        "value": "t_uint256"
      },
      "t_mapping(t_bytes32,t_struct(AddressSet)2986_storage)": {
        "encoding": "mapping",
        "key": "t_bytes32",
        "label": "mapping(bytes32 => struct EnumerableSet.AddressSet)",
        "numberOfBytes": "32",
        "value": "t_struct(AddressSet)2986_storage"
      },
      "t_mapping(t_bytes32,t_struct(RoleData)19_storage)": {
        "encoding": "mapping",
        "key": "t_bytes32",
        "label": "mapping(bytes32 => struct AccessControl.RoleData)",
        "numberOfBytes": "32",
        "value": "t_struct(RoleData)19_storage"
      },
      "t_mapping(t_bytes32,t_uint256)": {
        "encoding": "mapping",
        "key": "t_bytes32",
        "label": "mapping(bytes32 => uint256)",
        "numberOfBytes": "32",
        "value": "t_uint256"
      },
      "t_struct(AddressSet)2986_storage": {
        "encoding": "inplace",
        "label": "struct EnumerableSet.AddressSet",
        "members": [
          {
            "astId": 2985,
            "contract": "contracts/StartFiStakes.sol:StartFiStakes",
            "label": "_inner",
            "offset": 0,
            "slot": "0",
            "type": "t_struct(Set)2685_storage"
          }
        ],
        "numberOfBytes": "64"
      },
      "t_struct(RoleData)19_storage": {
        "encoding": "inplace",
        "label": "struct AccessControl.RoleData",
        "members": [
          {
            "astId": 16,
            "contract": "contracts/StartFiStakes.sol:StartFiStakes",
            "label": "members",
            "offset": 0,
            "slot": "0",
            "type": "t_mapping(t_address,t_bool)"
          },
          {
            "astId": 18,
            "contract": "contracts/StartFiStakes.sol:StartFiStakes",
            "label": "adminRole",
            "offset": 0,
            "slot": "1",
            "type": "t_bytes32"
          }
        ],
        "numberOfBytes": "64"
      },
      "t_struct(Set)2685_storage": {
        "encoding": "inplace",
        "label": "struct EnumerableSet.Set",
        "members": [
          {
            "astId": 2680,
            "contract": "contracts/StartFiStakes.sol:StartFiStakes",
            "label": "_values",
            "offset": 0,
            "slot": "0",
            "type": "t_array(t_bytes32)dyn_storage"
          },
          {
            "astId": 2684,
            "contract": "contracts/StartFiStakes.sol:StartFiStakes",
            "label": "_indexes",
            "offset": 0,
            "slot": "1",
            "type": "t_mapping(t_bytes32,t_uint256)"
          }
        ],
        "numberOfBytes": "64"
      },
      "t_struct(userPools)3307_storage": {
        "encoding": "inplace",
        "label": "struct StartFiStakes.userPools",
        "members": [
          {
            "astId": 3302,
            "contract": "contracts/StartFiStakes.sol:StartFiStakes",
            "label": "amount",
            "offset": 0,
            "slot": "0",
            "type": "t_uint256"
          },
          {
            "astId": 3304,
            "contract": "contracts/StartFiStakes.sol:StartFiStakes",
            "label": "registerBlock",
            "offset": 0,
            "slot": "1",
            "type": "t_uint256"
          },
          {
            "astId": 3306,
            "contract": "contracts/StartFiStakes.sol:StartFiStakes",
            "label": "reservedToIDO",
            "offset": 0,
            "slot": "2",
            "type": "t_bool"
          }
        ],
        "numberOfBytes": "96"
      },
      "t_uint256": {
        "encoding": "inplace",
        "label": "uint256",
        "numberOfBytes": "32"
      }
    }
  }
}